{
  "contractName": "SpellsToken",
  "abi": [
    {
      "inputs": [],
      "name": "ApprovalCallerNotOwnerNorApproved",
      "type": "error"
    },
    {
      "inputs": [],
      "name": "ApprovalQueryForNonexistentToken",
      "type": "error"
    },
    {
      "inputs": [],
      "name": "BalanceQueryForZeroAddress",
      "type": "error"
    },
    {
      "inputs": [],
      "name": "BalanceQueryForZeroAddress",
      "type": "error"
    },
    {
      "inputs": [],
      "name": "ConjureMaxReached",
      "type": "error"
    },
    {
      "inputs": [],
      "name": "EternalMintNotOpen",
      "type": "error"
    },
    {
      "inputs": [],
      "name": "InvalidQueryRange",
      "type": "error"
    },
    {
      "inputs": [],
      "name": "MintClosed",
      "type": "error"
    },
    {
      "inputs": [],
      "name": "MintERC2309QuantityExceedsLimit",
      "type": "error"
    },
    {
      "inputs": [
        {
          "internalType": "uint256",
          "name": "price",
          "type": "uint256"
        }
      ],
      "name": "MintInsufficientPayment",
      "type": "error"
    },
    {
      "inputs": [],
      "name": "MintMaxReached",
      "type": "error"
    },
    {
      "inputs": [],
      "name": "MintNotAuthorized",
      "type": "error"
    },
    {
      "inputs": [],
      "name": "MintQuantityExceedsAllowance",
      "type": "error"
    },
    {
      "inputs": [],
      "name": "MintQuantityExceedsLimit",
      "type": "error"
    },
    {
      "inputs": [],
      "name": "MintToZeroAddress",
      "type": "error"
    },
    {
      "inputs": [],
      "name": "MintZeroQuantity",
      "type": "error"
    },
    {
      "inputs": [],
      "name": "OwnerQueryForNonexistentToken",
      "type": "error"
    },
    {
      "inputs": [],
      "name": "OwnershipNotInitializedForExtraData",
      "type": "error"
    },
    {
      "inputs": [],
      "name": "PaymentTransferFailed",
      "type": "error"
    },
    {
      "inputs": [],
      "name": "SenderNotSpellGate",
      "type": "error"
    },
    {
      "inputs": [],
      "name": "TransferCallerNotOwnerNorApproved",
      "type": "error"
    },
    {
      "inputs": [],
      "name": "TransferFromIncorrectOwner",
      "type": "error"
    },
    {
      "inputs": [],
      "name": "TransferToNonERC721ReceiverImplementer",
      "type": "error"
    },
    {
      "inputs": [],
      "name": "TransferToZeroAddress",
      "type": "error"
    },
    {
      "inputs": [],
      "name": "URIQueryForNonexistentToken",
      "type": "error"
    },
    {
      "inputs": [],
      "name": "ZeroAmount",
      "type": "error"
    },
    {
      "anonymous": false,
      "inputs": [
        {
          "indexed": true,
          "internalType": "address",
          "name": "owner",
          "type": "address"
        },
        {
          "indexed": true,
          "internalType": "address",
          "name": "approved",
          "type": "address"
        },
        {
          "indexed": true,
          "internalType": "uint256",
          "name": "tokenId",
          "type": "uint256"
        }
      ],
      "name": "Approval",
      "type": "event"
    },
    {
      "anonymous": false,
      "inputs": [
        {
          "indexed": true,
          "internalType": "address",
          "name": "owner",
          "type": "address"
        },
        {
          "indexed": true,
          "internalType": "address",
          "name": "operator",
          "type": "address"
        },
        {
          "indexed": false,
          "internalType": "bool",
          "name": "approved",
          "type": "bool"
        }
      ],
      "name": "ApprovalForAll",
      "type": "event"
    },
    {
      "anonymous": false,
      "inputs": [
        {
          "indexed": true,
          "internalType": "uint256",
          "name": "fromTokenId",
          "type": "uint256"
        },
        {
          "indexed": false,
          "internalType": "uint256",
          "name": "toTokenId",
          "type": "uint256"
        },
        {
          "indexed": true,
          "internalType": "address",
          "name": "from",
          "type": "address"
        },
        {
          "indexed": true,
          "internalType": "address",
          "name": "to",
          "type": "address"
        }
      ],
      "name": "ConsecutiveTransfer",
      "type": "event"
    },
    {
      "anonymous": false,
      "inputs": [
        {
          "indexed": true,
          "internalType": "address",
          "name": "from",
          "type": "address"
        },
        {
          "indexed": true,
          "internalType": "address",
          "name": "to",
          "type": "address"
        },
        {
          "indexed": true,
          "internalType": "uint256",
          "name": "tokenId",
          "type": "uint256"
        }
      ],
      "name": "Transfer",
      "type": "event"
    },
    {
      "inputs": [
        {
          "internalType": "address",
          "name": "to",
          "type": "address"
        },
        {
          "internalType": "uint256",
          "name": "tokenId",
          "type": "uint256"
        }
      ],
      "name": "approve",
      "outputs": [],
      "stateMutability": "nonpayable",
      "type": "function"
    },
    {
      "inputs": [
        {
          "internalType": "address",
          "name": "owner",
          "type": "address"
        }
      ],
      "name": "balanceOf",
      "outputs": [
        {
          "internalType": "uint256",
          "name": "",
          "type": "uint256"
        }
      ],
      "stateMutability": "view",
      "type": "function",
      "constant": true
    },
    {
      "inputs": [
        {
          "internalType": "uint256",
          "name": "tokenId",
          "type": "uint256"
        }
      ],
      "name": "explicitOwnershipOf",
      "outputs": [
        {
          "components": [
            {
              "internalType": "address",
              "name": "addr",
              "type": "address"
            },
            {
              "internalType": "uint64",
              "name": "startTimestamp",
              "type": "uint64"
            },
            {
              "internalType": "uint24",
              "name": "extraData",
              "type": "uint24"
            },
            {
              "internalType": "bool",
              "name": "burned",
              "type": "bool"
            }
          ],
          "internalType": "struct IERC721AUpgradeable.TokenOwnership",
          "name": "",
          "type": "tuple"
        }
      ],
      "stateMutability": "view",
      "type": "function",
      "constant": true
    },
    {
      "inputs": [
        {
          "internalType": "uint256[]",
          "name": "tokenIds",
          "type": "uint256[]"
        }
      ],
      "name": "explicitOwnershipsOf",
      "outputs": [
        {
          "components": [
            {
              "internalType": "address",
              "name": "addr",
              "type": "address"
            },
            {
              "internalType": "uint64",
              "name": "startTimestamp",
              "type": "uint64"
            },
            {
              "internalType": "uint24",
              "name": "extraData",
              "type": "uint24"
            },
            {
              "internalType": "bool",
              "name": "burned",
              "type": "bool"
            }
          ],
          "internalType": "struct IERC721AUpgradeable.TokenOwnership[]",
          "name": "",
          "type": "tuple[]"
        }
      ],
      "stateMutability": "view",
      "type": "function",
      "constant": true
    },
    {
      "inputs": [
        {
          "internalType": "uint256",
          "name": "tokenId",
          "type": "uint256"
        }
      ],
      "name": "getApproved",
      "outputs": [
        {
          "internalType": "address",
          "name": "",
          "type": "address"
        }
      ],
      "stateMutability": "view",
      "type": "function",
      "constant": true
    },
    {
      "inputs": [
        {
          "internalType": "int256",
          "name": "sold",
          "type": "int256"
        }
      ],
      "name": "getTargetSaleTime",
      "outputs": [
        {
          "internalType": "int256",
          "name": "",
          "type": "int256"
        }
      ],
      "stateMutability": "view",
      "type": "function",
      "constant": true
    },
    {
      "inputs": [
        {
          "internalType": "int256",
          "name": "timeSinceStart",
          "type": "int256"
        },
        {
          "internalType": "uint256",
          "name": "sold",
          "type": "uint256"
        }
      ],
      "name": "getVRGDAPrice",
      "outputs": [
        {
          "internalType": "uint256",
          "name": "",
          "type": "uint256"
        }
      ],
      "stateMutability": "view",
      "type": "function",
      "constant": true
    },
    {
      "inputs": [
        {
          "internalType": "address",
          "name": "owner",
          "type": "address"
        },
        {
          "internalType": "address",
          "name": "operator",
          "type": "address"
        }
      ],
      "name": "isApprovedForAll",
      "outputs": [
        {
          "internalType": "bool",
          "name": "",
          "type": "bool"
        }
      ],
      "stateMutability": "view",
      "type": "function",
      "constant": true
    },
    {
      "inputs": [],
      "name": "name",
      "outputs": [
        {
          "internalType": "string",
          "name": "",
          "type": "string"
        }
      ],
      "stateMutability": "view",
      "type": "function",
      "constant": true
    },
    {
      "inputs": [
        {
          "internalType": "uint256",
          "name": "tokenId",
          "type": "uint256"
        }
      ],
      "name": "ownerOf",
      "outputs": [
        {
          "internalType": "address",
          "name": "",
          "type": "address"
        }
      ],
      "stateMutability": "view",
      "type": "function",
      "constant": true
    },
    {
      "inputs": [
        {
          "internalType": "address",
          "name": "from",
          "type": "address"
        },
        {
          "internalType": "address",
          "name": "to",
          "type": "address"
        },
        {
          "internalType": "uint256",
          "name": "tokenId",
          "type": "uint256"
        }
      ],
      "name": "safeTransferFrom",
      "outputs": [],
      "stateMutability": "nonpayable",
      "type": "function"
    },
    {
      "inputs": [
        {
          "internalType": "address",
          "name": "from",
          "type": "address"
        },
        {
          "internalType": "address",
          "name": "to",
          "type": "address"
        },
        {
          "internalType": "uint256",
          "name": "tokenId",
          "type": "uint256"
        },
        {
          "internalType": "bytes",
          "name": "_data",
          "type": "bytes"
        }
      ],
      "name": "safeTransferFrom",
      "outputs": [],
      "stateMutability": "nonpayable",
      "type": "function"
    },
    {
      "inputs": [
        {
          "internalType": "address",
          "name": "operator",
          "type": "address"
        },
        {
          "internalType": "bool",
          "name": "approved",
          "type": "bool"
        }
      ],
      "name": "setApprovalForAll",
      "outputs": [],
      "stateMutability": "nonpayable",
      "type": "function"
    },
    {
      "inputs": [],
      "name": "symbol",
      "outputs": [
        {
          "internalType": "string",
          "name": "",
          "type": "string"
        }
      ],
      "stateMutability": "view",
      "type": "function",
      "constant": true
    },
    {
      "inputs": [
        {
          "internalType": "address",
          "name": "owner",
          "type": "address"
        }
      ],
      "name": "tokensOfOwner",
      "outputs": [
        {
          "internalType": "uint256[]",
          "name": "",
          "type": "uint256[]"
        }
      ],
      "stateMutability": "view",
      "type": "function",
      "constant": true
    },
    {
      "inputs": [
        {
          "internalType": "address",
          "name": "owner",
          "type": "address"
        },
        {
          "internalType": "uint256",
          "name": "start",
          "type": "uint256"
        },
        {
          "internalType": "uint256",
          "name": "stop",
          "type": "uint256"
        }
      ],
      "name": "tokensOfOwnerIn",
      "outputs": [
        {
          "internalType": "uint256[]",
          "name": "",
          "type": "uint256[]"
        }
      ],
      "stateMutability": "view",
      "type": "function",
      "constant": true
    },
    {
      "inputs": [],
      "name": "totalSupply",
      "outputs": [
        {
          "internalType": "uint256",
          "name": "",
          "type": "uint256"
        }
      ],
      "stateMutability": "view",
      "type": "function",
      "constant": true
    },
    {
      "inputs": [
        {
          "internalType": "address",
          "name": "from",
          "type": "address"
        },
        {
          "internalType": "address",
          "name": "to",
          "type": "address"
        },
        {
          "internalType": "uint256",
          "name": "tokenId",
          "type": "uint256"
        }
      ],
      "name": "transferFrom",
      "outputs": [],
      "stateMutability": "nonpayable",
      "type": "function"
    },
    {
      "inputs": [
        {
          "internalType": "string",
          "name": "name_",
          "type": "string"
        },
        {
          "internalType": "string",
          "name": "symbol_",
          "type": "string"
        },
        {
          "internalType": "int256",
          "name": "_targetPrice",
          "type": "int256"
        },
        {
          "internalType": "int256",
          "name": "_priceDecayPercent",
          "type": "int256"
        },
        {
          "internalType": "int256",
          "name": "_perTimeUnit",
          "type": "int256"
        },
        {
          "internalType": "uint256",
          "name": "_seedPrice",
          "type": "uint256"
        },
        {
          "internalType": "uint256",
          "name": "_seedSupply",
          "type": "uint256"
        },
        {
          "internalType": "address",
          "name": "_spellGate",
          "type": "address"
        },
        {
          "internalType": "address",
          "name": "_godspell",
          "type": "address"
        }
      ],
      "name": "initializeSpellsTokenFacet",
      "outputs": [],
      "stateMutability": "nonpayable",
      "type": "function"
    },
    {
      "inputs": [],
      "name": "getPrice",
      "outputs": [
        {
          "internalType": "uint256",
          "name": "",
          "type": "uint256"
        }
      ],
      "stateMutability": "view",
      "type": "function",
      "constant": true
    },
    {
      "inputs": [
        {
          "internalType": "uint256",
          "name": "tokenId",
          "type": "uint256"
        }
      ],
      "name": "getFaction",
      "outputs": [
        {
          "internalType": "uint256",
          "name": "",
          "type": "uint256"
        }
      ],
      "stateMutability": "view",
      "type": "function",
      "constant": true
    },
    {
      "inputs": [],
      "name": "eternalMintActive",
      "outputs": [
        {
          "internalType": "bool",
          "name": "",
          "type": "bool"
        }
      ],
      "stateMutability": "view",
      "type": "function",
      "constant": true
    },
    {
      "inputs": [
        {
          "internalType": "address",
          "name": "to",
          "type": "address"
        },
        {
          "internalType": "uint256",
          "name": "gate",
          "type": "uint256"
        }
      ],
      "name": "gateMint",
      "outputs": [],
      "stateMutability": "nonpayable",
      "type": "function"
    },
    {
      "inputs": [
        {
          "internalType": "uint256",
          "name": "_tokenId",
          "type": "uint256"
        }
      ],
      "name": "tokenSeed",
      "outputs": [
        {
          "internalType": "uint256",
          "name": "",
          "type": "uint256"
        }
      ],
      "stateMutability": "view",
      "type": "function",
      "constant": true
    },
    {
      "inputs": [
        {
          "internalType": "uint256",
          "name": "_allowed",
          "type": "uint256"
        },
        {
          "internalType": "uint256",
          "name": "_amount",
          "type": "uint256"
        },
        {
          "internalType": "uint8",
          "name": "_v",
          "type": "uint8"
        },
        {
          "internalType": "bytes32",
          "name": "_r",
          "type": "bytes32"
        },
        {
          "internalType": "bytes32",
          "name": "_s",
          "type": "bytes32"
        }
      ],
      "name": "conjure",
      "outputs": [],
      "stateMutability": "nonpayable",
      "type": "function"
    },
    {
      "inputs": [
        {
          "internalType": "uint256",
          "name": "amount",
          "type": "uint256"
        }
      ],
      "name": "conjure",
      "outputs": [],
      "stateMutability": "payable",
      "type": "function",
      "payable": true
    },
    {
      "inputs": [],
      "name": "conjure",
      "outputs": [],
      "stateMutability": "payable",
      "type": "function",
      "payable": true
    }
  ],
  "bytecode": "0x608060405234801561001057600080fd5b50615c1880620000216000396000f3fe60806040526004361061013c5760003560e01c806306fdde031461014157806307c7820d1461016c578063081812fc14610195578063095ea7b3146101d257806318160ddd146101fb57806323b872dd14610226578063345a17ab1461024f578063404717681461027857806341b798f3146102a157806342842e0e146102bd5780635bbb2177146102e65780635f516836146103235780636352211e146103605780636d9d33b71461039d57806370a08231146103da5780638462151c146104175780639391b5371461045457806395d89b411461045e57806398d5fdca1461048957806399a2557a146104b4578063a22cb465146104f1578063a8a150b81461051a578063b88d4fde14610557578063c23dc68f14610580578063dc502efd146105bd578063e985e9c5146105e8578063f466d4ab14610625575b600080fd5b34801561014d57600080fd5b50610156610662565b60405161016391906140ed565b60405180910390f35b34801561017857600080fd5b50610193600480360381019061018e9190614322565b6106fd565b005b3480156101a157600080fd5b506101bc60048036038101906101b79190614424565b610a05565b6040516101c99190614460565b60405180910390f35b3480156101de57600080fd5b506101f960048036038101906101f4919061447b565b610a8d565b005b34801561020757600080fd5b50610210610bda565b60405161021d91906144ca565b60405180910390f35b34801561023257600080fd5b5061024d600480360381019061024891906144e5565b610c03565b005b34801561025b57600080fd5b50610276600480360381019061027191906145a7565b610f5a565b005b34801561028457600080fd5b5061029f600480360381019061029a919061447b565b6111e2565b005b6102bb60048036038101906102b69190614424565b611431565b005b3480156102c957600080fd5b506102e460048036038101906102df91906144e5565b611566565b005b3480156102f257600080fd5b5061030d60048036038101906103089190614682565b611586565b60405161031a919061483e565b60405180910390f35b34801561032f57600080fd5b5061034a60048036038101906103459190614424565b611649565b60405161035791906144ca565b60405180910390f35b34801561036c57600080fd5b5061038760048036038101906103829190614424565b61165b565b6040516103949190614460565b60405180910390f35b3480156103a957600080fd5b506103c460048036038101906103bf9190614860565b61166d565b6040516103d1919061489c565b60405180910390f35b3480156103e657600080fd5b5061040160048036038101906103fc91906148b7565b61168b565b60405161040e91906144ca565b60405180910390f35b34801561042357600080fd5b5061043e600480360381019061043991906148b7565b61169d565b60405161044b91906149a2565b60405180910390f35b61045c6117e0565b005b34801561046a57600080fd5b506104736118da565b60405161048091906140ed565b60405180910390f35b34801561049557600080fd5b5061049e611975565b6040516104ab91906144ca565b60405180910390f35b3480156104c057600080fd5b506104db60048036038101906104d691906149c4565b611998565b6040516104e891906149a2565b60405180910390f35b3480156104fd57600080fd5b5061051860048036038101906105139190614a43565b611ba4565b005b34801561052657600080fd5b50610541600480360381019061053c9190614424565b611cb8565b60405161054e91906144ca565b60405180910390f35b34801561056357600080fd5b5061057e60048036038101906105799190614b24565b611cde565b005b34801561058c57600080fd5b506105a760048036038101906105a29190614424565b611d51565b6040516105b49190614bfc565b60405180910390f35b3480156105c957600080fd5b506105d2611dbb565b6040516105df9190614c26565b60405180910390f35b3480156105f457600080fd5b5061060f600480360381019061060a9190614c41565b611dd0565b60405161061c9190614c26565b60405180910390f35b34801561063157600080fd5b5061064c60048036038101906106479190614c81565b611e6d565b60405161065991906144ca565b60405180910390f35b606061066c611ebd565b600201805461067a90614cf0565b80601f01602080910402602001604051908101604052809291908181526020018280546106a690614cf0565b80156106f35780601f106106c8576101008083540402835291602001916106f3565b820191906000526020600020905b8154815290600101906020018083116106d657829003601f168201915b5050505050905090565b610705611eea565b60000160019054906101000a900460ff1661073957610722611eea565b60000160009054906101000a900460ff1615610742565b610741611f17565b5b610781576040517f08c379a000000000000000000000000000000000000000000000000000000000815260040161077890614d93565b60405180910390fd5b600061078b611eea565b60000160019054906101000a900460ff1615905080156107ee5760016107af611eea565b60000160016101000a81548160ff02191690831515021790555060016107d3611eea565b60000160006101000a81548160ff0219169083151502179055505b6107f6611f2e565b60030160009054906101000a900473ffffffffffffffffffffffffffffffffffffffff1673ffffffffffffffffffffffffffffffffffffffff163373ffffffffffffffffffffffffffffffffffffffff16148061087e57503073ffffffffffffffffffffffffffffffffffffffff163373ffffffffffffffffffffffffffffffffffffffff16145b6108bd576040517f08c379a00000000000000000000000000000000000000000000000000000000081526004016108b490614dff565b60405180910390fd5b6108c78a8a611f5b565b6108d2888888612000565b6108f66380ac58cd60e01b60016108e7612129565b6121569092919063ffffffff16565b61091a635b5e139f60e01b600161090b612129565b6121569092919063ffffffff16565b8461092361222e565b600001819055508361093361222e565b600101819055508261094361222e565b60030160016101000a81548173ffffffffffffffffffffffffffffffffffffffff021916908373ffffffffffffffffffffffffffffffffffffffff1602179055508161098d61222e565b60040160006101000a81548173ffffffffffffffffffffffffffffffffffffffff021916908373ffffffffffffffffffffffffffffffffffffffff16021790555080156109f95760006109de611eea565b60000160016101000a81548160ff0219169083151502179055505b50505050505050505050565b6000610a108261225b565b610a46576040517fcf4700e400000000000000000000000000000000000000000000000000000000815260040160405180910390fd5b610a4e611ebd565b600601600083815260200190815260200160002060000160009054906101000a900473ffffffffffffffffffffffffffffffffffffffff169050919050565b6000610a988261165b565b90508073ffffffffffffffffffffffffffffffffffffffff16610ab96122cc565b73ffffffffffffffffffffffffffffffffffffffff1614610b1c57610ae581610ae06122cc565b611dd0565b610b1b576040517fcfb3b94200000000000000000000000000000000000000000000000000000000815260040160405180910390fd5b5b82610b25611ebd565b600601600084815260200190815260200160002060000160006101000a81548173ffffffffffffffffffffffffffffffffffffffff021916908373ffffffffffffffffffffffffffffffffffffffff160217905550818373ffffffffffffffffffffffffffffffffffffffff168273ffffffffffffffffffffffffffffffffffffffff167f8c5be1e5ebec7d5bd14f71427d1e84f3dd0314c0f7b2291e5b200ac8c7c3b92560405160405180910390a4505050565b6000610be46122d4565b610bec611ebd565b60010154610bf8611ebd565b600001540303905090565b6000610c0e826122dd565b90508373ffffffffffffffffffffffffffffffffffffffff168173ffffffffffffffffffffffffffffffffffffffff1614610c75576040517fa114810000000000000000000000000000000000000000000000000000000000815260040160405180910390fd5b600080610c81846123c4565b91509150610c978187610c926122cc565b6123f4565b610ce357610cac86610ca76122cc565b611dd0565b610ce2576040517f59c896be00000000000000000000000000000000000000000000000000000000815260040160405180910390fd5b5b600073ffffffffffffffffffffffffffffffffffffffff168573ffffffffffffffffffffffffffffffffffffffff1603610d49576040517fea553b3400000000000000000000000000000000000000000000000000000000815260040160405180910390fd5b610d5586866001612438565b8015610d6057600082555b610d68611ebd565b60050160008773ffffffffffffffffffffffffffffffffffffffff1673ffffffffffffffffffffffffffffffffffffffff168152602001908152602001600020600081546001900391905081905550610dbf611ebd565b60050160008673ffffffffffffffffffffffffffffffffffffffff1673ffffffffffffffffffffffffffffffffffffffff1681526020019081526020016000206000815460010191905081905550610e4085610e1c888887612486565b7c0200000000000000000000000000000000000000000000000000000000176124ae565b610e48611ebd565b60040160008681526020019081526020016000208190555060007c0200000000000000000000000000000000000000000000000000000000841603610eea5760006001850190506000610e99611ebd565b60040160008381526020019081526020016000205403610ee857610ebb611ebd565b600001548114610ee75783610ece611ebd565b6004016000838152602001908152602001600020819055505b5b505b838573ffffffffffffffffffffffffffffffffffffffff168773ffffffffffffffffffffffffffffffffffffffff167fddf252ad1be2c89b69c2b068fc378daa952ba7f163c4a11628f55a4df523b3ef60405160405180910390a4610f5286868660016124d9565b505050505050565b6000610f646124df565b9050806000016000815480929190610f7b90614e4e565b91905055506000816000015490506000610f9361222e565b905060006003811115610fa957610fa8614e96565b5b8160030160009054906101000a900460ff166003811115610fcd57610fcc614e96565b5b03611004576040517f589ed34b00000000000000000000000000000000000000000000000000000000815260040160405180910390fd5b61106461100f611f2e565b60030160009054906101000a900473ffffffffffffffffffffffffffffffffffffffff16338a604051602001611046929190614f2e565b6040516020818303038152906040528051906020012088888861250c565b61109a576040517fc5ad1c2d00000000000000000000000000000000000000000000000000000000815260040160405180910390fd5b60008160020160003373ffffffffffffffffffffffffffffffffffffffff1673ffffffffffffffffffffffffffffffffffffffff168152602001908152602001600020549050888111806110f8575087818a6110f69190614f5a565b105b1561112f576040517f993a3f1900000000000000000000000000000000000000000000000000000000815260040160405180910390fd5b878260020160003373ffffffffffffffffffffffffffffffffffffffff1673ffffffffffffffffffffffffffffffffffffffff16815260200190815260200160002060008282546111809190614f8e565b9250508190555061119133896125bc565b5050816000015481146111d9576040517f08c379a00000000000000000000000000000000000000000000000000000000081526004016111d090615056565b60405180910390fd5b50505050505050565b6111ea61222e565b60030160019054906101000a900473ffffffffffffffffffffffffffffffffffffffff1673ffffffffffffffffffffffffffffffffffffffff163373ffffffffffffffffffffffffffffffffffffffff1614611272576040517fda4ee2b400000000000000000000000000000000000000000000000000000000815260040160405180910390fd5b600061127c6124df565b905080600001600081548092919061129390614e4e565b919050555060008160000154905060006112ab61222e565b9050600060038111156112c1576112c0614e96565b5b8160030160009054906101000a900460ff1660038111156112e5576112e4614e96565b5b0361131c576040517f589ed34b00000000000000000000000000000000000000000000000000000000815260040160405180910390fd5b8060030160019054906101000a900473ffffffffffffffffffffffffffffffffffffffff1673ffffffffffffffffffffffffffffffffffffffff163373ffffffffffffffffffffffffffffffffffffffff16146113a5576040517fda4ee2b400000000000000000000000000000000000000000000000000000000815260040160405180910390fd5b836113ae6126fd565b600301600060016113bd610bda565b6113c79190614f8e565b8152602001908152602001600020819055506113e48560016125bc565b508160000154811461142b576040517f08c379a000000000000000000000000000000000000000000000000000000000815260040161142290615056565b60405180910390fd5b50505050565b600061143b6124df565b905080600001600081548092919061145290614e4e565b9190505550600081600001549050600583111561149b576040517f9af6569e00000000000000000000000000000000000000000000000000000000815260040160405180910390fd5b600260038111156114af576114ae614e96565b5b6114b761222e565b60030160009054906101000a900460ff1660038111156114da576114d9614e96565b5b14611511576040517f589ed34b00000000000000000000000000000000000000000000000000000000815260040160405180910390fd5b61151b33846125bc565b81600001548114611561576040517f08c379a000000000000000000000000000000000000000000000000000000000815260040161155890615056565b60405180910390fd5b505050565b61158183838360405180602001604052806000815250611cde565b505050565b6060600083839050905060008167ffffffffffffffff8111156115ac576115ab61412d565b5b6040519080825280602002602001820160405280156115e557816020015b6115d2614005565b8152602001906001900390816115ca5790505b50905060005b82811461163d5761161486868381811061160857611607615076565b5b90506020020135611d51565b82828151811061162757611626615076565b5b60200260200101819052508060010190506115eb565b50809250505092915050565b60006116548261272a565b9050919050565b600061166682612750565b9050919050565b60006116848261167b612762565b6000015461278f565b9050919050565b6000611696826127a6565b9050919050565b606060008060006116ad8561168b565b905060008167ffffffffffffffff8111156116cb576116ca61412d565b5b6040519080825280602002602001820160405280156116f95781602001602082028036833780820191505090505b509050611704614005565b600061170e6122d4565b90505b8386146117d25761172181612867565b915081606001516117c757600073ffffffffffffffffffffffffffffffffffffffff16826000015173ffffffffffffffffffffffffffffffffffffffff161461176c57816000015194505b8773ffffffffffffffffffffffffffffffffffffffff168573ffffffffffffffffffffffffffffffffffffffff16036117c657808387806001019850815181106117b9576117b8615076565b5b6020026020010181815250505b5b806001019050611711565b508195505050505050919050565b60006117ea6124df565b905080600001600081548092919061180190614e4e565b91905055506000816000015490506002600381111561182357611822614e96565b5b61182b61222e565b60030160009054906101000a900460ff16600381111561184e5761184d614e96565b5b14611885576040517f589ed34b00000000000000000000000000000000000000000000000000000000815260040160405180910390fd5b6118903360016125bc565b816000015481146118d6576040517f08c379a00000000000000000000000000000000000000000000000000000000081526004016118cd90615056565b60405180910390fd5b5050565b60606118e4611ebd565b60030180546118f290614cf0565b80601f016020809104026020016040519081016040528092919081815260200182805461191e90614cf0565b801561196b5780601f106119405761010080835404028352916020019161196b565b820191906000526020600020905b81548152906001019060200180831161194e57829003601f168201915b5050505050905090565b60006119936001611984610bda565b61198e9190614f8e565b61289b565b905090565b60608183106119d3576040517f32c1995a00000000000000000000000000000000000000000000000000000000815260040160405180910390fd5b6000806119de612904565b90506119e86122d4565b8510156119fa576119f76122d4565b94505b80841115611a06578093505b6000611a118761168b565b905084861015611a34576000868603905081811015611a2e578091505b50611a39565b600090505b60008167ffffffffffffffff811115611a5557611a5461412d565b5b604051908082528060200260200182016040528015611a835781602001602082028036833780820191505090505b50905060008203611a9a5780945050505050611b9d565b6000611aa588611d51565b905060008160600151611aba57816000015190505b60008990505b888114158015611ad05750848714155b15611b8f57611ade81612867565b92508260600151611b8457600073ffffffffffffffffffffffffffffffffffffffff16836000015173ffffffffffffffffffffffffffffffffffffffff1614611b2957826000015191505b8a73ffffffffffffffffffffffffffffffffffffffff168273ffffffffffffffffffffffffffffffffffffffff1603611b835780848880600101995081518110611b7657611b75615076565b5b6020026020010181815250505b5b806001019050611ac0565b508583528296505050505050505b9392505050565b80611bad611ebd565b6007016000611bba6122cc565b73ffffffffffffffffffffffffffffffffffffffff1673ffffffffffffffffffffffffffffffffffffffff16815260200190815260200160002060008473ffffffffffffffffffffffffffffffffffffffff1673ffffffffffffffffffffffffffffffffffffffff16815260200190815260200160002060006101000a81548160ff0219169083151502179055508173ffffffffffffffffffffffffffffffffffffffff16611c676122cc565b73ffffffffffffffffffffffffffffffffffffffff167f17307eab39ab6107e8899845ad3d59bd9653f200f220920489ca2b5937696c3183604051611cac9190614c26565b60405180910390a35050565b6000611cc26126fd565b6003016000838152602001908152602001600020549050919050565b611ce9848484610c03565b60008373ffffffffffffffffffffffffffffffffffffffff163b14611d4b57611d1484848484612917565b611d4a576040517fd1a57ed600000000000000000000000000000000000000000000000000000000815260040160405180910390fd5b5b50505050565b611d59614005565b611d61614005565b611d696122d4565b831080611d7d5750611d79612904565b8310155b15611d8b5780915050611db6565b611d9483612867565b9050806060015115611da95780915050611db6565b611db283612a67565b9150505b919050565b600080611dc661222e565b6007015411905090565b6000611dda611ebd565b60070160008473ffffffffffffffffffffffffffffffffffffffff1673ffffffffffffffffffffffffffffffffffffffff16815260200190815260200160002060008373ffffffffffffffffffffffffffffffffffffffff1673ffffffffffffffffffffffffffffffffffffffff16815260200190815260200160002060009054906101000a900460ff16905092915050565b6000611eb5611e7a612a87565b60000154611eb0611eab611e8c612a87565b60010154611ea4611e9f60018901612ab4565b61166d565b8803612ac8565b612adf565b612d04565b905092915050565b6000807f2569078dfb4b0305704d3008e7403993ae9601b85f7ae5e742de3de8f8011c4090508091505090565b6000807fee151c8401928dc223602bb187aff91b9a56c7cae5476ef1b3287b085a16c85f90508091505090565b6000803090506000813b9050600081149250505090565b6000807fc8fcad8db84d3cc18b4c41d551ea0ee66dd599cde068d998e57d5e09332c131c90508091505090565b611f63611eea565b60000160019054906101000a900460ff16611fb3576040517f08c379a0000000000000000000000000000000000000000000000000000000008152600401611faa90615117565b60405180910390fd5b81611fbc611ebd565b6002019081611fcb91906152e3565b5080611fd5611ebd565b6003019081611fe491906152e3565b50611fed6122d4565b611ff5611ebd565b600001819055505050565b612008611f2e565b60030160009054906101000a900473ffffffffffffffffffffffffffffffffffffffff1673ffffffffffffffffffffffffffffffffffffffff163373ffffffffffffffffffffffffffffffffffffffff16148061209057503073ffffffffffffffffffffffffffffffffffffffff163373ffffffffffffffffffffffffffffffffffffffff16145b6120cf576040517f08c379a00000000000000000000000000000000000000000000000000000000081526004016120c690614dff565b60405180910390fd5b8282612108826120f183670de0b6b3a76400006120ec91906153b5565b612d2f565b6120f9612a87565b612fd19092919063ffffffff16565b61212283612114612762565b61302b90919063ffffffff16565b5050505050565b6000807f326d0c59a7612f6a9919e2a8ee333c80ba689d8ba2634de89c85cbb04832e70590508091505090565b63ffffffff60e01b827bffffffffffffffffffffffffffffffffffffffffffffffffffffffff1916036121be576040517f08c379a00000000000000000000000000000000000000000000000000000000081526004016121b590615495565b60405180910390fd5b80836000016000847bffffffffffffffffffffffffffffffffffffffffffffffffffffffff19167bffffffffffffffffffffffffffffffffffffffffffffffffffffffff1916815260200190815260200160002060006101000a81548160ff021916908315150217905550505050565b6000807f32b2e02f32560e257eaad13ed8a4f0ffa175bcb89327c67da202bdcd5579cc1290508091505090565b6000816122666122d4565b1115801561227e5750612277611ebd565b6000015482105b80156122c5575060007c01000000000000000000000000000000000000000000000000000000006122ad611ebd565b60040160008581526020019081526020016000205416145b9050919050565b600033905090565b60006001905090565b600080829050806122ec6122d4565b1161238d576122f9611ebd565b6000015481101561238c57600061230e611ebd565b600401600083815260200190815260200160002054905060007c010000000000000000000000000000000000000000000000000000000082160361238a575b600081036123805761235d611ebd565b60040160008360019003935083815260200190815260200160002054905061234d565b80925050506123bf565b505b5b6040517fdf2d9b4200000000000000000000000000000000000000000000000000000000815260040160405180910390fd5b919050565b60008060006123d1611ebd565b600601600085815260200190815260200160002090508092508254915050915091565b600073ffffffffffffffffffffffffffffffffffffffff8316925073ffffffffffffffffffffffffffffffffffffffff821691508382148383141790509392505050565b612481838361247c846040518060400160405280601f81526020017f455243373231413a20616d6f756e742065786365656473203936206269747300815250613038565b613096565b505050565b60008060e883901c905060e861249d8686846133c7565b62ffffff16901b9150509392505050565b600073ffffffffffffffffffffffffffffffffffffffff83169250814260a01b178317905092915050565b50505050565b6000807ffad169404002d10c88c6f4c5df96a5ae8d3cada85765079fe73839a09bf6887c90508091505090565b6000600185604051602001612521919061552d565b60405160208183030381529060405280519060200120858585604051600081526020016040526040516125579493929190615571565b6020604051602081039080840390855afa158015612579573d6000803e3d6000fd5b5050506020604051035173ffffffffffffffffffffffffffffffffffffffff168673ffffffffffffffffffffffffffffffffffffffff1614905095945050505050565b60006125c883836133d0565b90508034101561260f57806040517f112f287b00000000000000000000000000000000000000000000000000000000815260040161260691906144ca565b60405180910390fd5b60008111156126f857600061262261366c565b73ffffffffffffffffffffffffffffffffffffffff166108fc839081150290604051600060405180830381858888f1935050505090508061268f576040517f2ee66eed00000000000000000000000000000000000000000000000000000000815260040160405180910390fd5b6000823461269d9190614f5a565b11156126f6573373ffffffffffffffffffffffffffffffffffffffff166108fc83346126c99190614f5a565b9081150290604051600060405180830381858888f193505050501580156126f4573d6000803e3d6000fd5b505b505b505050565b6000807fc0de19833efd7d5b09ceaad2cd6f95a78a4885115f30489321bc7bfaae8c6cc290508091505090565b600061273461222e565b6005016000838152602001908152602001600020549050919050565b600061275b826122dd565b9050919050565b6000807f6274e8f192ab78a829cd26c8af820e69bcc6a3dd6115505f3ba930ecdbf329e390508091505090565b600081670de0b6b3a7640000840205905092915050565b60008073ffffffffffffffffffffffffffffffffffffffff168273ffffffffffffffffffffffffffffffffffffffff160361280d576040517f8f4eb60400000000000000000000000000000000000000000000000000000000815260040160405180910390fd5b67ffffffffffffffff61281e611ebd565b60050160008473ffffffffffffffffffffffffffffffffffffffff1673ffffffffffffffffffffffffffffffffffffffff16815260200190815260200160002054169050919050565b61286f614005565b61289461287a611ebd565b6004016000848152602001908152602001600020546136de565b9050919050565b6000806128a661222e565b600101549050808311156128ef576128e76128d66128c261222e565b60070154426128d19190614f5a565b613794565b82856128e29190614f5a565b611e6d565b9150506128ff565b6128f761222e565b600001549150505b919050565b600061290e611ebd565b60000154905090565b60008373ffffffffffffffffffffffffffffffffffffffff1663150b7a0261293d6122cc565b8786866040518563ffffffff1660e01b815260040161295f949392919061560b565b6020604051808303816000875af192505050801561299b57506040513d601f19601f8201168201806040525081019061299891906156af565b60015b612a14573d80600081146129cb576040519150601f19603f3d011682016040523d82523d6000602084013e6129d0565b606091505b506000815103612a0c576040517fd1a57ed600000000000000000000000000000000000000000000000000000000815260040160405180910390fd5b805181602001fd5b63150b7a0260e01b7bffffffffffffffffffffffffffffffffffffffffffffffffffffffff1916817bffffffffffffffffffffffffffffffffffffffffffffffffffffffff191614915050949350505050565b612a6f614005565b612a80612a7b836122dd565b6136de565b9050919050565b6000807fa6f742f8f5291196af705ca3ffc8e9f07c6bb403cf29b42dd803d30aa449081890508091505090565b6000670de0b6b3a764000082029050919050565b6000670de0b6b3a764000082840205905092915050565b60007ffffffffffffffffffffffffffffffffffffffffffffffffdb731c958f34d94c18213612b115760009050612cff565b680755bf798b4a1bf1e58212612b5c576040517f08c379a0000000000000000000000000000000000000000000000000000000008152600401612b5390615728565b60405180910390fd5b6503782dace9d9604e83901b81612b7657612b75615748565b5b059150600060606b8000000000000000000000006bb17217f7d1cf79abc9e3b398606086901b81612baa57612ba9615748565b5b0501901d90506bb17217f7d1cf79abc9e3b39881028303925060006c10fe68e7fd37d0007b713f7650840190506d02d16720577bd19bf614176fe9ea6060858302901d01905060006d04a4fd9f2a8b96949216d2255a6c8583010390506e0587f503bb6ea29d25fcb7401964506060838302901d01905079d835ebba824c98fb31b83b2ca45c00000000000000000000000085820201905060006c240c330e9fb2d9cbaf0fd5aafc860390506d0277594991cfc85f6e2461837cd96060878302901d0190506d1a521255e34f6a5061b25ef1c9c46060878302901d0390506db1bbb201f443cf962f1a1d3db4a56060878302901d0190506e02c72388d9f74f51a9331fed693f156060878302901d0390506e05180bb14799ab47a8a8cb2a527d576060878302901d01905080820594508360c30374029d9dc38563c32e5c2f6dc192ee70ef65f9978af38602901c9450505050505b919050565b600081830290508183820514831517612d1c57600080fd5b670de0b6b3a76400008105905092915050565b6000808213612d73576040517f08c379a0000000000000000000000000000000000000000000000000000000008152600401612d6a906157c3565b60405180910390fd5b816fffffffffffffffffffffffffffffffff1060071b905081811c67ffffffffffffffff1060061b8117905081811c63ffffffff1060051b8117905081811c61ffff1060041b8117905081811c60ff1060031b8117905081811c600f1060021b8117905081811c60031060011b8117905081811c60011081179050600060608203905080609f0383901b9250609f83901c925060006c29508e458543d8aa4df2abee78840190506d0139601a2efabe717e604cbb48946060858302901d0190506d02247f7a7b6594320649aa03aba16060858302901d0190506c8c3f38e95a6b1ff2ab1c3b34376060858302901d0390506d02384773bdf1ac5676facced60916060858302901d0390506cb9a025d814b29c212b8b1a07ce6060858302901d039050780a09507084cc699bb0e71ea86a00000000000000000000000084820203905060006c465772b2bbbb5f824b15207a30850190506d0388eaa27412d5aca026815d636e6060868302901d0190506d0df99ac502031bf953eff472fdcc6060868302901d0190506d13cdffb29d51d99322bdff5f22116060868302901d0190506d0a0f742023def783a307a986912e6060868302901d0190506d01920d8043ca89b5239253284e426060868302901d0190506c0b7a86d7375468fac667a0a5276060868302901d0190508082059350711340daa0d5f769dba1915cef59f0815a550684029350827d0267a36c0c95b3975ab3ee5b203a7614a3f75373f047d803ae7b6687f2b302840193507d57115e47018c7177eebf7cd370a3356a1b7863008a5ae8028c72b88642848401935060ae84901d9350505050919050565b60008112613014576040517f08c379a000000000000000000000000000000000000000000000000000000000815260040161300b9061582f565b60405180910390fd5b818360000181905550808360010181905550505050565b8082600001819055505050565b60006c010000000000000000000000008310829061308c576040517f08c379a000000000000000000000000000000000000000000000000000000000815260040161308391906140ed565b60405180910390fd5b5082905092915050565b8173ffffffffffffffffffffffffffffffffffffffff168373ffffffffffffffffffffffffffffffffffffffff16141580156130e057506000816bffffffffffffffffffffffff16115b156133c257600073ffffffffffffffffffffffffffffffffffffffff168373ffffffffffffffffffffffffffffffffffffffff16146132535760006131236137ad565b60020160008573ffffffffffffffffffffffffffffffffffffffff1673ffffffffffffffffffffffffffffffffffffffff16815260200190815260200160002060009054906101000a900463ffffffff1690506000808263ffffffff161161318c57600061321a565b6131946137ad565b60010160008673ffffffffffffffffffffffffffffffffffffffff1673ffffffffffffffffffffffffffffffffffffffff16815260200190815260200160002060006001846131e3919061585f565b63ffffffff1663ffffffff16815260200190815260200160002060000160049054906101000a90046bffffffffffffffffffffffff165b905060006132418285604051806060016040528060378152602001615bac603791396137da565b905061324f86848484613854565b5050505b600073ffffffffffffffffffffffffffffffffffffffff168273ffffffffffffffffffffffffffffffffffffffff16146133c15760006132916137ad565b60020160008473ffffffffffffffffffffffffffffffffffffffff1673ffffffffffffffffffffffffffffffffffffffff16815260200190815260200160002060009054906101000a900463ffffffff1690506000808263ffffffff16116132fa576000613388565b6133026137ad565b60010160008573ffffffffffffffffffffffffffffffffffffffff1673ffffffffffffffffffffffffffffffffffffffff1681526020019081526020016000206000600184613351919061585f565b63ffffffff1663ffffffff16815260200190815260200160002060000160049054906101000a90046bffffffffffffffffffffffff165b905060006133af8285604051806060016040528060368152602001615b3260369139613b86565b90506133bd85848484613854565b5050505b5b505050565b60009392505050565b600080820361340b576040517f1f2a200500000000000000000000000000000000000000000000000000000000815260040160405180910390fd5b600061341561222e565b905060006134216126fd565b905060038081111561343657613435614e96565b5b8260030160009054906101000a900460ff16600381111561345a57613459614e96565b5b146134b057816001015461346c610bda565b856134779190614f8e565b11156134af576040517f9af6569e00000000000000000000000000000000000000000000000000000000815260040160405180910390fd5b5b600060016134bc610bda565b6134c69190614f8e565b9050600083600701541480156134f757508260010154600186836134ea9190614f8e565b6134f49190614f5a565b10155b15613506574283600701819055505b6000805b8681101561361e578360000160009054906101000a900473ffffffffffffffffffffffffffffffffffffffff1673ffffffffffffffffffffffffffffffffffffffff1663156e29f63085876004015461356288613c05565b61356c9190615893565b6040518463ffffffff1660e01b815260040161358a939291906158ed565b600060405180830381600087803b1580156135a457600080fd5b505af11580156135b8573d6000803e3d6000fd5b505050506135c68884613c54565b6135cf8361289b565b866135da9190614f8e565b95506000600a846135eb9190615924565b036135ff5781806135fb90614e4e565b9250505b8261360990614e4e565b9250808061361690614e4e565b91505061350a565b506136298787613cbf565b6000811115613662576136608460040160009054906101000a900473ffffffffffffffffffffffffffffffffffffffff16826133d0565b505b5050505092915050565b6000613676611f2e565b60040160009054906101000a900473ffffffffffffffffffffffffffffffffffffffff169050600073ffffffffffffffffffffffffffffffffffffffff168173ffffffffffffffffffffffffffffffffffffffff16036136db576136d8613cdd565b90505b90565b6136e6614005565b81816000019073ffffffffffffffffffffffffffffffffffffffff16908173ffffffffffffffffffffffffffffffffffffffff168152505060a082901c816020019067ffffffffffffffff16908167ffffffffffffffff168152505060007c01000000000000000000000000000000000000000000000000000000008316141581606001901515908115158152505060e882901c816040019062ffffff16908162ffffff1681525050919050565b600062015180670de0b6b3a76400008302049050919050565b6000807fbf149371ad903781495253afdb39db7e533d0ab4edf7988855c9f8730e36298990508091505090565b6000836bffffffffffffffffffffffff16836bffffffffffffffffffffffff161115829061383e576040517f08c379a000000000000000000000000000000000000000000000000000000000815260040161383591906140ed565b60405180910390fd5b50828461384b919061596d565b90509392505050565b600061387843604051806080016040528060448152602001615b6860449139613d10565b905060008463ffffffff1611801561391f57508063ffffffff1661389a6137ad565b60010160008773ffffffffffffffffffffffffffffffffffffffff1673ffffffffffffffffffffffffffffffffffffffff16815260200190815260200160002060006001876138e9919061585f565b63ffffffff1663ffffffff16815260200190815260200160002060000160009054906101000a900463ffffffff1663ffffffff16145b156139cc578161392d6137ad565b60010160008773ffffffffffffffffffffffffffffffffffffffff1673ffffffffffffffffffffffffffffffffffffffff168152602001908152602001600020600060018761397c919061585f565b63ffffffff1663ffffffff16815260200190815260200160002060000160046101000a8154816bffffffffffffffffffffffff02191690836bffffffffffffffffffffffff160217905550613b2f565b60405180604001604052808263ffffffff168152602001836bffffffffffffffffffffffff168152506139fd6137ad565b60010160008773ffffffffffffffffffffffffffffffffffffffff1673ffffffffffffffffffffffffffffffffffffffff16815260200190815260200160002060008663ffffffff1663ffffffff16815260200190815260200160002060008201518160000160006101000a81548163ffffffff021916908363ffffffff16021790555060208201518160000160046101000a8154816bffffffffffffffffffffffff02191690836bffffffffffffffffffffffff160217905550905050600184613ac891906159a1565b613ad06137ad565b60020160008773ffffffffffffffffffffffffffffffffffffffff1673ffffffffffffffffffffffffffffffffffffffff16815260200190815260200160002060006101000a81548163ffffffff021916908363ffffffff1602179055505b8473ffffffffffffffffffffffffffffffffffffffff167fdec2bacdd2f05b59de34da9b523dff8be42e5e38e818c82fdb0bae774387a7248484604051613b77929190615a0c565b60405180910390a25050505050565b6000808385613b959190615a35565b9050846bffffffffffffffffffffffff16816bffffffffffffffffffffffff1610158390613bf9576040517f08c379a0000000000000000000000000000000000000000000000000000000008152600401613bf091906140ed565b60405180910390fd5b50809150509392505050565b6000806015613c1261222e565b600501600085815260200190815260200160002054613c319190615924565b90506001600482613c429190615a77565b613c4c9190614f8e565b915050919050565b6000613c5e61222e565b90508060060154838341604051602001613c7b9493929190615ae3565b6040516020818303038152906040528051906020012060001c8160060181905550806006015481600501600084815260200190815260200160002081905550505050565b613cd9828260405180602001604052806000815250613d66565b5050565b6000613ce7611f2e565b60030160009054906101000a900473ffffffffffffffffffffffffffffffffffffffff16905090565b600064010000000083108290613d5c576040517f08c379a0000000000000000000000000000000000000000000000000000000008152600401613d5391906140ed565b60405180910390fd5b5082905092915050565b613d708383613e16565b60008373ffffffffffffffffffffffffffffffffffffffff163b14613e11576000613d99611ebd565b600001549050600083820390505b613dba6000868380600101945086612917565b613df0576040517fd1a57ed600000000000000000000000000000000000000000000000000000000815260040160405180910390fd5b818110613da75781613e00611ebd565b6000015414613e0e57600080fd5b50505b505050565b6000613e20611ebd565b60000154905060008203613e60576040517fb562e8dd00000000000000000000000000000000000000000000000000000000815260040160405180910390fd5b613e6c60008484612438565b600160406001901b178202613e7f611ebd565b60050160008573ffffffffffffffffffffffffffffffffffffffff1673ffffffffffffffffffffffffffffffffffffffff16815260200190815260200160002060008282540192505081905550613eec83613edd6000866000612486565b613ee685613ff5565b176124ae565b613ef4611ebd565b600401600083815260200190815260200160002081905550600080838301905073ffffffffffffffffffffffffffffffffffffffff85169150828260007fddf252ad1be2c89b69c2b068fc378daa952ba7f163c4a11628f55a4df523b3ef600080a4600183015b818114613f9657808360007fddf252ad1be2c89b69c2b068fc378daa952ba7f163c4a11628f55a4df523b3ef600080a4600181019050613f5b565b5060008203613fd1576040517f2e07630000000000000000000000000000000000000000000000000000000000815260040160405180910390fd5b80613fda611ebd565b600001819055505050613ff060008483856124d9565b505050565b60006001821460e11b9050919050565b6040518060800160405280600073ffffffffffffffffffffffffffffffffffffffff168152602001600067ffffffffffffffff168152602001600062ffffff1681526020016000151581525090565b600081519050919050565b600082825260208201905092915050565b60005b8381101561408e578082015181840152602081019050614073565b8381111561409d576000848401525b50505050565b6000601f19601f8301169050919050565b60006140bf82614054565b6140c9818561405f565b93506140d9818560208601614070565b6140e2816140a3565b840191505092915050565b6000602082019050818103600083015261410781846140b4565b905092915050565b6000604051905090565b600080fd5b600080fd5b600080fd5b600080fd5b7f4e487b7100000000000000000000000000000000000000000000000000000000600052604160045260246000fd5b614165826140a3565b810181811067ffffffffffffffff821117156141845761418361412d565b5b80604052505050565b600061419761410f565b90506141a3828261415c565b919050565b600067ffffffffffffffff8211156141c3576141c261412d565b5b6141cc826140a3565b9050602081019050919050565b82818337600083830152505050565b60006141fb6141f6846141a8565b61418d565b90508281526020810184848401111561421757614216614128565b5b6142228482856141d9565b509392505050565b600082601f83011261423f5761423e614123565b5b813561424f8482602086016141e8565b91505092915050565b6000819050919050565b61426b81614258565b811461427657600080fd5b50565b60008135905061428881614262565b92915050565b6000819050919050565b6142a18161428e565b81146142ac57600080fd5b50565b6000813590506142be81614298565b92915050565b600073ffffffffffffffffffffffffffffffffffffffff82169050919050565b60006142ef826142c4565b9050919050565b6142ff816142e4565b811461430a57600080fd5b50565b60008135905061431c816142f6565b92915050565b60008060008060008060008060006101208a8c03121561434557614344614119565b5b60008a013567ffffffffffffffff8111156143635761436261411e565b5b61436f8c828d0161422a565b99505060208a013567ffffffffffffffff8111156143905761438f61411e565b5b61439c8c828d0161422a565b98505060406143ad8c828d01614279565b97505060606143be8c828d01614279565b96505060806143cf8c828d01614279565b95505060a06143e08c828d016142af565b94505060c06143f18c828d016142af565b93505060e06144028c828d0161430d565b9250506101006144148c828d0161430d565b9150509295985092959850929598565b60006020828403121561443a57614439614119565b5b6000614448848285016142af565b91505092915050565b61445a816142e4565b82525050565b60006020820190506144756000830184614451565b92915050565b6000806040838503121561449257614491614119565b5b60006144a08582860161430d565b92505060206144b1858286016142af565b9150509250929050565b6144c48161428e565b82525050565b60006020820190506144df60008301846144bb565b92915050565b6000806000606084860312156144fe576144fd614119565b5b600061450c8682870161430d565b935050602061451d8682870161430d565b925050604061452e868287016142af565b9150509250925092565b600060ff82169050919050565b61454e81614538565b811461455957600080fd5b50565b60008135905061456b81614545565b92915050565b6000819050919050565b61458481614571565b811461458f57600080fd5b50565b6000813590506145a18161457b565b92915050565b600080600080600060a086880312156145c3576145c2614119565b5b60006145d1888289016142af565b95505060206145e2888289016142af565b94505060406145f38882890161455c565b935050606061460488828901614592565b925050608061461588828901614592565b9150509295509295909350565b600080fd5b600080fd5b60008083601f84011261464257614641614123565b5b8235905067ffffffffffffffff81111561465f5761465e614622565b5b60208301915083602082028301111561467b5761467a614627565b5b9250929050565b6000806020838503121561469957614698614119565b5b600083013567ffffffffffffffff8111156146b7576146b661411e565b5b6146c38582860161462c565b92509250509250929050565b600081519050919050565b600082825260208201905092915050565b6000819050602082019050919050565b614704816142e4565b82525050565b600067ffffffffffffffff82169050919050565b6147278161470a565b82525050565b600062ffffff82169050919050565b6147458161472d565b82525050565b60008115159050919050565b6147608161474b565b82525050565b60808201600082015161477c60008501826146fb565b50602082015161478f602085018261471e565b5060408201516147a2604085018261473c565b5060608201516147b56060850182614757565b50505050565b60006147c78383614766565b60808301905092915050565b6000602082019050919050565b60006147eb826146cf565b6147f581856146da565b9350614800836146eb565b8060005b8381101561483157815161481888826147bb565b9750614823836147d3565b925050600181019050614804565b5085935050505092915050565b6000602082019050818103600083015261485881846147e0565b905092915050565b60006020828403121561487657614875614119565b5b600061488484828501614279565b91505092915050565b61489681614258565b82525050565b60006020820190506148b1600083018461488d565b92915050565b6000602082840312156148cd576148cc614119565b5b60006148db8482850161430d565b91505092915050565b600081519050919050565b600082825260208201905092915050565b6000819050602082019050919050565b6149198161428e565b82525050565b600061492b8383614910565b60208301905092915050565b6000602082019050919050565b600061494f826148e4565b61495981856148ef565b935061496483614900565b8060005b8381101561499557815161497c888261491f565b975061498783614937565b925050600181019050614968565b5085935050505092915050565b600060208201905081810360008301526149bc8184614944565b905092915050565b6000806000606084860312156149dd576149dc614119565b5b60006149eb8682870161430d565b93505060206149fc868287016142af565b9250506040614a0d868287016142af565b9150509250925092565b614a208161474b565b8114614a2b57600080fd5b50565b600081359050614a3d81614a17565b92915050565b60008060408385031215614a5a57614a59614119565b5b6000614a688582860161430d565b9250506020614a7985828601614a2e565b9150509250929050565b600067ffffffffffffffff821115614a9e57614a9d61412d565b5b614aa7826140a3565b9050602081019050919050565b6000614ac7614ac284614a83565b61418d565b905082815260208101848484011115614ae357614ae2614128565b5b614aee8482856141d9565b509392505050565b600082601f830112614b0b57614b0a614123565b5b8135614b1b848260208601614ab4565b91505092915050565b60008060008060808587031215614b3e57614b3d614119565b5b6000614b4c8782880161430d565b9450506020614b5d8782880161430d565b9350506040614b6e878288016142af565b925050606085013567ffffffffffffffff811115614b8f57614b8e61411e565b5b614b9b87828801614af6565b91505092959194509250565b608082016000820151614bbd60008501826146fb565b506020820151614bd0602085018261471e565b506040820151614be3604085018261473c565b506060820151614bf66060850182614757565b50505050565b6000608082019050614c116000830184614ba7565b92915050565b614c208161474b565b82525050565b6000602082019050614c3b6000830184614c17565b92915050565b60008060408385031215614c5857614c57614119565b5b6000614c668582860161430d565b9250506020614c778582860161430d565b9150509250929050565b60008060408385031215614c9857614c97614119565b5b6000614ca685828601614279565b9250506020614cb7858286016142af565b9150509250929050565b7f4e487b7100000000000000000000000000000000000000000000000000000000600052602260045260246000fd5b60006002820490506001821680614d0857607f821691505b602082108103614d1b57614d1a614cc1565b5b50919050565b7f455243373231415f5f496e697469616c697a61626c653a20636f6e747261637460008201527f20697320616c726561647920696e697469616c697a6564000000000000000000602082015250565b6000614d7d60378361405f565b9150614d8882614d21565b604082019050919050565b60006020820190508181036000830152614dac81614d70565b9050919050565b7f4e4f545f414c4c4f574544000000000000000000000000000000000000000000600082015250565b6000614de9600b8361405f565b9150614df482614db3565b602082019050919050565b60006020820190508181036000830152614e1881614ddc565b9050919050565b7f4e487b7100000000000000000000000000000000000000000000000000000000600052601160045260246000fd5b6000614e598261428e565b91507fffffffffffffffffffffffffffffffffffffffffffffffffffffffffffffffff8203614e8b57614e8a614e1f565b5b600182019050919050565b7f4e487b7100000000000000000000000000000000000000000000000000000000600052602160045260246000fd5b60008160601b9050919050565b6000614edd82614ec5565b9050919050565b6000614eef82614ed2565b9050919050565b614f07614f02826142e4565b614ee4565b82525050565b6000819050919050565b614f28614f238261428e565b614f0d565b82525050565b6000614f3a8285614ef6565b601482019150614f4a8284614f17565b6020820191508190509392505050565b6000614f658261428e565b9150614f708361428e565b925082821015614f8357614f82614e1f565b5b828203905092915050565b6000614f998261428e565b9150614fa48361428e565b9250827fffffffffffffffffffffffffffffffffffffffffffffffffffffffffffffffff03821115614fd957614fd8614e1f565b5b828201905092915050565b7f5265656e74727950726f74656374696f6e46616365742e6e6f5265656e74727960008201527f3a207265656e7472792064657465637465640000000000000000000000000000602082015250565b600061504060328361405f565b915061504b82614fe4565b604082019050919050565b6000602082019050818103600083015261506f81615033565b9050919050565b7f4e487b7100000000000000000000000000000000000000000000000000000000600052603260045260246000fd5b7f455243373231415f5f496e697469616c697a61626c653a20636f6e747261637460008201527f206973206e6f7420696e697469616c697a696e67000000000000000000000000602082015250565b600061510160348361405f565b915061510c826150a5565b604082019050919050565b60006020820190508181036000830152615130816150f4565b9050919050565b60008190508160005260206000209050919050565b60006020601f8301049050919050565b600082821b905092915050565b6000600883026151997fffffffffffffffffffffffffffffffffffffffffffffffffffffffffffffffff8261515c565b6151a3868361515c565b95508019841693508086168417925050509392505050565b6000819050919050565b60006151e06151db6151d68461428e565b6151bb565b61428e565b9050919050565b6000819050919050565b6151fa836151c5565b61520e615206826151e7565b848454615169565b825550505050565b600090565b615223615216565b61522e8184846151f1565b505050565b5b818110156152525761524760008261521b565b600181019050615234565b5050565b601f8211156152975761526881615137565b6152718461514c565b81016020851015615280578190505b61529461528c8561514c565b830182615233565b50505b505050565b600082821c905092915050565b60006152ba6000198460080261529c565b1980831691505092915050565b60006152d383836152a9565b9150826002028217905092915050565b6152ec82614054565b67ffffffffffffffff8111156153055761530461412d565b5b61530f8254614cf0565b61531a828285615256565b600060209050601f83116001811461534d576000841561533b578287015190505b61534585826152c7565b8655506153ad565b601f19841661535b86615137565b60005b828110156153835784890151825560018201915060208501945060208101905061535e565b868310156153a0578489015161539c601f8916826152a9565b8355505b6001600288020188555050505b505050505050565b60006153c082614258565b91506153cb83614258565b9250827f80000000000000000000000000000000000000000000000000000000000000000182126000841215161561540657615405614e1f565b5b827f7fffffffffffffffffffffffffffffffffffffffffffffffffffffffffffffff01821360008412161561543e5761543d614e1f565b5b828203905092915050565b7f4552433136353a20696e76616c696420696e7465726661636520696400000000600082015250565b600061547f601c8361405f565b915061548a82615449565b602082019050919050565b600060208201905081810360008301526154ae81615472565b9050919050565b600081905092915050565b7f19457468657265756d205369676e6564204d6573736167653a0a333200000000600082015250565b60006154f6601c836154b5565b9150615501826154c0565b601c82019050919050565b6000819050919050565b61552761552282614571565b61550c565b82525050565b6000615538826154e9565b91506155448284615516565b60208201915081905092915050565b61555c81614571565b82525050565b61556b81614538565b82525050565b60006080820190506155866000830187615553565b6155936020830186615562565b6155a06040830185615553565b6155ad6060830184615553565b95945050505050565b600081519050919050565b600082825260208201905092915050565b60006155dd826155b6565b6155e781856155c1565b93506155f7818560208601614070565b615600816140a3565b840191505092915050565b60006080820190506156206000830187614451565b61562d6020830186614451565b61563a60408301856144bb565b818103606083015261564c81846155d2565b905095945050505050565b60007fffffffff0000000000000000000000000000000000000000000000000000000082169050919050565b61568c81615657565b811461569757600080fd5b50565b6000815190506156a981615683565b92915050565b6000602082840312156156c5576156c4614119565b5b60006156d38482850161569a565b91505092915050565b7f4558505f4f564552464c4f570000000000000000000000000000000000000000600082015250565b6000615712600c8361405f565b915061571d826156dc565b602082019050919050565b6000602082019050818103600083015261574181615705565b9050919050565b7f4e487b7100000000000000000000000000000000000000000000000000000000600052601260045260246000fd5b7f554e444546494e45440000000000000000000000000000000000000000000000600082015250565b60006157ad60098361405f565b91506157b882615777565b602082019050919050565b600060208201905081810360008301526157dc816157a0565b9050919050565b7f4e4f4e5f4e454741544956455f44454341595f434f4e5354414e540000000000600082015250565b6000615819601b8361405f565b9150615824826157e3565b602082019050919050565b600060208201905081810360008301526158488161580c565b9050919050565b600063ffffffff82169050919050565b600061586a8261584f565b91506158758361584f565b92508282101561588857615887614e1f565b5b828203905092915050565b600061589e8261428e565b91506158a98361428e565b9250817fffffffffffffffffffffffffffffffffffffffffffffffffffffffffffffffff04831182151516156158e2576158e1614e1f565b5b828202905092915050565b60006060820190506159026000830186614451565b61590f60208301856144bb565b61591c60408301846144bb565b949350505050565b600061592f8261428e565b915061593a8361428e565b92508261594a57615949615748565b5b828206905092915050565b60006bffffffffffffffffffffffff82169050919050565b600061597882615955565b915061598383615955565b92508282101561599657615995614e1f565b5b828203905092915050565b60006159ac8261584f565b91506159b78361584f565b92508263ffffffff038211156159d0576159cf614e1f565b5b828201905092915050565b60006159f66159f16159ec84615955565b6151bb565b61428e565b9050919050565b615a06816159db565b82525050565b6000604082019050615a2160008301856159fd565b615a2e60208301846159fd565b9392505050565b6000615a4082615955565b9150615a4b83615955565b9250826bffffffffffffffffffffffff03821115615a6c57615a6b614e1f565b5b828201905092915050565b6000615a828261428e565b9150615a8d8361428e565b925082615a9d57615a9c615748565b5b828204905092915050565b6000615ab3826142c4565b9050919050565b6000615ac582614ed2565b9050919050565b615add615ad882615aa8565b615aba565b82525050565b6000615aef8287614f17565b602082019150615aff8286614ef6565b601482019150615b0f8285614f17565b602082019150615b1f8284615acc565b6014820191508190509594505050505056fe455243373231436865636b706f696e7461626c653a3a5f6d6f766544656c6567617465733a20616d6f756e74206f766572666c6f7773455243373231436865636b706f696e7461626c653a3a5f7772697465436865636b706f696e743a20626c6f636b206e756d62657220657863656564732033322062697473455243373231436865636b706f696e7461626c653a3a5f6d6f766544656c6567617465733a20616d6f756e7420756e646572666c6f7773a2646970667358221220742342d33d2fe453fc3c89894873444c7881dd4ba37302343cd1af4c28fd5af164736f6c634300080f0033",
  "immutableReferences": {},
  "source": "// SPDX-License-Identifier: MIT\npragma solidity ^0.8.4;\n\nimport { ERC165Storage } from \"@solidstate/contracts/introspection/ERC165Storage.sol\";\n\nimport { LibDiamond } from \"../libraries/LibDiamond.sol\";\nimport { IDust } from \"../../dust/IDust.sol\";\nimport { ECDSA } from \"../../helpers/ECDSA.sol\";\nimport { SpellsCastStorage } from \"./SpellsCastStorage.sol\";\nimport { SpellsStorage } from \"./SpellsStorage.sol\";\nimport { ERC721Checkpointable } from \"./ERC721Checkpointable/ERC721Checkpointable.sol\";\nimport {ERC721AQueryableUpgradeable} from \"./ERC721A/extensions/ERC721AQueryableUpgradeable.sol\";\nimport { CallProtection } from \"./shared/Access/CallProtection.sol\";\nimport { LinearVRGDA } from \"./VRGDA/LinearVRGDA.sol\";\nimport { toDaysWadUnsafe } from  \"./VRGDA/math/SignedWadMath.sol\";\nimport { ReentryProtection } from \"./shared/reentry/ReentryProtection.sol\";\nimport { ERC721Checkpointable } from \"./ERC721Checkpointable/ERC721Checkpointable.sol\";\n\ncontract SpellsToken is ERC721AQueryableUpgradeable, ReentryProtection, CallProtection, LinearVRGDA {\n    using ERC165Storage for ERC165Storage.Layout;\n    using SpellsCastStorage for SpellsCastStorage.Storage;\n    using SpellsStorage for SpellsStorage.Storage;\n    \n    /// MINTING\n    error MintClosed();\n    error EternalMintNotOpen();\n    error MintMaxReached();\n    error MintInsufficientPayment(uint256 price);\n    error MintQuantityExceedsLimit();\n    error MintQuantityExceedsAllowance();\n    error ZeroAmount();\n    error ConjureMaxReached();\n    error MintNotAuthorized();\n    \n    // PAYMENTS\n    error PaymentTransferFailed();\n    \n    // ADMIN\n    error SenderNotSpellGate();\n    \n    function initializeSpellsTokenFacet(\n        string memory name_,\n        string memory symbol_,\n        int256 _targetPrice,\n        int256 _priceDecayPercent,\n        int256 _perTimeUnit,\n        uint256 _seedPrice,\n        uint256 _seedSupply,\n        address _spellGate,\n        address _godspell\n    ) external initializerERC721A protectedCall {\n        __ERC721A_init(name_, symbol_);\n        __linearVRGDA_init(_targetPrice, _priceDecayPercent, _perTimeUnit);\n        ERC165Storage.layout().setSupportedInterface(0x80ac58cd, true); // ERC165 interface ID for ERC721.\n        ERC165Storage.layout().setSupportedInterface(0x5b5e139f, true); // ERC165 interface ID for ERC721Metadata.\n        \n        SpellsStorage.getStorage().seedMintPrice = _seedPrice;\n        SpellsStorage.getStorage().seedSupply = _seedSupply;\n        SpellsStorage.getStorage().spellGate = _spellGate;\n        SpellsStorage.getStorage().godspell = _godspell;\n    }\n    \n    modifier onlySpellGate() {\n         if(msg.sender != SpellsStorage.getStorage().spellGate) revert SenderNotSpellGate();\n        _;\n    }\n\n    function getPrice() external view returns (uint256) {\n        return _price(totalSupply()+1);\n    }\n    \n    function _price(uint256 tokenId) private view returns (uint256) {\n        uint256 seedSupply = SpellsStorage.getStorage().seedSupply;\n        if(tokenId > seedSupply){\n            return getVRGDAPrice(toDaysWadUnsafe(block.timestamp - SpellsStorage.getStorage().eternalStartTime), tokenId - seedSupply);\n        }\n        return SpellsStorage.getStorage().seedMintPrice;\n    }\n\n    function getFaction(uint256 tokenId) external view returns (uint256) {\n        return SpellsCastStorage.getStorage().factions[tokenId];\n    }\n    \n    function eternalMintActive() public view returns (bool) {\n        return SpellsStorage.getStorage().eternalStartTime > 0;\n    }\n\n    function gateMint(\n        address to,\n        uint256 gate\n    ) external onlySpellGate noReentry {\n        SpellsStorage.Storage storage store = SpellsStorage.getStorage();\n        if(store.saleState == SpellsStorage.SaleState.CLOSED) revert MintClosed();\n        if(msg.sender != address(store.spellGate)) revert SenderNotSpellGate();\n        // Set faction to gate\n        SpellsCastStorage.getStorage().factions[totalSupply() + 1] = gate;\n        /// @dev assign faction to tokenId before minting is safe because godspell\n        /// tokens are issued after the tokens are minted to recipient.\n        _conjure(to, 1);\n    }\n    \n    /// @dev Sets random seed for the given tokenId.\n    function _setSeed(address to, uint256 tokenId) internal {\n        SpellsStorage.Storage storage store = SpellsStorage.getStorage();\n        store.seed = uint256(keccak256(abi.encodePacked(store.seed, to, tokenId, block.coinbase)));\n        store.tokenSeed[tokenId] = store.seed;\n    }\n    \n    function tokenSeed(uint256 _tokenId) external view returns (uint256) {\n        return SpellsStorage.tokenSeed(_tokenId);\n    }\n    \n    function _mintTo(\n        address to,\n        uint256 amount\n    ) private returns (uint256 price) {\n        if(amount == 0) revert ZeroAmount();\n        SpellsStorage.Storage storage store = SpellsStorage.getStorage();\n        SpellsCastStorage.Storage storage spellsStorage = SpellsCastStorage\n            .getStorage();\n            \n        /// @dev Prevent minting over seed supply amount before Eternal Mint begins.\n        if(store.saleState != SpellsStorage.SaleState.ETERNAL){\n            if(amount + totalSupply() > store.seedSupply) revert MintQuantityExceedsLimit();\n        }\n        uint256 tokenId = totalSupply() + 1;\n        if(store.eternalStartTime == 0 && tokenId + amount - 1 >= store.seedSupply) {\n            store.eternalStartTime = block.timestamp;\n        }\n        uint256 nGodspell = 0;\n        for (uint256 i; i < amount; i++) {\n            spellsStorage.dust.mint(\n                address(this),\n                tokenId,\n                SpellsStorage.initialDustOf(tokenId) *\n                    spellsStorage.dustMultiplier\n            );\n            _setSeed(to, tokenId);\n            price += _price(tokenId);\n            if(tokenId % 10 == 0) {\n                nGodspell++;\n            }\n            ++tokenId;\n        }\n        _safeMint(to, amount);\n        \n        /// Mint tokens to godspell in single batch after target mint batch.\n        /// Theoretically allows recursion to catch all founder tokens, but actual\n        /// per call amount is limited to prevent this.\n        if(nGodspell > 0){\n            _mintTo(store.godspell, nGodspell);\n        }\n    }\n\n    /// @dev Mints tokens to recipient loading batch price dynamically based on VRGDA.\n    function _conjure(\n        address to,\n        uint256 amount\n    ) private {\n        uint256 price = _mintTo(to, amount);\n        if(msg.value < price) revert MintInsufficientPayment(price);\n        if (price > 0) {\n            bool sent = payable(LibDiamond.treasury()).send(\n                price\n            );\n            if(!sent) revert PaymentTransferFailed();\n            /// Refund the difference\n            if (msg.value - price > 0) {\n                payable(msg.sender).transfer(msg.value - price);\n            }\n        }\n    }\n\n    function conjure() external payable noReentry {\n        if(SpellsStorage.getStorage().saleState != SpellsStorage.SaleState.OPEN) revert MintClosed();\n        _conjure(msg.sender, 1);\n    }\n\n    function conjure(uint256 amount) external payable noReentry {\n        if(amount > 5) revert MintQuantityExceedsLimit();\n        if(SpellsStorage.getStorage().saleState != SpellsStorage.SaleState.OPEN) revert MintClosed();\n        _conjure(msg.sender, amount);\n    }\n    \n    /// @dev contract owner is changed to SpellsDAO after seed completed.\n    function conjure(\n        uint256 _allowed,\n        uint256 _amount,\n        uint8 _v,\n        bytes32 _r,\n        bytes32 _s\n    ) external noReentry {\n        SpellsStorage.Storage storage store = SpellsStorage.getStorage();\n        if(store.saleState == SpellsStorage.SaleState.CLOSED) revert MintClosed();\n        if(!ECDSA.isValidAccessMessage(\n                LibDiamond.diamondStorage().contractOwner,\n                keccak256(abi.encodePacked(msg.sender, _allowed)),\n                _v,\n                _r,\n                _s\n            )\n        ) revert MintNotAuthorized();\n        uint256 used = store.mintCounts[msg.sender];\n        if(used > _allowed || _allowed - used < _amount) revert MintQuantityExceedsAllowance();\n        store.mintCounts[msg.sender] += _amount;\n        \n        _conjure(msg.sender, _amount);\n    }\n}\n",
  "sourcePath": "/Users/alexirobbins/Sites/code/spells/contracts/spells/facets/SpellsToken.sol",
  "compiler": {
    "name": "solc",
    "version": "0.8.15+commit.e14f2714.Emscripten.clang"
  },
  "schemaVersion": "3.4.9",
  "updatedAt": "2022-09-06T22:21:08.916Z",
  "networkType": "ethereum",
  "devdoc": {
    "kind": "dev",
    "methods": {
      "approve(address,uint256)": {
        "details": "Gives permission to `to` to transfer `tokenId` token to another account. The approval is cleared when the token is transferred. Only a single account can be approved at a time, so approving the zero address clears previous approvals. Requirements: - The caller must own the token or be an approved operator. - `tokenId` must exist. Emits an {Approval} event."
      },
      "balanceOf(address)": {
        "details": "Returns the number of tokens in `owner`'s account."
      },
      "conjure(uint256,uint256,uint8,bytes32,bytes32)": {
        "details": "contract owner is changed to SpellsDAO after seed completed."
      },
      "explicitOwnershipOf(uint256)": {
        "details": "Returns the `TokenOwnership` struct at `tokenId` without reverting. If the `tokenId` is out of bounds: - `addr = address(0)` - `startTimestamp = 0` - `burned = false` - `extraData = 0` If the `tokenId` is burned: - `addr = <Address of owner before token was burned>` - `startTimestamp = <Timestamp when token was burned>` - `burned = true` - `extraData = <Extra data when token was burned>` Otherwise: - `addr = <Address of owner>` - `startTimestamp = <Timestamp of start of ownership>` - `burned = false` - `extraData = <Extra data at start of ownership>`"
      },
      "explicitOwnershipsOf(uint256[])": {
        "details": "Returns an array of `TokenOwnership` structs at `tokenIds` in order. See {ERC721AQueryable-explicitOwnershipOf}"
      },
      "getApproved(uint256)": {
        "details": "Returns the account approved for `tokenId` token. Requirements: - `tokenId` must exist."
      },
      "getTargetSaleTime(int256)": {
        "details": "Given a number of tokens sold, return the target time that number of tokens should be sold by.",
        "params": {
          "sold": "A number of tokens sold, scaled by 1e18, to get the corresponding target sale time for."
        },
        "returns": {
          "_0": "The target time the tokens should be sold by, scaled by 1e18, where the time is relative, such that 0 means the tokens should be sold immediately when the VRGDA begins."
        }
      },
      "getVRGDAPrice(int256,uint256)": {
        "params": {
          "sold": "The total number of tokens that have been sold so far.",
          "timeSinceStart": "Time passed since the VRGDA began, scaled by 1e18."
        },
        "returns": {
          "_0": "The price of a token according to VRGDA, scaled by 1e18."
        }
      },
      "isApprovedForAll(address,address)": {
        "details": "Returns if the `operator` is allowed to manage all of the assets of `owner`. See {setApprovalForAll}."
      },
      "name()": {
        "details": "Returns the token collection name."
      },
      "ownerOf(uint256)": {
        "details": "Returns the owner of the `tokenId` token. Requirements: - `tokenId` must exist."
      },
      "safeTransferFrom(address,address,uint256)": {
        "details": "Equivalent to `safeTransferFrom(from, to, tokenId, '')`."
      },
      "safeTransferFrom(address,address,uint256,bytes)": {
        "details": "Safely transfers `tokenId` token from `from` to `to`. Requirements: - `from` cannot be the zero address. - `to` cannot be the zero address. - `tokenId` token must exist and be owned by `from`. - If the caller is not `from`, it must be approved to move this token by either {approve} or {setApprovalForAll}. - If `to` refers to a smart contract, it must implement {IERC721Receiver-onERC721Received}, which is called upon a safe transfer. Emits a {Transfer} event."
      },
      "setApprovalForAll(address,bool)": {
        "details": "Approve or remove `operator` as an operator for the caller. Operators can call {transferFrom} or {safeTransferFrom} for any token owned by the caller. Requirements: - The `operator` cannot be the caller. Emits an {ApprovalForAll} event."
      },
      "symbol()": {
        "details": "Returns the token collection symbol."
      },
      "tokensOfOwner(address)": {
        "details": "Returns an array of token IDs owned by `owner`. This function scans the ownership mapping and is O(`totalSupply`) in complexity. It is meant to be called off-chain. See {ERC721AQueryable-tokensOfOwnerIn} for splitting the scan into multiple smaller scans if the collection is large enough to cause an out-of-gas error (10K collections should be fine)."
      },
      "tokensOfOwnerIn(address,uint256,uint256)": {
        "details": "Returns an array of token IDs owned by `owner`, in the range [`start`, `stop`) (i.e. `start <= tokenId < stop`). This function allows for tokens to be queried if the collection grows too big for a single call of {ERC721AQueryable-tokensOfOwner}. Requirements: - `start < stop`"
      },
      "totalSupply()": {
        "details": "Returns the total number of tokens in existence. Burned tokens will reduce the count. To get the total number of tokens minted, please see {_totalMinted}."
      },
      "transferFrom(address,address,uint256)": {
        "details": "Transfers `tokenId` from `from` to `to`. Requirements: - `from` cannot be the zero address. - `to` cannot be the zero address. - `tokenId` token must be owned by `from`. - If the caller is not `from`, it must be approved to move this token by either {approve} or {setApprovalForAll}. Emits a {Transfer} event."
      }
    },
    "version": 1
  },
  "userdoc": {
    "errors": {
      "ApprovalCallerNotOwnerNorApproved()": [
        {
          "notice": "The caller must own the token or be an approved operator."
        }
      ],
      "ApprovalQueryForNonexistentToken()": [
        {
          "notice": "The token does not exist."
        }
      ],
      "BalanceQueryForZeroAddress()": [
        {
          "notice": "Cannot query the balance for the zero address."
        },
        {
          "notice": "Cannot query the balance for the zero address."
        }
      ],
      "InvalidQueryRange()": [
        {
          "notice": "Invalid query range (`start` >= `stop`)."
        }
      ],
      "MintClosed()": [
        {
          "notice": "MINTING"
        }
      ],
      "MintERC2309QuantityExceedsLimit()": [
        {
          "notice": "The `quantity` minted with ERC2309 exceeds the safety limit."
        }
      ],
      "MintToZeroAddress()": [
        {
          "notice": "Cannot mint to the zero address."
        }
      ],
      "MintZeroQuantity()": [
        {
          "notice": "The quantity of tokens minted must be more than zero."
        }
      ],
      "OwnerQueryForNonexistentToken()": [
        {
          "notice": "The token does not exist."
        }
      ],
      "OwnershipNotInitializedForExtraData()": [
        {
          "notice": "The `extraData` cannot be set on an unintialized ownership slot."
        }
      ],
      "TransferCallerNotOwnerNorApproved()": [
        {
          "notice": "The caller must own the token or be an approved operator."
        }
      ],
      "TransferFromIncorrectOwner()": [
        {
          "notice": "The token must be owned by `from`."
        }
      ],
      "TransferToZeroAddress()": [
        {
          "notice": "Cannot transfer to the zero address."
        }
      ],
      "URIQueryForNonexistentToken()": [
        {
          "notice": "The token does not exist."
        }
      ]
    },
    "kind": "user",
    "methods": {
      "getVRGDAPrice(int256,uint256)": {
        "notice": "Calculate the price of a token according to the VRGDA formula."
      }
    },
    "version": 1
  }
}