{
  "contractName": "SpellsActionFacet",
  "abi": [
    {
      "inputs": [],
      "name": "OwnerQueryForNonexistentToken",
      "type": "error"
    },
    {
      "inputs": [],
      "name": "TransferToNonERC5050ReceiverImplementer",
      "type": "error"
    },
    {
      "inputs": [],
      "name": "ZeroAddressDestination",
      "type": "error"
    },
    {
      "anonymous": false,
      "inputs": [
        {
          "indexed": true,
          "internalType": "bytes4",
          "name": "name",
          "type": "bytes4"
        },
        {
          "indexed": false,
          "internalType": "address",
          "name": "_from",
          "type": "address"
        },
        {
          "indexed": true,
          "internalType": "address",
          "name": "_fromContract",
          "type": "address"
        },
        {
          "indexed": false,
          "internalType": "uint256",
          "name": "_tokenId",
          "type": "uint256"
        },
        {
          "indexed": true,
          "internalType": "address",
          "name": "_to",
          "type": "address"
        },
        {
          "indexed": false,
          "internalType": "uint256",
          "name": "_toTokenId",
          "type": "uint256"
        },
        {
          "indexed": false,
          "internalType": "address",
          "name": "_state",
          "type": "address"
        },
        {
          "indexed": false,
          "internalType": "bytes",
          "name": "_data",
          "type": "bytes"
        }
      ],
      "name": "ActionReceived",
      "type": "event"
    },
    {
      "anonymous": false,
      "inputs": [
        {
          "indexed": true,
          "internalType": "address",
          "name": "_account",
          "type": "address"
        },
        {
          "indexed": true,
          "internalType": "bytes4",
          "name": "_action",
          "type": "bytes4"
        },
        {
          "indexed": true,
          "internalType": "address",
          "name": "_approved",
          "type": "address"
        }
      ],
      "name": "ApprovalForAction",
      "type": "event"
    },
    {
      "anonymous": false,
      "inputs": [
        {
          "indexed": true,
          "internalType": "address",
          "name": "_account",
          "type": "address"
        },
        {
          "indexed": true,
          "internalType": "address",
          "name": "_operator",
          "type": "address"
        },
        {
          "indexed": false,
          "internalType": "bool",
          "name": "_approved",
          "type": "bool"
        }
      ],
      "name": "ApprovalForAllActions",
      "type": "event"
    },
    {
      "anonymous": false,
      "inputs": [
        {
          "indexed": true,
          "internalType": "address",
          "name": "_controller",
          "type": "address"
        },
        {
          "indexed": true,
          "internalType": "bytes4",
          "name": "_action",
          "type": "bytes4"
        },
        {
          "indexed": false,
          "internalType": "bool",
          "name": "_approved",
          "type": "bool"
        }
      ],
      "name": "ControllerApproval",
      "type": "event"
    },
    {
      "anonymous": false,
      "inputs": [
        {
          "indexed": true,
          "internalType": "address",
          "name": "_controller",
          "type": "address"
        },
        {
          "indexed": false,
          "internalType": "bool",
          "name": "_approved",
          "type": "bool"
        }
      ],
      "name": "ControllerApprovalForAll",
      "type": "event"
    },
    {
      "anonymous": false,
      "inputs": [
        {
          "indexed": true,
          "internalType": "bytes4",
          "name": "name",
          "type": "bytes4"
        },
        {
          "indexed": false,
          "internalType": "address",
          "name": "_from",
          "type": "address"
        },
        {
          "indexed": true,
          "internalType": "address",
          "name": "_fromContract",
          "type": "address"
        },
        {
          "indexed": false,
          "internalType": "uint256",
          "name": "_tokenId",
          "type": "uint256"
        },
        {
          "indexed": true,
          "internalType": "address",
          "name": "_to",
          "type": "address"
        },
        {
          "indexed": false,
          "internalType": "uint256",
          "name": "_toTokenId",
          "type": "uint256"
        },
        {
          "indexed": false,
          "internalType": "address",
          "name": "_state",
          "type": "address"
        },
        {
          "indexed": false,
          "internalType": "bytes",
          "name": "_data",
          "type": "bytes"
        }
      ],
      "name": "SendAction",
      "type": "event"
    },
    {
      "inputs": [
        {
          "internalType": "address",
          "name": "_account",
          "type": "address"
        },
        {
          "internalType": "bytes4",
          "name": "_action",
          "type": "bytes4"
        },
        {
          "internalType": "address",
          "name": "_approved",
          "type": "address"
        }
      ],
      "name": "approveForAction",
      "outputs": [
        {
          "internalType": "bool",
          "name": "",
          "type": "bool"
        }
      ],
      "stateMutability": "nonpayable",
      "type": "function"
    },
    {
      "inputs": [
        {
          "internalType": "address",
          "name": "_account",
          "type": "address"
        },
        {
          "internalType": "bytes4",
          "name": "_action",
          "type": "bytes4"
        }
      ],
      "name": "getApprovedForAction",
      "outputs": [
        {
          "internalType": "address",
          "name": "",
          "type": "address"
        }
      ],
      "stateMutability": "view",
      "type": "function",
      "constant": true
    },
    {
      "inputs": [
        {
          "internalType": "address",
          "name": "_controller",
          "type": "address"
        },
        {
          "internalType": "bytes4",
          "name": "_action",
          "type": "bytes4"
        }
      ],
      "name": "isApprovedController",
      "outputs": [
        {
          "internalType": "bool",
          "name": "",
          "type": "bool"
        }
      ],
      "stateMutability": "view",
      "type": "function",
      "constant": true
    },
    {
      "inputs": [
        {
          "internalType": "address",
          "name": "_account",
          "type": "address"
        },
        {
          "internalType": "address",
          "name": "_operator",
          "type": "address"
        }
      ],
      "name": "isApprovedForAllActions",
      "outputs": [
        {
          "internalType": "bool",
          "name": "",
          "type": "bool"
        }
      ],
      "stateMutability": "view",
      "type": "function",
      "constant": true
    },
    {
      "inputs": [
        {
          "internalType": "bytes32",
          "name": "actionHash",
          "type": "bytes32"
        },
        {
          "internalType": "uint256",
          "name": "nonce",
          "type": "uint256"
        }
      ],
      "name": "isValid",
      "outputs": [
        {
          "internalType": "bool",
          "name": "",
          "type": "bool"
        }
      ],
      "stateMutability": "view",
      "type": "function",
      "constant": true
    },
    {
      "inputs": [],
      "name": "receivableActions",
      "outputs": [
        {
          "internalType": "string[]",
          "name": "",
          "type": "string[]"
        }
      ],
      "stateMutability": "view",
      "type": "function",
      "constant": true
    },
    {
      "inputs": [],
      "name": "sendableActions",
      "outputs": [
        {
          "internalType": "string[]",
          "name": "",
          "type": "string[]"
        }
      ],
      "stateMutability": "view",
      "type": "function",
      "constant": true
    },
    {
      "inputs": [
        {
          "internalType": "address",
          "name": "_operator",
          "type": "address"
        },
        {
          "internalType": "bool",
          "name": "_approved",
          "type": "bool"
        }
      ],
      "name": "setApprovalForAllActions",
      "outputs": [],
      "stateMutability": "nonpayable",
      "type": "function"
    },
    {
      "inputs": [
        {
          "internalType": "address",
          "name": "_controller",
          "type": "address"
        },
        {
          "internalType": "bytes4",
          "name": "_action",
          "type": "bytes4"
        },
        {
          "internalType": "bool",
          "name": "_approved",
          "type": "bool"
        }
      ],
      "name": "setControllerApproval",
      "outputs": [],
      "stateMutability": "nonpayable",
      "type": "function"
    },
    {
      "inputs": [
        {
          "internalType": "address",
          "name": "_controller",
          "type": "address"
        },
        {
          "internalType": "bool",
          "name": "_approved",
          "type": "bool"
        }
      ],
      "name": "setControllerApprovalForAll",
      "outputs": [],
      "stateMutability": "nonpayable",
      "type": "function"
    },
    {
      "inputs": [
        {
          "internalType": "address",
          "name": "_dust",
          "type": "address"
        }
      ],
      "name": "initializeSpellsActionFacet",
      "outputs": [],
      "stateMutability": "nonpayable",
      "type": "function"
    },
    {
      "inputs": [
        {
          "internalType": "address",
          "name": "_contract",
          "type": "address"
        }
      ],
      "name": "MISCHIEF_MANAGED",
      "outputs": [],
      "stateMutability": "nonpayable",
      "type": "function"
    },
    {
      "inputs": [
        {
          "internalType": "uint256",
          "name": "_tyClaimThreshold",
          "type": "uint256"
        }
      ],
      "name": "setTYClaimThreshold",
      "outputs": [],
      "stateMutability": "nonpayable",
      "type": "function"
    },
    {
      "inputs": [
        {
          "internalType": "address",
          "name": "proxy",
          "type": "address"
        }
      ],
      "name": "setProxy",
      "outputs": [],
      "stateMutability": "nonpayable",
      "type": "function"
    },
    {
      "inputs": [
        {
          "components": [
            {
              "internalType": "bytes4",
              "name": "selector",
              "type": "bytes4"
            },
            {
              "internalType": "address",
              "name": "user",
              "type": "address"
            },
            {
              "components": [
                {
                  "internalType": "address",
                  "name": "_address",
                  "type": "address"
                },
                {
                  "internalType": "uint256",
                  "name": "_tokenId",
                  "type": "uint256"
                }
              ],
              "internalType": "struct Object",
              "name": "from",
              "type": "tuple"
            },
            {
              "components": [
                {
                  "internalType": "address",
                  "name": "_address",
                  "type": "address"
                },
                {
                  "internalType": "uint256",
                  "name": "_tokenId",
                  "type": "uint256"
                }
              ],
              "internalType": "struct Object",
              "name": "to",
              "type": "tuple"
            },
            {
              "internalType": "address",
              "name": "state",
              "type": "address"
            },
            {
              "internalType": "bytes",
              "name": "data",
              "type": "bytes"
            }
          ],
          "internalType": "struct Action",
          "name": "action",
          "type": "tuple"
        }
      ],
      "name": "sendAction",
      "outputs": [],
      "stateMutability": "payable",
      "type": "function",
      "payable": true
    },
    {
      "inputs": [
        {
          "internalType": "uint256",
          "name": "tokenId",
          "type": "uint256"
        },
        {
          "internalType": "address",
          "name": "to",
          "type": "address"
        },
        {
          "internalType": "uint256",
          "name": "toTokenId",
          "type": "uint256"
        },
        {
          "internalType": "bytes",
          "name": "data",
          "type": "bytes"
        }
      ],
      "name": "cast",
      "outputs": [],
      "stateMutability": "payable",
      "type": "function",
      "payable": true
    },
    {
      "inputs": [
        {
          "components": [
            {
              "internalType": "bytes4",
              "name": "selector",
              "type": "bytes4"
            },
            {
              "internalType": "address",
              "name": "user",
              "type": "address"
            },
            {
              "components": [
                {
                  "internalType": "address",
                  "name": "_address",
                  "type": "address"
                },
                {
                  "internalType": "uint256",
                  "name": "_tokenId",
                  "type": "uint256"
                }
              ],
              "internalType": "struct Object",
              "name": "from",
              "type": "tuple"
            },
            {
              "components": [
                {
                  "internalType": "address",
                  "name": "_address",
                  "type": "address"
                },
                {
                  "internalType": "uint256",
                  "name": "_tokenId",
                  "type": "uint256"
                }
              ],
              "internalType": "struct Object",
              "name": "to",
              "type": "tuple"
            },
            {
              "internalType": "address",
              "name": "state",
              "type": "address"
            },
            {
              "internalType": "bytes",
              "name": "data",
              "type": "bytes"
            }
          ],
          "internalType": "struct Action",
          "name": "action",
          "type": "tuple"
        },
        {
          "internalType": "uint256",
          "name": "_nonce",
          "type": "uint256"
        }
      ],
      "name": "onActionReceived",
      "outputs": [],
      "stateMutability": "payable",
      "type": "function",
      "payable": true
    }
  ],
  "bytecode": "0x608060405234801561001057600080fd5b506151e3806100206000396000f3fe6080604052600436106100ce5760003560e01c806308eeb988146100d357806339528889146100ef5780633f8d90391461011a57806356f92fd7146101575780636839ce741461018057806369d8e231146101a957806375b16196146101e65780638b035e751461020f578063900bdd571461023a578063913c5c811461026357806391e311311461027f57806397107d6d146102bc578063997c3199146102e5578063c918c9311461030e578063d960e59c1461034b578063df89318814610367578063fe712678146103a4575b600080fd5b6100ed60048036038101906100e8919061325d565b6103cd565b005b3480156100fb57600080fd5b506101046104af565b604051610111919061342a565b60405180910390f35b34801561012657600080fd5b50610141600480360381019061013c91906134a4565b6104c9565b60405161014e91906134f3565b60405180910390f35b34801561016357600080fd5b5061017e6004803603810190610179919061350e565b61058b565b005b34801561018c57600080fd5b506101a760048036038101906101a29190613573565b610a19565b005b3480156101b557600080fd5b506101d060048036038101906101cb91906134a4565b610b3b565b6040516101dd91906135d5565b60405180910390f35b3480156101f257600080fd5b5061020d600480360381019061020891906135f0565b610b4f565b005b34801561021b57600080fd5b50610224610c01565b604051610231919061342a565b60405180910390f35b34801561024657600080fd5b50610261600480360381019061025c91906135f0565b610c1b565b005b61027d60048036038101906102789190613655565b610d8f565b005b34801561028b57600080fd5b506102a660048036038101906102a191906136b1565b61127d565b6040516102b391906135d5565b60405180910390f35b3480156102c857600080fd5b506102e360048036038101906102de919061350e565b6114c7565b005b3480156102f157600080fd5b5061030c60048036038101906103079190613704565b6115a2565b005b34801561031a57600080fd5b5061033560048036038101906103309190613731565b611684565b60405161034291906135d5565b60405180910390f35b61036560048036038101906103609190613888565b611721565b005b34801561037357600080fd5b5061038e60048036038101906103899190613907565b611a75565b60405161039b91906135d5565b60405180910390f35b3480156103b057600080fd5b506103cb60048036038101906103c6919061350e565b611a9b565b005b6104a96040518060c001604052806103e3611c93565b7bffffffffffffffffffffffffffffffffffffffffffffffffffffffff191681526020013373ffffffffffffffffffffffffffffffffffffffff16815260200160405180604001604052803073ffffffffffffffffffffffffffffffffffffffff16815260200188815250815260200160405180604001604052808773ffffffffffffffffffffffffffffffffffffffff168152602001868152508152602001600073ffffffffffffffffffffffffffffffffffffffff16815260200183815250611721565b50505050565b60606104c46104bc611cbb565b600601611ce8565b905090565b60006104d3611cbb565b60090160008473ffffffffffffffffffffffffffffffffffffffff1673ffffffffffffffffffffffffffffffffffffffff1681526020019081526020016000206000837bffffffffffffffffffffffffffffffffffffffffffffffffffffffff19167bffffffffffffffffffffffffffffffffffffffffffffffffffffffff1916815260200190815260200160002060009054906101000a900473ffffffffffffffffffffffffffffffffffffffff16905092915050565b6000610595611dc5565b90508060060160008373ffffffffffffffffffffffffffffffffffffffff1673ffffffffffffffffffffffffffffffffffffffff16815260200190815260200160002060009054906101000a900460ff1615610626576040517f08c379a000000000000000000000000000000000000000000000000000000000815260040161061d906139a4565b60405180910390fd5b600073ffffffffffffffffffffffffffffffffffffffff168273ffffffffffffffffffffffffffffffffffffffff1603610695576040517f08c379a000000000000000000000000000000000000000000000000000000000815260040161068c90613a10565b60405180910390fd5b80600701548160050160008473ffffffffffffffffffffffffffffffffffffffff1673ffffffffffffffffffffffffffffffffffffffff16815260200190815260200160002054101561071d576040517f08c379a000000000000000000000000000000000000000000000000000000000815260040161071490613aa2565b60405180910390fd5b6000808373ffffffffffffffffffffffffffffffffffffffff166040516024016040516020818303038152906040527f8da5cb5b000000000000000000000000000000000000000000000000000000007bffffffffffffffffffffffffffffffffffffffffffffffffffffffff19166020820180517bffffffffffffffffffffffffffffffffffffffffffffffffffffffff83818316178352505050506040516107c79190613b09565b600060405180830381855afa9150503d8060008114610802576040519150601f19603f3d011682016040523d82523d6000602084013e610807565b606091505b50915091508161084c576040517f08c379a000000000000000000000000000000000000000000000000000000000815260040161084390613b6c565b60405180910390fd5b6000818060200190518101906108629190613bca565b90508073ffffffffffffffffffffffffffffffffffffffff163373ffffffffffffffffffffffffffffffffffffffff16146108d2576040517f08c379a00000000000000000000000000000000000000000000000000000000081526004016108c990613c43565b60405180910390fd5b6000846009015485600801546108e89190613c92565b9050600085600901541461090157600085600901819055505b6013601486600801546109149190613d17565b61091e9190613d48565b856008018190555060018560060160008873ffffffffffffffffffffffffffffffffffffffff1673ffffffffffffffffffffffffffffffffffffffff16815260200190815260200160002060006101000a81548160ff0219169083151502179055508460000160009054906101000a900473ffffffffffffffffffffffffffffffffffffffff1673ffffffffffffffffffffffffffffffffffffffff166340c10f1933836040518363ffffffff1660e01b81526004016109df929190613db1565b600060405180830381600087803b1580156109f957600080fd5b505af1158015610a0d573d6000803e3d6000fd5b50505050505050505050565b80610a22611cbb565b600b0160008573ffffffffffffffffffffffffffffffffffffffff1673ffffffffffffffffffffffffffffffffffffffff1681526020019081526020016000206000847bffffffffffffffffffffffffffffffffffffffffffffffffffffffff19167bffffffffffffffffffffffffffffffffffffffffffffffffffffffff1916815260200190815260200160002060006101000a81548160ff021916908315150217905550817bffffffffffffffffffffffffffffffffffffffffffffffffffffffff19168373ffffffffffffffffffffffffffffffffffffffff167f3682cb32536a568bcbb2802a0cf1b28ee0b8ec33e21a8a74e0b2545c97769f7983604051610b2e91906135d5565b60405180910390a3505050565b6000610b478383611df2565b905092915050565b80610b58611cbb565b600c0160008473ffffffffffffffffffffffffffffffffffffffff1673ffffffffffffffffffffffffffffffffffffffff16815260200190815260200160002060006101000a81548160ff0219169083151502179055508173ffffffffffffffffffffffffffffffffffffffff167fb033bedede81cc9e0eb1e2341b52e2c78e2ec38ba3e979113dd42533a395832582604051610bf591906135d5565b60405180910390a25050565b6060610c16610c0e611cbb565b600601611ce8565b905090565b8173ffffffffffffffffffffffffffffffffffffffff163373ffffffffffffffffffffffffffffffffffffffff1603610c89576040517f08c379a0000000000000000000000000000000000000000000000000000000008152600401610c8090613e26565b60405180910390fd5b80610c92611cbb565b600a0160003373ffffffffffffffffffffffffffffffffffffffff1673ffffffffffffffffffffffffffffffffffffffff16815260200190815260200160002060008473ffffffffffffffffffffffffffffffffffffffff1673ffffffffffffffffffffffffffffffffffffffff16815260200190815260200160002060006101000a81548160ff0219169083151502179055508173ffffffffffffffffffffffffffffffffffffffff163373ffffffffffffffffffffffffffffffffffffffff167fe37230f00e3b15e90e6a606f3b77be179b2808cc3bc970e51c9e046f8a6683e083604051610d8391906135d5565b60405180910390a35050565b8181610dad33836000016020810190610da89190613e46565b611df2565b611277573073ffffffffffffffffffffffffffffffffffffffff16826080016000016020810190610dde919061350e565b73ffffffffffffffffffffffffffffffffffffffff1614610e34576040517f08c379a0000000000000000000000000000000000000000000000000000000008152600401610e2b90613ebf565b60405180910390fd5b6000610e3e611cbb565b9050600281600e015403610e87576040517f08c379a0000000000000000000000000000000000000000000000000000000008152600401610e7e90613f2b565b60405180910390fd5b610eaf836000016020810190610e9d9190613e46565b82600601611f0590919063ffffffff16565b610eee576040517f08c379a0000000000000000000000000000000000000000000000000000000008152600401610ee590613f97565b60405180910390fd5b600073ffffffffffffffffffffffffffffffffffffffff16836040016000016020810190610f1c919061350e565b73ffffffffffffffffffffffffffffffffffffffff161480610f7e57503373ffffffffffffffffffffffffffffffffffffffff16836040016000016020810190610f66919061350e565b73ffffffffffffffffffffffffffffffffffffffff16145b610fbd576040517f08c379a0000000000000000000000000000000000000000000000000000000008152600401610fb490614003565b60405180910390fd5b600073ffffffffffffffffffffffffffffffffffffffff16836040016000016020810190610feb919061350e565b73ffffffffffffffffffffffffffffffffffffffff161415801561104c57503273ffffffffffffffffffffffffffffffffffffffff16836020016020810190611034919061350e565b73ffffffffffffffffffffffffffffffffffffffff16145b8061109457503373ffffffffffffffffffffffffffffffffffffffff1683602001602081019061107c919061350e565b73ffffffffffffffffffffffffffffffffffffffff16145b6110d3576040517f08c379a00000000000000000000000000000000000000000000000000000000081526004016110ca90614003565b60405180910390fd5b600281600e01819055506000856080016020013511611127576040517f08c379a000000000000000000000000000000000000000000000000000000000815260040161111e9061406f565b60405180910390fd5b3073ffffffffffffffffffffffffffffffffffffffff16856040016000016020810190611154919061350e565b73ffffffffffffffffffffffffffffffffffffffff16036112615760008560400160200135116111b9576040517f08c379a00000000000000000000000000000000000000000000000000000000081526004016111b0906140db565b60405180910390fd5b6111c98560800160200135611f66565b73ffffffffffffffffffffffffffffffffffffffff168560200160208101906111f2919061350e565b73ffffffffffffffffffffffffffffffffffffffff1603611248576040517f08c379a000000000000000000000000000000000000000000000000000000000815260040161123f9061416d565b60405180910390fd5b61126085604001602001358660800160200135611f78565b5b61126b85856121cc565b600181600e0181905550505b50505050565b60008373ffffffffffffffffffffffffffffffffffffffff168273ffffffffffffffffffffffffffffffffffffffff16036112ed576040517f08c379a00000000000000000000000000000000000000000000000000000000081526004016112e490613e26565b60405180910390fd5b8373ffffffffffffffffffffffffffffffffffffffff163373ffffffffffffffffffffffffffffffffffffffff16148061132d575061132c8433611684565b5b61136c576040517f08c379a0000000000000000000000000000000000000000000000000000000008152600401611363906141ff565b60405180910390fd5b81611375611cbb565b60090160008673ffffffffffffffffffffffffffffffffffffffff1673ffffffffffffffffffffffffffffffffffffffff1681526020019081526020016000206000857bffffffffffffffffffffffffffffffffffffffffffffffffffffffff19167bffffffffffffffffffffffffffffffffffffffffffffffffffffffff1916815260200190815260200160002060006101000a81548173ffffffffffffffffffffffffffffffffffffffff021916908373ffffffffffffffffffffffffffffffffffffffff1602179055508173ffffffffffffffffffffffffffffffffffffffff16837bffffffffffffffffffffffffffffffffffffffffffffffffffffffff19168573ffffffffffffffffffffffffffffffffffffffff167f57f9e4aa0c479eb6b4954eeaf36d835de17e7b2df00ce50976dfeba4eff89bbc60405160405180910390a4600190509392505050565b6114cf6124ae565b60030160009054906101000a900473ffffffffffffffffffffffffffffffffffffffff1673ffffffffffffffffffffffffffffffffffffffff163373ffffffffffffffffffffffffffffffffffffffff16148061155757503073ffffffffffffffffffffffffffffffffffffffff163373ffffffffffffffffffffffffffffffffffffffff16145b611596576040517f08c379a000000000000000000000000000000000000000000000000000000000815260040161158d9061426b565b60405180910390fd5b61159f816124db565b50565b6115aa6124ae565b60030160009054906101000a900473ffffffffffffffffffffffffffffffffffffffff1673ffffffffffffffffffffffffffffffffffffffff163373ffffffffffffffffffffffffffffffffffffffff16148061163257503073ffffffffffffffffffffffffffffffffffffffff163373ffffffffffffffffffffffffffffffffffffffff16145b611671576040517f08c379a00000000000000000000000000000000000000000000000000000000081526004016116689061426b565b60405180910390fd5b8061167a611dc5565b6007018190555050565b600061168e611cbb565b600a0160008473ffffffffffffffffffffffffffffffffffffffff1673ffffffffffffffffffffffffffffffffffffffff16815260200190815260200160002060008373ffffffffffffffffffffffffffffffffffffffff1673ffffffffffffffffffffffffffffffffffffffff16815260200190815260200160002060009054906101000a900460ff16905092915050565b80611730338260000151611df2565b611a7157600061173e611cbb565b9050600281600d015403611787576040517f08c379a000000000000000000000000000000000000000000000000000000000815260040161177e90613f2b565b60405180910390fd5b6117a1826000015182600301611f0590919063ffffffff16565b6117e0576040517f08c379a00000000000000000000000000000000000000000000000000000000081526004016117d790613f97565b60405180910390fd5b6117f282602001518360000151612528565b611831576040517f08c379a0000000000000000000000000000000000000000000000000000000008152600401611828906142d7565b60405180910390fd5b3073ffffffffffffffffffffffffffffffffffffffff1682604001516000015173ffffffffffffffffffffffffffffffffffffffff1614806118ae57503073ffffffffffffffffffffffffffffffffffffffff166118968360400151600001516125b1565b73ffffffffffffffffffffffffffffffffffffffff16145b6118ed576040517f08c379a00000000000000000000000000000000000000000000000000000000081526004016118e490614343565b60405180910390fd5b600281600d018190555060008360400151602001511115611a5c57826020015173ffffffffffffffffffffffffffffffffffffffff16611934846040015160200151611f66565b73ffffffffffffffffffffffffffffffffffffffff161461198a576040517f08c379a0000000000000000000000000000000000000000000000000000000008152600401611981906143d5565b60405180910390fd5b3073ffffffffffffffffffffffffffffffffffffffff1683606001516000015173ffffffffffffffffffffffffffffffffffffffff16141580156119f157506119f083606001516000015173ffffffffffffffffffffffffffffffffffffffff166126e8565b5b15611a5b576119fe611dc5565b600501600084606001516000015173ffffffffffffffffffffffffffffffffffffffff1673ffffffffffffffffffffffffffffffffffffffff16815260200190815260200160002060008154611a53906143f5565b919050819055505b5b611a65836126fb565b600181600d0181905550505b5050565b6000611a938383611a84611cbb565b612a979092919063ffffffff16565b905092915050565b6000611aa56124ae565b90506000611ab1611dc5565b90508160030160009054906101000a900473ffffffffffffffffffffffffffffffffffffffff1673ffffffffffffffffffffffffffffffffffffffff163373ffffffffffffffffffffffffffffffffffffffff1614611b45576040517f08c379a0000000000000000000000000000000000000000000000000000000008152600401611b3c90614489565b60405180910390fd5b828160000160006101000a81548173ffffffffffffffffffffffffffffffffffffffff021916908373ffffffffffffffffffffffffffffffffffffffff160217905550678ac7230489e8000081600401819055506040816007018190555080600401546107d0611bb59190613d48565b816008018190555080600401546103e8611bcf9190613d48565b81600901819055506000611be1612ab8565b9050611c197fc8c6c9f300000000000000000000000000000000000000000000000000000000600183612ae59092919063ffffffff16565b611c4f7f1a3f02f400000000000000000000000000000000000000000000000000000000600183612ae59092919063ffffffff16565b611c8d6040518060400160405280600481526020017f6361737400000000000000000000000000000000000000000000000000000000815250612bbd565b50505050565b60007f416136f98a37e21524754716a91ac1d0c28c851be9745167497f08b033e08082905090565b6000807fa032ba88b900c45f57a7091ecf5c4554fa26307dca32fbb3010bb567ee6b18db90508091505090565b606081600001805480602002602001604051908101604052809291908181526020016000905b82821015611dba578382906000526020600020018054611d2d906144d8565b80601f0160208091040260200160405190810160405280929190818152602001828054611d59906144d8565b8015611da65780601f10611d7b57610100808354040283529160200191611da6565b820191906000526020600020905b815481529060010190602001808311611d8957829003601f168201915b505050505081526020019060010190611d0e565b505050509050919050565b6000807fc0de19833efd7d5b09ceaad2cd6f95a78a4885115f30489321bc7bfaae8c6cc290508091505090565b600080611dfd611cbb565b905080600c0160008573ffffffffffffffffffffffffffffffffffffffff1673ffffffffffffffffffffffffffffffffffffffff16815260200190815260200160002060009054906101000a900460ff1615611e5d576001915050611eff565b80600b0160008573ffffffffffffffffffffffffffffffffffffffff1673ffffffffffffffffffffffffffffffffffffffff1681526020019081526020016000206000847bffffffffffffffffffffffffffffffffffffffffffffffffffffffff19167bffffffffffffffffffffffffffffffffffffffffffffffffffffffff1916815260200190815260200160002060009054906101000a900460ff169150505b92915050565b600080836002016000847bffffffffffffffffffffffffffffffffffffffffffffffffffffffff19167bffffffffffffffffffffffffffffffffffffffffffffffffffffffff19168152602001908152602001600020541415905092915050565b6000611f7182612bfc565b9050919050565b6000611f82611dc5565b905060006002611f9184612ce3565b611f9b9190613d48565b905060008183600101600086815260200190815260200160002054101590506002611fc586612ce3565b611fcf9190613d48565b91506000828460010160008881526020019081526020016000205410159050811580611ff9575080155b612038576040517f08c379a000000000000000000000000000000000000000000000000000000000815260040161202f90614555565b60405180910390fd5b806120fe578360000160009054906101000a900473ffffffffffffffffffffffffffffffffffffffff1673ffffffffffffffffffffffffffffffffffffffff1663156e29f6308887600401546040518463ffffffff1660e01b81526004016120a293929190614575565b600060405180830381600087803b1580156120bc57600080fd5b505af11580156120d0573d6000803e3d6000fd5b50505050836001016000878152602001908152602001600020600081546120f6906143f5565b919050819055505b816121c4578360000160009054906101000a900473ffffffffffffffffffffffffffffffffffffffff1673ffffffffffffffffffffffffffffffffffffffff1663156e29f6308787600401546040518463ffffffff1660e01b815260040161216893929190614575565b600060405180830381600087803b15801561218257600080fd5b505af1158015612196573d6000803e3d6000fd5b50505050836001016000868152602001908152602001600020600081546121bc906143f5565b919050819055505b505050505050565b6121e8338360000160208101906121e39190613e46565b611df2565b61239f57600073ffffffffffffffffffffffffffffffffffffffff168260c0016020810190612217919061350e565b73ffffffffffffffffffffffffffffffffffffffff161461239e576122638260c0016020810190612248919061350e565b73ffffffffffffffffffffffffffffffffffffffff166126e8565b6122a2576040517f08c379a0000000000000000000000000000000000000000000000000000000008152600401612299906145f8565b60405180910390fd5b8160c00160208101906122b5919061350e565b73ffffffffffffffffffffffffffffffffffffffff1663913c5c813484846040518463ffffffff1660e01b81526004016122f0929190614840565b6000604051808303818588803b15801561230957600080fd5b505af19350505050801561231b575060015b61239d573d806000811461234b576040519150601f19603f3d011682016040523d82523d6000602084013e612350565b606091505b506000815103612395576040517f08c379a000000000000000000000000000000000000000000000000000000000815260040161238c906148e2565b60405180910390fd5b805181602001fd5b5b5b8160800160000160208101906123b5919061350e565b73ffffffffffffffffffffffffffffffffffffffff168260400160000160208101906123e1919061350e565b73ffffffffffffffffffffffffffffffffffffffff1683600001602081019061240a9190613e46565b7bffffffffffffffffffffffffffffffffffffffffffffffffffffffff19167f631a64c22ececeb533942f6a78b2f9a947d96349ef6d663b74e4732ac900610285602001602081019061245d919061350e565b866040016020013587608001602001358860c0016020810190612480919061350e565b898060e001906124909190614911565b6040516124a2969594939291906149b2565b60405180910390a45050565b6000807fc8fcad8db84d3cc18b4c41d551ea0ee66dd599cde068d998e57d5e09332c131c90508091505090565b806124e4611cbb565b60020160006101000a81548173ffffffffffffffffffffffffffffffffffffffff021916908373ffffffffffffffffffffffffffffffffffffffff16021790555050565b60008273ffffffffffffffffffffffffffffffffffffffff163373ffffffffffffffffffffffffffffffffffffffff16148061256a57506125698333611684565b5b806125a957503373ffffffffffffffffffffffffffffffffffffffff1661259184846104c9565b73ffffffffffffffffffffffffffffffffffffffff16145b905092915050565b60008073ffffffffffffffffffffffffffffffffffffffff166125d2611cbb565b60020160009054906101000a900473ffffffffffffffffffffffffffffffffffffffff1673ffffffffffffffffffffffffffffffffffffffff1603612619578190506126e3565b612621611cbb565b60020160009054906101000a900473ffffffffffffffffffffffffffffffffffffffff1673ffffffffffffffffffffffffffffffffffffffff1663aabbb8ca837fc8c6c9f3000000000000000000000000000000000000000000000000000000006040518363ffffffff1660e01b815260040161269f929190614a2f565b602060405180830381865afa1580156126bc573d6000803e3d6000fd5b505050506040513d601f19601f820116820180604052508101906126e09190614a6d565b90505b919050565b600080823b905060008111915050919050565b612709338260000151611df2565b6129d7573081604001516000019073ffffffffffffffffffffffffffffffffffffffff16908173ffffffffffffffffffffffffffffffffffffffff1681525050600061277282606001516000015173ffffffffffffffffffffffffffffffffffffffff166126e8565b90506000612799836080015173ffffffffffffffffffffffffffffffffffffffff166126e8565b9050600082156127b35783606001516000015190506127c2565b81156127c157836080015190505b5b8280156127cc5750815b156127ec576127eb846127dd611cbb565b612d3290919063ffffffff16565b5b61280b8173ffffffffffffffffffffffffffffffffffffffff166126e8565b156129d35761281981612dc1565b9050600073ffffffffffffffffffffffffffffffffffffffff168173ffffffffffffffffffffffffffffffffffffffff1603612881576040517f13f6248700000000000000000000000000000000000000000000000000000000815260040160405180910390fd5b8073ffffffffffffffffffffffffffffffffffffffff1663913c5c8134866128a7611cbb565b600001546040518463ffffffff1660e01b81526004016128c8929190614b8c565b6000604051808303818588803b1580156128e157600080fd5b505af1935050505080156128f3575060015b6129d2576128ff614bc9565b806308c379a00361295b5750612913614beb565b8061291e575061295d565b806040517f08c379a00000000000000000000000000000000000000000000000000000000081526004016129529190614cb4565b60405180910390fd5b505b3d8060008114612989576040519150601f19603f3d011682016040523d82523d6000602084013e61298e565b606091505b5060008151036129ca576040517f01d5842700000000000000000000000000000000000000000000000000000000815260040160405180910390fd5b805181602001fd5b5b5050505b80606001516000015173ffffffffffffffffffffffffffffffffffffffff1681604001516000015173ffffffffffffffffffffffffffffffffffffffff1682600001517bffffffffffffffffffffffffffffffffffffffffffffffffffffffff19167f0f884f8c03436e1dac6ede6cd6437e534a3c785d07aebe49186ceed53610bdd3846020015185604001516020015186606001516020015187608001518860a00151604051612a8c959493929190614d0f565b60405180910390a450565b6000836001015483148015612aaf5750836000015482145b90509392505050565b6000807f326d0c59a7612f6a9919e2a8ee333c80ba689d8ba2634de89c85cbb04832e70590508091505090565b63ffffffff60e01b827bffffffffffffffffffffffffffffffffffffffffffffffffffffffff191603612b4d576040517f08c379a0000000000000000000000000000000000000000000000000000000008152600401612b4490614db5565b60405180910390fd5b80836000016000847bffffffffffffffffffffffffffffffffffffffffffffffffffffffff19167bffffffffffffffffffffffffffffffffffffffffffffffffffffffff1916815260200190815260200160002060006101000a81548160ff021916908315150217905550505050565b612bda81612bc9611cbb565b600601612ef890919063ffffffff16565b50612bf881612be7611cbb565b600301612ef890919063ffffffff16565b5050565b60008082905080612c0b61300c565b11612cac57612c18613015565b60000154811015612cab576000612c2d613015565b600401600083815260200190815260200160002054905060007c0100000000000000000000000000000000000000000000000000000000821603612ca9575b60008103612c9f57612c7c613015565b600401600083600190039350838152602001908152602001600020549050612c6c565b8092505050612cde565b505b5b6040517fdf2d9b4200000000000000000000000000000000000000000000000000000000815260040160405180910390fd5b919050565b6000806015612cf0613042565b600501600085815260200190815260200160002054612d0f9190614dd5565b90506001600482612d209190613d17565b612d2a9190613c92565b915050919050565b8160000160008154612d43906143f5565b919050819055508060000151816020015182604001516000015183604001516020015184606001516000015185606001516020015186608001518760a001518960000154604051602001612d9f99989796959493929190614e90565b6040516020818303038152906040528051906020012082600101819055505050565b60008073ffffffffffffffffffffffffffffffffffffffff16612de2611cbb565b60020160009054906101000a900473ffffffffffffffffffffffffffffffffffffffff1673ffffffffffffffffffffffffffffffffffffffff1603612e2957819050612ef3565b612e31611cbb565b60020160009054906101000a900473ffffffffffffffffffffffffffffffffffffffff1673ffffffffffffffffffffffffffffffffffffffff1663aabbb8ca837f1a3f02f4000000000000000000000000000000000000000000000000000000006040518363ffffffff1660e01b8152600401612eaf929190614a2f565b602060405180830381865afa158015612ecc573d6000803e3d6000fd5b505050506040513d601f19601f82011682018060405250810190612ef09190614a6d565b90505b919050565b60008082805190602001209050612f0f8482611f05565b61300057836001018190806001815401808255809150506001900390600052602060002090600891828204019190066004029091909190916101000a81548163ffffffff021916908360e01c02179055508360000183908060018154018082558091505060019003906000526020600020016000909190919091509081612f9691906150db565b508360010180549050846002016000837bffffffffffffffffffffffffffffffffffffffffffffffffffffffff19167bffffffffffffffffffffffffffffffffffffffffffffffffffffffff19168152602001908152602001600020819055506001915050613006565b60009150505b92915050565b60006001905090565b6000807f2569078dfb4b0305704d3008e7403993ae9601b85f7ae5e742de3de8f8011c4090508091505090565b6000807f32b2e02f32560e257eaad13ed8a4f0ffa175bcb89327c67da202bdcd5579cc1290508091505090565b6000604051905090565b600080fd5b600080fd5b6000819050919050565b61309681613083565b81146130a157600080fd5b50565b6000813590506130b38161308d565b92915050565b600073ffffffffffffffffffffffffffffffffffffffff82169050919050565b60006130e4826130b9565b9050919050565b6130f4816130d9565b81146130ff57600080fd5b50565b600081359050613111816130eb565b92915050565b600080fd5b600080fd5b6000601f19601f8301169050919050565b7f4e487b7100000000000000000000000000000000000000000000000000000000600052604160045260246000fd5b61316a82613121565b810181811067ffffffffffffffff8211171561318957613188613132565b5b80604052505050565b600061319c61306f565b90506131a88282613161565b919050565b600067ffffffffffffffff8211156131c8576131c7613132565b5b6131d182613121565b9050602081019050919050565b82818337600083830152505050565b60006132006131fb846131ad565b613192565b90508281526020810184848401111561321c5761321b61311c565b5b6132278482856131de565b509392505050565b600082601f83011261324457613243613117565b5b81356132548482602086016131ed565b91505092915050565b6000806000806080858703121561327757613276613079565b5b6000613285878288016130a4565b945050602061329687828801613102565b93505060406132a7878288016130a4565b925050606085013567ffffffffffffffff8111156132c8576132c761307e565b5b6132d48782880161322f565b91505092959194509250565b600081519050919050565b600082825260208201905092915050565b6000819050602082019050919050565b600081519050919050565b600082825260208201905092915050565b60005b8381101561334657808201518184015260208101905061332b565b83811115613355576000848401525b50505050565b60006133668261330c565b6133708185613317565b9350613380818560208601613328565b61338981613121565b840191505092915050565b60006133a0838361335b565b905092915050565b6000602082019050919050565b60006133c0826132e0565b6133ca81856132eb565b9350836020820285016133dc856132fc565b8060005b8581101561341857848403895281516133f98582613394565b9450613404836133a8565b925060208a019950506001810190506133e0565b50829750879550505050505092915050565b6000602082019050818103600083015261344481846133b5565b905092915050565b60007fffffffff0000000000000000000000000000000000000000000000000000000082169050919050565b6134818161344c565b811461348c57600080fd5b50565b60008135905061349e81613478565b92915050565b600080604083850312156134bb576134ba613079565b5b60006134c985828601613102565b92505060206134da8582860161348f565b9150509250929050565b6134ed816130d9565b82525050565b600060208201905061350860008301846134e4565b92915050565b60006020828403121561352457613523613079565b5b600061353284828501613102565b91505092915050565b60008115159050919050565b6135508161353b565b811461355b57600080fd5b50565b60008135905061356d81613547565b92915050565b60008060006060848603121561358c5761358b613079565b5b600061359a86828701613102565b93505060206135ab8682870161348f565b92505060406135bc8682870161355e565b9150509250925092565b6135cf8161353b565b82525050565b60006020820190506135ea60008301846135c6565b92915050565b6000806040838503121561360757613606613079565b5b600061361585828601613102565b92505060206136268582860161355e565b9150509250929050565b600080fd5b6000610100828403121561364c5761364b613630565b5b81905092915050565b6000806040838503121561366c5761366b613079565b5b600083013567ffffffffffffffff81111561368a5761368961307e565b5b61369685828601613635565b92505060206136a7858286016130a4565b9150509250929050565b6000806000606084860312156136ca576136c9613079565b5b60006136d886828701613102565b93505060206136e98682870161348f565b92505060406136fa86828701613102565b9150509250925092565b60006020828403121561371a57613719613079565b5b6000613728848285016130a4565b91505092915050565b6000806040838503121561374857613747613079565b5b600061375685828601613102565b925050602061376785828601613102565b9150509250929050565b600080fd5b600080fd5b60006040828403121561379157613790613771565b5b61379b6040613192565b905060006137ab84828501613102565b60008301525060206137bf848285016130a4565b60208301525092915050565b600061010082840312156137e2576137e1613771565b5b6137ec60c0613192565b905060006137fc8482850161348f565b600083015250602061381084828501613102565b60208301525060406138248482850161377b565b60408301525060806138388482850161377b565b60608301525060c061384c84828501613102565b60808301525060e082013567ffffffffffffffff8111156138705761386f613776565b5b61387c8482850161322f565b60a08301525092915050565b60006020828403121561389e5761389d613079565b5b600082013567ffffffffffffffff8111156138bc576138bb61307e565b5b6138c8848285016137cb565b91505092915050565b6000819050919050565b6138e4816138d1565b81146138ef57600080fd5b50565b600081359050613901816138db565b92915050565b6000806040838503121561391e5761391d613079565b5b600061392c858286016138f2565b925050602061393d858286016130a4565b9150509250929050565b600082825260208201905092915050565b7f616c726561647920636c61696d65640000000000000000000000000000000000600082015250565b600061398e600f83613947565b915061399982613958565b602082019050919050565b600060208201905081810360008301526139bd81613981565b9050919050565b7f656d707479206164647265737300000000000000000000000000000000000000600082015250565b60006139fa600d83613947565b9150613a05826139c4565b602082019050919050565b60006020820190508181036000830152613a29816139ed565b9050919050565b7f6e6f7420656e6f756768207370656c6c732063617374206f6e20636f6e74726160008201527f6374000000000000000000000000000000000000000000000000000000000000602082015250565b6000613a8c602283613947565b9150613a9782613a30565b604082019050919050565b60006020820190508181036000830152613abb81613a7f565b9050919050565b600081519050919050565b600081905092915050565b6000613ae382613ac2565b613aed8185613acd565b9350613afd818560208601613328565b80840191505092915050565b6000613b158284613ad8565b915081905092915050565b7f6f776e65722829206661696c6564000000000000000000000000000000000000600082015250565b6000613b56600e83613947565b9150613b6182613b20565b602082019050919050565b60006020820190508181036000830152613b8581613b49565b9050919050565b6000613b97826130b9565b9050919050565b613ba781613b8c565b8114613bb257600080fd5b50565b600081519050613bc481613b9e565b92915050565b600060208284031215613be057613bdf613079565b5b6000613bee84828501613bb5565b91505092915050565b7f73656e646572206973206e6f74206f776e657200000000000000000000000000600082015250565b6000613c2d601383613947565b9150613c3882613bf7565b602082019050919050565b60006020820190508181036000830152613c5c81613c20565b9050919050565b7f4e487b7100000000000000000000000000000000000000000000000000000000600052601160045260246000fd5b6000613c9d82613083565b9150613ca883613083565b9250827fffffffffffffffffffffffffffffffffffffffffffffffffffffffffffffffff03821115613cdd57613cdc613c63565b5b828201905092915050565b7f4e487b7100000000000000000000000000000000000000000000000000000000600052601260045260246000fd5b6000613d2282613083565b9150613d2d83613083565b925082613d3d57613d3c613ce8565b5b828204905092915050565b6000613d5382613083565b9150613d5e83613083565b9250817fffffffffffffffffffffffffffffffffffffffffffffffffffffffffffffffff0483118215151615613d9757613d96613c63565b5b828202905092915050565b613dab81613083565b82525050565b6000604082019050613dc660008301856134e4565b613dd36020830184613da2565b9392505050565b7f455243353035303a20617070726f766520746f2063616c6c6572000000000000600082015250565b6000613e10601a83613947565b9150613e1b82613dda565b602082019050919050565b60006020820190508181036000830152613e3f81613e03565b9050919050565b600060208284031215613e5c57613e5b613079565b5b6000613e6a8482850161348f565b91505092915050565b7f455243353035303a20696e76616c696420726563656976657200000000000000600082015250565b6000613ea9601983613947565b9150613eb482613e73565b602082019050919050565b60006020820190508181036000830152613ed881613e9c565b9050919050565b7f455243353035303a206e6f2072652d656e7472616e6379000000000000000000600082015250565b6000613f15601783613947565b9150613f2082613edf565b602082019050919050565b60006020820190508181036000830152613f4481613f08565b9050919050565b7f455243353035303a20696e76616c696420616374696f6e000000000000000000600082015250565b6000613f81601783613947565b9150613f8c82613f4b565b602082019050919050565b60006020820190508181036000830152613fb081613f74565b9050919050565b7f455243353035303a20696e76616c69642073656e646572000000000000000000600082015250565b6000613fed601783613947565b9150613ff882613fb7565b602082019050919050565b6000602082019050818103600083015261401c81613fe0565b9050919050565b7f5370656c6c733a206361737420746f207a65726f20746f6b656e000000000000600082015250565b6000614059601a83613947565b915061406482614023565b602082019050919050565b600060208201905081810360008301526140888161404c565b9050919050565b7f5370656c6c733a20636173742066726f6d207a65726f20746f6b656e00000000600082015250565b60006140c5601c83613947565b91506140d08261408f565b602082019050919050565b600060208201905081810360008301526140f4816140b8565b9050919050565b7f5370656c6c733a204d7573742062652068656c6420627920646966666572656e60008201527f742077616c6c6574730000000000000000000000000000000000000000000000602082015250565b6000614157602983613947565b9150614162826140fb565b604082019050919050565b600060208201905081810360008301526141868161414a565b9050919050565b7f455243353035303a20617070726f76652063616c6c6572206973206e6f74206160008201527f63636f756e74206e6f7220617070726f76656420666f7220616c6c0000000000602082015250565b60006141e9603b83613947565b91506141f48261418d565b604082019050919050565b60006020820190508181036000830152614218816141dc565b9050919050565b7f4e4f545f414c4c4f574544000000000000000000000000000000000000000000600082015250565b6000614255600b83613947565b91506142608261421f565b602082019050919050565b6000602082019050818103600083015261428481614248565b9050919050565b7f455243353035303a20756e617070726f7665642073656e646572000000000000600082015250565b60006142c1601a83613947565b91506142cc8261428b565b602082019050919050565b600060208201905081810360008301526142f0816142b4565b9050919050565b7f455243353035303a20696e76616c69642066726f6d2061646472657373000000600082015250565b600061432d601d83613947565b9150614338826142f7565b602082019050919050565b6000602082019050818103600083015261435c81614320565b9050919050565b7f5370656c6c733a2073656e64657220646f6573206e6f74206f776e20746f6b6560008201527f6e00000000000000000000000000000000000000000000000000000000000000602082015250565b60006143bf602183613947565b91506143ca82614363565b604082019050919050565b600060208201905081810360008301526143ee816143b2565b9050919050565b600061440082613083565b91507fffffffffffffffffffffffffffffffffffffffffffffffffffffffffffffffff820361443257614431613c63565b5b600182019050919050565b7f4d757374206f776e2074686520636f6e74726163742e00000000000000000000600082015250565b6000614473601683613947565b915061447e8261443d565b602082019050919050565b600060208201905081810360008301526144a281614466565b9050919050565b7f4e487b7100000000000000000000000000000000000000000000000000000000600052602260045260246000fd5b600060028204905060018216806144f057607f821691505b602082108103614503576145026144a9565b5b50919050565b7f5370656c6c733a20626f746820746f6b656e732066756c6c79206d696e656400600082015250565b600061453f601f83613947565b915061454a82614509565b602082019050919050565b6000602082019050818103600083015261456e81614532565b9050919050565b600060608201905061458a60008301866134e4565b6145976020830185613da2565b6145a46040830184613da2565b949350505050565b7f455243353035303a20696e76616c696420737461746500000000000000000000600082015250565b60006145e2601683613947565b91506145ed826145ac565b602082019050919050565b60006020820190508181036000830152614611816145d5565b9050919050565b6000614627602084018461348f565b905092915050565b6146388161344c565b82525050565b600061464d6020840184613102565b905092915050565b61465e816130d9565b82525050565b600082905092915050565b600061467e60208401846130a4565b905092915050565b61468f81613083565b82525050565b604082016146a6600083018361463e565b6146b36000850182614655565b506146c1602083018361466f565b6146ce6020850182614686565b50505050565b600080fd5b600080fd5b600080fd5b60008083356001602003843603038112614700576146ff6146de565b5b83810192508235915060208301925067ffffffffffffffff821115614728576147276146d4565b5b60018202360383131561473e5761473d6146d9565b5b509250929050565b600082825260208201905092915050565b60006147638385614746565b93506147708385846131de565b61477983613121565b840190509392505050565b600061010083016147986000840184614618565b6147a5600086018261462f565b506147b3602084018461463e565b6147c06020860182614655565b506147ce6040840184614664565b6147db6040860182614695565b506147e96080840184614664565b6147f66080860182614695565b5061480460c084018461463e565b61481160c0860182614655565b5061481f60e08401846146e3565b85830360e0870152614832838284614757565b925050508091505092915050565b6000604082019050818103600083015261485a8185614784565b90506148696020830184613da2565b9392505050565b7f455243353035303a2063616c6c20746f206e6f6e20455243353035305265636560008201527f6976657200000000000000000000000000000000000000000000000000000000602082015250565b60006148cc602483613947565b91506148d782614870565b604082019050919050565b600060208201905081810360008301526148fb816148bf565b9050919050565b600080fd5b600080fd5b600080fd5b6000808335600160200384360303811261492e5761492d614902565b5b80840192508235915067ffffffffffffffff8211156149505761494f614907565b5b60208301925060018202360383131561496c5761496b61490c565b5b509250929050565b600082825260208201905092915050565b60006149918385614974565b935061499e8385846131de565b6149a783613121565b840190509392505050565b600060a0820190506149c760008301896134e4565b6149d46020830188613da2565b6149e16040830187613da2565b6149ee60608301866134e4565b8181036080830152614a01818486614985565b9050979650505050505050565b6000614a198261344c565b9050919050565b614a2981614a0e565b82525050565b6000604082019050614a4460008301856134e4565b614a516020830184614a20565b9392505050565b600081519050614a67816130eb565b92915050565b600060208284031215614a8357614a82613079565b5b6000614a9184828501614a58565b91505092915050565b604082016000820151614ab06000850182614655565b506020820151614ac36020850182614686565b50505050565b6000614ad482613ac2565b614ade8185614746565b9350614aee818560208601613328565b614af781613121565b840191505092915050565b600061010083016000830151614b1b600086018261462f565b506020830151614b2e6020860182614655565b506040830151614b416040860182614a9a565b506060830151614b546080860182614a9a565b506080830151614b6760c0860182614655565b5060a083015184820360e0860152614b7f8282614ac9565b9150508091505092915050565b60006040820190508181036000830152614ba68185614b02565b9050614bb56020830184613da2565b9392505050565b60008160e01c9050919050565b600060033d1115614be85760046000803e614be5600051614bbc565b90505b90565b600060443d10614c7857614bfd61306f565b60043d036004823e80513d602482011167ffffffffffffffff82111715614c25575050614c78565b808201805167ffffffffffffffff811115614c435750505050614c78565b80602083010160043d038501811115614c60575050505050614c78565b614c6f82602001850186613161565b82955050505050505b90565b6000614c868261330c565b614c908185613947565b9350614ca0818560208601613328565b614ca981613121565b840191505092915050565b60006020820190508181036000830152614cce8184614c7b565b905092915050565b6000614ce182613ac2565b614ceb8185614974565b9350614cfb818560208601613328565b614d0481613121565b840191505092915050565b600060a082019050614d2460008301886134e4565b614d316020830187613da2565b614d3e6040830186613da2565b614d4b60608301856134e4565b8181036080830152614d5d8184614cd6565b90509695505050505050565b7f4552433136353a20696e76616c696420696e7465726661636520696400000000600082015250565b6000614d9f601c83613947565b9150614daa82614d69565b602082019050919050565b60006020820190508181036000830152614dce81614d92565b9050919050565b6000614de082613083565b9150614deb83613083565b925082614dfb57614dfa613ce8565b5b828206905092915050565b6000819050919050565b614e21614e1c8261344c565b614e06565b82525050565b60008160601b9050919050565b6000614e3f82614e27565b9050919050565b6000614e5182614e34565b9050919050565b614e69614e64826130d9565b614e46565b82525050565b6000819050919050565b614e8a614e8582613083565b614e6f565b82525050565b6000614e9c828c614e10565b600482019150614eac828b614e58565b601482019150614ebc828a614e58565b601482019150614ecc8289614e79565b602082019150614edc8288614e58565b601482019150614eec8287614e79565b602082019150614efc8286614e58565b601482019150614f0c8285613ad8565b9150614f188284614e79565b6020820191508190509a9950505050505050505050565b60008190508160005260206000209050919050565b60006020601f8301049050919050565b600082821b905092915050565b600060088302614f917fffffffffffffffffffffffffffffffffffffffffffffffffffffffffffffffff82614f54565b614f9b8683614f54565b95508019841693508086168417925050509392505050565b6000819050919050565b6000614fd8614fd3614fce84613083565b614fb3565b613083565b9050919050565b6000819050919050565b614ff283614fbd565b615006614ffe82614fdf565b848454614f61565b825550505050565b600090565b61501b61500e565b615026818484614fe9565b505050565b5b8181101561504a5761503f600082615013565b60018101905061502c565b5050565b601f82111561508f5761506081614f2f565b61506984614f44565b81016020851015615078578190505b61508c61508485614f44565b83018261502b565b50505b505050565b600082821c905092915050565b60006150b260001984600802615094565b1980831691505092915050565b60006150cb83836150a1565b9150826002028217905092915050565b6150e48261330c565b67ffffffffffffffff8111156150fd576150fc613132565b5b61510782546144d8565b61511282828561504e565b600060209050601f8311600181146151455760008415615133578287015190505b61513d85826150bf565b8655506151a5565b601f19841661515386614f2f565b60005b8281101561517b57848901518255600182019150602085019450602081019050615156565b868310156151985784890151615194601f8916826150a1565b8355505b6001600288020188555050505b50505050505056fea26469706673582212202db0fb69c20b70b65690790fcf0661fcbc7144dbf9c9f0a18f8b77d39f02ddb564736f6c634300080f0033",
  "immutableReferences": {},
  "source": "// SPDX-License-Identifier: MIT\npragma solidity ^0.8.4;\n\nimport \"@solidstate/contracts/introspection/ERC165Storage.sol\";\n\nimport {ERC5050, Action, Object, Address, Strings} from \"./ERC5050/ERC5050.sol\";\nimport {LibERC721AUpgradeable} from './ERC721A/LibERC721AUpgradeable.sol';\nimport {ERC5050Storage} from \"./ERC5050/ERC5050Storage.sol\";\nimport { IERC5050Sender, IERC5050Receiver } from \"../interfaces/IERC5050.sol\";\nimport { LibDiamond } from \"../libraries/LibDiamond.sol\";\nimport { CallProtection } from \"./shared/Access/CallProtection.sol\";\nimport \"../../dust/IDust.sol\";\n\nimport {SpellsCastStorage} from \"./SpellsCastStorage.sol\";\nimport {SpellsStorage} from \"./SpellsStorage.sol\";\n\ncontract SpellsActionFacet is ERC5050, CallProtection {\n    using SpellsCastStorage for SpellsCastStorage.Storage;\n    using ERC165Storage for ERC165Storage.Layout;\n    using Address for address;\n\n    function initializeSpellsActionFacet(address _dust) external {\n        LibDiamond.DiamondStorage storage ds = LibDiamond.diamondStorage();\n        SpellsCastStorage.Storage storage es = SpellsCastStorage.getStorage();\n\n        require(msg.sender == ds.contractOwner, \"Must own the contract.\");\n\n        es.dust = IDust(_dust);\n        es.dustMultiplier = 1e10 gwei; // 10 tokens per mint unit\n        es.tyClaimThreshold = 64;\n        es.tyjackpot = 2000 * es.dustMultiplier;\n        es.tyfirstSolveBonus = 1000 * es.dustMultiplier;\n\n        ERC165Storage.Layout storage erc165 = ERC165Storage.layout();\n        erc165.setSupportedInterface(type(IERC5050Sender).interfaceId, true);\n        erc165.setSupportedInterface(type(IERC5050Receiver).interfaceId, true);\n        _registerAction(\"cast\");\n    }\n\n    /// @dev Claim your $DUST from the TYJACKPOT after `tyClaimThreshold` reached.\n    function MISCHIEF_MANAGED(address _contract) external {\n        SpellsCastStorage.Storage storage es = SpellsCastStorage.getStorage();\n        require(!es.tys[_contract], \"already claimed\");\n        require(_contract != address(0), \"empty address\");\n        require(\n            es.contractCasts[_contract] >= es.tyClaimThreshold,\n            \"not enough spells cast on contract\"\n        );\n        // Verify caller is contract owner\n        (bool success, bytes memory returnData) = _contract.staticcall(\n            abi.encodeWithSignature(\"owner()\")\n        );\n        require(success, \"owner() failed\");\n        address owner = abi.decode(returnData, (address));\n        require(msg.sender == owner, \"sender is not owner\");\n\n        uint256 amount = es.tyjackpot + es.tyfirstSolveBonus;\n        if (es.tyfirstSolveBonus != 0) {\n            es.tyfirstSolveBonus = 0;\n        }\n        es.tyjackpot = (es.tyjackpot / 20) * 19;\n        es.tys[_contract] = true;\n        es.dust.mint(msg.sender, amount);\n    }\n    \n    /// @dev Set the claim threshold for TYJACKPOT.\n    function setTYClaimThreshold(uint256 _tyClaimThreshold) external protectedCall {\n        SpellsCastStorage.getStorage().tyClaimThreshold = _tyClaimThreshold;\n    }\n    \n    function setProxy(address proxy) external protectedCall  {\n        ERC5050Storage.setProxy(proxy);\n    }\n\n    function compareStrings(string memory a, string memory b)\n        internal\n        pure\n        returns (bool)\n    {\n        if (bytes(a).length != bytes(b).length) {\n            return false;\n        }\n        return (keccak256(abi.encodePacked((a))) ==\n            keccak256(abi.encodePacked((b))));\n    }\n\n    /// @dev Mine `dustMultiplier` $DUST to `from` and `to`, each up to 2x initial dust \n    ///     amount.\n    function _mineDust(uint256 from, uint256 to) private {\n        SpellsCastStorage.Storage storage es = SpellsCastStorage.getStorage();\n        uint256 limit = SpellsStorage.initialDustOf(to) * 2;\n        bool toMaxed = es.tokenDustMined[to] >= limit;\n        limit = SpellsStorage.initialDustOf(from) * 2;\n        bool fromMaxed = es.tokenDustMined[from] >= limit;\n        require(!toMaxed || !fromMaxed, \"Spells: both tokens fully mined\");\n        if (!fromMaxed) {\n            es.dust.mint(address(this), from, es.dustMultiplier);\n            ++es.tokenDustMined[from];\n        }\n        if (!toMaxed) {\n            es.dust.mint(address(this), to, es.dustMultiplier);\n            ++es.tokenDustMined[to];\n        }\n    }\n\n    /// @dev Send ERC-5050 action.\n    function sendAction(Action memory action)\n        public\n        payable\n        override\n        onlySendableAction(action)\n    {\n        if (action.from._tokenId > 0) {\n            require(\n                LibERC721AUpgradeable.ownerOf(action.from._tokenId) == action.user,\n                \"Spells: sender does not own token\"\n            );\n            if (\n                action.to._address != address(this) &&\n                action.to._address.isContract()\n            ) {\n                ++SpellsCastStorage.getStorage().contractCasts[action.to._address];\n            }\n        }\n        return _sendAction(action);\n    }\n\n    /// @dev Wraps `sendAction()` for spell casting.\n    function cast(\n        uint256 tokenId,\n        address to,\n        uint256 toTokenId,\n        bytes memory data\n    ) external payable {\n        sendAction(\n            Action(\n                SpellsCastStorage.CAST_SELECTOR(),\n                msg.sender,\n                Object(address(this), tokenId),\n                Object(to, toTokenId),\n                address(0),\n                data\n            )\n        );\n    }\n\n    function onActionReceived(Action calldata action, uint256 _nonce)\n        external\n        payable\n        override\n        onlyReceivableAction(action, _nonce)\n    {\n        require(action.to._tokenId > 0, \"Spells: cast to zero token\");\n        if (action.from._address == address(this)) {\n            require(action.from._tokenId > 0, \"Spells: cast from zero token\");\n            require(\n                action.user != LibERC721AUpgradeable.ownerOf(action.to._tokenId),\n                \"Spells: Must be held by different wallets\"\n            );\n            _mineDust(action.from._tokenId, action.to._tokenId);\n        }\n        _onActionReceived(action, _nonce);\n    }\n}\n",
  "sourcePath": "/Users/alexirobbins/Sites/code/spells/contracts/spells/facets/SpellsActionFacet.sol",
  "compiler": {
    "name": "solc",
    "version": "0.8.15+commit.e14f2714.Emscripten.clang"
  },
  "schemaVersion": "3.4.9",
  "updatedAt": "2022-09-06T22:21:08.935Z",
  "networkType": "ethereum",
  "devdoc": {
    "kind": "dev",
    "methods": {
      "MISCHIEF_MANAGED(address)": {
        "details": "Claim your $DUST from the TYJACKPOT after `tyClaimThreshold` reached."
      },
      "approveForAction(address,bytes4,address)": {
        "details": "The zero address indicates there is no approved address.  Throws unless `msg.sender` is the `_account`, or an authorized  operator of the `_account`.",
        "params": {
          "_account": "The account of the account-action pair to approve",
          "_action": "The action of the account-action pair to approve",
          "_approved": "The new approved account-action controller"
        }
      },
      "cast(uint256,address,uint256,bytes)": {
        "details": "Wraps `sendAction()` for spell casting."
      },
      "getApprovedForAction(address,bytes4)": {
        "details": "Throws if `_tokenId` is not a valid NFT.",
        "params": {
          "_account": "The account of the account-action to find the approved address for",
          "_action": "The action of the account-action to find the approved address for"
        },
        "returns": {
          "_0": "The approved address for this account-action, or the zero address if  there is none"
        }
      },
      "isApprovedController(address,bytes4)": {
        "params": {
          "_action": "The action selector to query against",
          "_controller": "The trusted third party address that can force action handling"
        },
        "returns": {
          "_0": "True if `_controller` is an approved operator for `_account`, false otherwise"
        }
      },
      "isApprovedForAllActions(address,address)": {
        "params": {
          "_account": "The address on whose behalf actions are performed",
          "_operator": "The address that acts on behalf of the account"
        },
        "returns": {
          "_0": "True if `_operator` is an approved operator for `_account`, false otherwise"
        }
      },
      "receivableActions()": {
        "details": "Intended for use by off-chain applications to query compatible contracts."
      },
      "sendAction((bytes4,address,(address,uint256),(address,uint256),address,bytes))": {
        "details": "Send ERC-5050 action."
      },
      "sendableActions()": {
        "details": "Intended for use by off-chain applications to query compatible contracts."
      },
      "setApprovalForAllActions(address,bool)": {
        "details": "Emits the ApprovalForAll event. The contract MUST allow  multiple operators per owner.",
        "params": {
          "_approved": "True if the operator is approved, false to revoke approval",
          "_operator": "Address to add to the set of authorized operators"
        }
      },
      "setControllerApproval(address,bytes4,bool)": {
        "details": "Emits the ControllerApproval event. The contract MUST allow  an unbounded number of controllers per action.",
        "params": {
          "_action": "Selector of the action for which the controller is approved / disapproved",
          "_approved": "True if the controller is approved, false to revoke approval",
          "_controller": "Address to add to the set of authorized controllers"
        }
      },
      "setControllerApprovalForAll(address,bool)": {
        "details": "Emits the ControllerApproval event. The contract MUST allow  an unbounded number of controllers per action.",
        "params": {
          "_approved": "True if the controller is approved, false to revoke approval",
          "_controller": "Address to add to the set of authorized controllers"
        }
      },
      "setTYClaimThreshold(uint256)": {
        "details": "Set the claim threshold for TYJACKPOT."
      }
    },
    "version": 1
  },
  "userdoc": {
    "errors": {
      "OwnerQueryForNonexistentToken()": [
        {
          "notice": "The token does not exist."
        }
      ]
    },
    "kind": "user",
    "methods": {
      "approveForAction(address,bytes4,address)": {
        "notice": "Change or reaffirm the approved address for an action"
      },
      "getApprovedForAction(address,bytes4)": {
        "notice": "Get the approved address for an account-action pair"
      },
      "isApprovedController(address,bytes4)": {
        "notice": "Query if an address is an authorized controller for a given action."
      },
      "isApprovedForAllActions(address,address)": {
        "notice": "Query if an address is an authorized operator for another address"
      },
      "receivableActions()": {
        "notice": "Retrieve list of actions that can be received."
      },
      "sendableActions()": {
        "notice": "Retrieve list of actions that can be sent."
      },
      "setApprovalForAllActions(address,bool)": {
        "notice": "Enable or disable approval for a third party (\"operator\") to conduct  all actions on behalf of `msg.sender`"
      },
      "setControllerApproval(address,bytes4,bool)": {
        "notice": "Enable or disable approval for a third party (\"controller\") to force  handling of a given action without performing EIP-5050 validity checks."
      },
      "setControllerApprovalForAll(address,bool)": {
        "notice": "Enable or disable approval for a third party (\"controller\") to force  action handling without performing EIP-5050 validity checks. "
      }
    },
    "version": 1
  }
}