{
  "contractName": "SpellsRendererFacet",
  "abi": [
    {
      "inputs": [],
      "name": "initializeSpellsRendererFacet",
      "outputs": [],
      "stateMutability": "nonpayable",
      "type": "function"
    },
    {
      "inputs": [
        {
          "internalType": "uint256",
          "name": "tokenId",
          "type": "uint256"
        }
      ],
      "name": "getSpell",
      "outputs": [
        {
          "internalType": "string",
          "name": "name",
          "type": "string"
        },
        {
          "internalType": "string",
          "name": "sigil",
          "type": "string"
        },
        {
          "internalType": "string",
          "name": "incantation",
          "type": "string"
        }
      ],
      "stateMutability": "view",
      "type": "function",
      "constant": true
    },
    {
      "inputs": [
        {
          "internalType": "uint256",
          "name": "tokenId",
          "type": "uint256"
        }
      ],
      "name": "tokenURI",
      "outputs": [
        {
          "internalType": "string",
          "name": "",
          "type": "string"
        }
      ],
      "stateMutability": "view",
      "type": "function",
      "constant": true
    }
  ],
  "bytecode": "0x608060405234801561001057600080fd5b50615621806100206000396000f3fe608060405234801561001057600080fd5b50600436106100415760003560e01c806386cfed9e14610046578063b5913c8414610050578063c87b56dd14610082575b600080fd5b61004e6100b2565b005b61006a600480360381019061006591906141b9565b612611565b6040516100799392919061427f565b60405180910390f35b61009c600480360381019061009791906141b9565b6126a9565b6040516100a991906142cb565b60405180910390f35b6100ba612c56565b60030160009054906101000a900473ffffffffffffffffffffffffffffffffffffffff1673ffffffffffffffffffffffffffffffffffffffff163373ffffffffffffffffffffffffffffffffffffffff16148061014257503073ffffffffffffffffffffffffffffffffffffffff163373ffffffffffffffffffffffffffffffffffffffff16145b610181576040517f08c379a000000000000000000000000000000000000000000000000000000000815260040161017890614339565b60405180910390fd5b600061018b612c83565b905060405180608001604052806040518060400160405280600981526020017f436f6e6a7572696e67000000000000000000000000000000000000000000000081525081526020016040518060400160405280600c81526020017f5472616e73666f726d696e67000000000000000000000000000000000000000081525081526020016040518060400160405280600981526020017f42616e697368696e67000000000000000000000000000000000000000000000081525081526020016040518060400160405280600881526020017f446976696e696e6700000000000000000000000000000000000000000000000081525081525081600001906004610294929190613c46565b506040518060a001604052806040518060400160405280600581526020017f46726f737400000000000000000000000000000000000000000000000000000081525081526020016040518060400160405280600381526020017f417368000000000000000000000000000000000000000000000000000000000081525081526020016040518060400160405280600481526020017f466972650000000000000000000000000000000000000000000000000000000081525081526020016040518060400160405280600681526020017f506f69736f6e000000000000000000000000000000000000000000000000000081525081526020016040518060400160405280600981526020017f4c696768746e696e670000000000000000000000000000000000000000000000815250815250816001019060056103d7929190613c9f565b506040518061012001604052806040518060400160405280600481526020017f576172640000000000000000000000000000000000000000000000000000000081525081526020016040518060400160405280600581526020017f5370696b6500000000000000000000000000000000000000000000000000000081525081526020016040518060400160405280600481526020017f42616e650000000000000000000000000000000000000000000000000000000081525081526020016040518060400160405280600481526020017f426f6c740000000000000000000000000000000000000000000000000000000081525081526020016040518060400160405280600581526020017f436861726d00000000000000000000000000000000000000000000000000000081525081526020016040518060400160405280600481526020017f52756e650000000000000000000000000000000000000000000000000000000081525081526020016040518060400160405280600481526020017f417572610000000000000000000000000000000000000000000000000000000081525081526020016040518060400160405280600581526020017f536861726400000000000000000000000000000000000000000000000000000081525081526020016040518060400160405280600381526020017f457965000000000000000000000000000000000000000000000000000000000081525081525081600201906009610607929190613cf8565b50604051806101a001604052806040518060400160405280600681526020017f417263616e65000000000000000000000000000000000000000000000000000081525081526020016040518060400160405280600881526020017f4265666f756c656400000000000000000000000000000000000000000000000081525081526020016040518060400160405280600781526020017f416e6369656e740000000000000000000000000000000000000000000000000081525081526020016040518060400160405280600681526020017f4275726e6564000000000000000000000000000000000000000000000000000081525081526020016040518060400160405280600781526020017f426c65737365640000000000000000000000000000000000000000000000000081525081526020016040518060400160405280600681526020017f48696464656e000000000000000000000000000000000000000000000000000081525081526020016040518060400160405280600481526020017f4461726b0000000000000000000000000000000000000000000000000000000081525081526020016040518060400160405280600681526020017f466165726965000000000000000000000000000000000000000000000000000081525081526020016040518060400160405280600781526020017f4477617276656e0000000000000000000000000000000000000000000000000081525081526020016040518060400160405280600581526020017f447275696400000000000000000000000000000000000000000000000000000081525081526020016040518060400160405280600781526020017f44656d6f6e69630000000000000000000000000000000000000000000000000081525081526020016040518060400160405280600981526020017f436f72727570746564000000000000000000000000000000000000000000000081525081526020016040518060400160405280600981526020017f43656c65737469616c00000000000000000000000000000000000000000000008152508152508160030190600d610923929190613d51565b506040518061016001604052806040518060400160405280600b81526020017f6f6620566974616c69747900000000000000000000000000000000000000000081525081526020016040518060400160405280600781526020017f6f6620486f70650000000000000000000000000000000000000000000000000081525081526020016040518060400160405280600b81526020017f6f6620446973617374657200000000000000000000000000000000000000000081525081526020016040518060400160405280600881526020017f6f6620446561746800000000000000000000000000000000000000000000000081525081526020016040518060400160405280600d81526020017f6f662074686520556e646561640000000000000000000000000000000000000081525081526020016040518060400160405280600881526020017f6f6620506f77657200000000000000000000000000000000000000000000000081525081526020016040518060400160405280601281526020017f6f6620746865204f75746572205265616c6d000000000000000000000000000081525081526020016040518060400160405280600b81526020017f6f66204f626c6976696f6e00000000000000000000000000000000000000000081525081526020016040518060400160405280600c81526020017f6f6620417363656e73696f6e000000000000000000000000000000000000000081525081526020016040518060400160405280600d81526020017f6f662074686520447261676f6e0000000000000000000000000000000000000081525081526020016040518060400160405280600781526020017f6f662054696d65000000000000000000000000000000000000000000000000008152508152508160040190600b610bc9929190613daa565b506040518060a001604052806040518060e001604052806040518060400160405280600f81526020017f416e7520746865204275696c646572000000000000000000000000000000000081525081526020016040518060400160405280600881526020017f496c75766174617200000000000000000000000000000000000000000000000081525081526020016040518060400160405280600581526020017f4d616e776500000000000000000000000000000000000000000000000000000081525081526020016040518060400160405280600881526020017f54617468616d657400000000000000000000000000000000000000000000000081525081526020016040518060400160405280600481526020017f597461720000000000000000000000000000000000000000000000000000000081525081526020016040518060400160405280600481526020017f547972650000000000000000000000000000000000000000000000000000000081525081526020016040518060400160405280600781526020017f44616c6172616e0000000000000000000000000000000000000000000000000081525081525081526020016040518060e001604052806040518060400160405280601081526020017f4d6f727669616e2074686520426f6c640000000000000000000000000000000081525081526020016040518060400160405280600681526020017f416c61746172000000000000000000000000000000000000000000000000000081525081526020016040518060400160405280600681526020017f5369276d6172000000000000000000000000000000000000000000000000000081525081526020016040518060400160405280600681526020017f566568617269000000000000000000000000000000000000000000000000000081525081526020016040518060400160405280600781526020017f4d6173696172610000000000000000000000000000000000000000000000000081525081526020016040518060400160405280600681526020017f4c6f7269656e000000000000000000000000000000000000000000000000000081525081526020016040518060400160405280600481526020017f56616e610000000000000000000000000000000000000000000000000000000081525081525081526020016040518060e001604052806040518060400160405280600f81526020017f5361726c6f6e20746865204c6f7374000000000000000000000000000000000081525081526020016040518060400160405280600881526020017f496c75766174617200000000000000000000000000000000000000000000000081525081526020016040518060400160405280600681526020017f476f6c726167000000000000000000000000000000000000000000000000000081525081526020016040518060400160405280600681526020017f4973686e616b000000000000000000000000000000000000000000000000000081525081526020016040518060400160405280600681526020017f5272617a756c000000000000000000000000000000000000000000000000000081525081526020016040518060400160405280600681526020017f4d656c6b6f72000000000000000000000000000000000000000000000000000081525081526020016040518060400160405280600581526020017f536b6f6c6c00000000000000000000000000000000000000000000000000000081525081525081526020016040518060e001604052806040518060400160405280601381526020017f4772616172646f72207468652042726f6b656e0000000000000000000000000081525081526020016040518060400160405280600581526020017f546f72766100000000000000000000000000000000000000000000000000000081525081526020016040518060400160405280600681526020017f496c6d617265000000000000000000000000000000000000000000000000000081525081526020016040518060400160405280600781526020017f4a6168617272610000000000000000000000000000000000000000000000000081525081526020016040518060400160405280600781526020017f54616d66616e610000000000000000000000000000000000000000000000000081525081526020016040518060400160405280600981526020017f4b7265652761727261000000000000000000000000000000000000000000000081525081526020016040518060400160405280600381526020017f567972000000000000000000000000000000000000000000000000000000000081525081525081526020016040518060e001604052806040518060400160405280601581526020017f5a6174686d6574207468652044657374726f796572000000000000000000000081525081526020016040518060400160405280601081526020017f4b2772696c20547375747361726f74680000000000000000000000000000000081525081526020016040518060400160405280600f81526020017f47656e6572616c205a696c79616e61000000000000000000000000000000000081525081526020016040518060400160405280600881526020017fc38673636865726500000000000000000000000000000000000000000000000081525081526020016040518060400160405280600881526020017f48756e666572746800000000000000000000000000000000000000000000000081525081526020016040518060400160405280600681526020017f54756c6b6173000000000000000000000000000000000000000000000000000081525081526020016040518060400160405280600481526020017f41726177000000000000000000000000000000000000000000000000000000008152508152508152508160050190600561143c929190613e03565b506040518060e001604052806040518060400160405280601181526020017f46617a7572616820746865204368696c6400000000000000000000000000000081525081526020016040518060400160405280600d81526020017f5368616e6172206f66205679720000000000000000000000000000000000000081525081526020016040518060400160405280600781526020017f467279646568720000000000000000000000000000000000000000000000000081525081526020016040518060400160405280600681526020017f4f74686d6563000000000000000000000000000000000000000000000000000081525081526020016040518060400160405280600681526020017f486173686972000000000000000000000000000000000000000000000000000081525081526020016040518060400160405280600581526020017f4e656d6f6300000000000000000000000000000000000000000000000000000081525081526020016040518060400160405280600381526020017f4a696e0000000000000000000000000000000000000000000000000000000000815250815250816006019060076115f5929190613e5e565b506040518060e001604052806040518060400160405280600381526020017fe29cbf000000000000000000000000000000000000000000000000000000000081525081526020016040518060400160405280600281526020017fdfb700000000000000000000000000000000000000000000000000000000000081525081526020016040518060400160405280600381526020017fe29c9c000000000000000000000000000000000000000000000000000000000081525081526020016040518060400160405280600381526020017fe28fbe000000000000000000000000000000000000000000000000000000000081525081526020016040518060400160405280600381526020017fe2988d000000000000000000000000000000000000000000000000000000000081525081526020016040518060400160405280600381526020017fe2aca8000000000000000000000000000000000000000000000000000000000081525081526020016040518060400160405280600381526020017fe299960000000000000000000000000000000000000000000000000000000000815250815250816007019060076117ae929190613e5e565b506040518060a001604052806040518060400160405280600381526020017fe28d9d000000000000000000000000000000000000000000000000000000000081525081526020016040518060400160405280600481526020017ff09d87890000000000000000000000000000000000000000000000000000000081525081526020016040518060400160405280600281526020017fd09600000000000000000000000000000000000000000000000000000000000081525081526020016040518060400160405280600381526020017fe0ba9a000000000000000000000000000000000000000000000000000000000081525081526020016040518060400160405280600381526020017fe29eb60000000000000000000000000000000000000000000000000000000000815250815250816008019060056118f1929190613c9f565b506040518060c0016040528060405180604001604052806040518060400160405280600381526020017fe29cb9000000000000000000000000000000000000000000000000000000000081525081526020016040518060400160405280600381526020017fe29d8b0000000000000000000000000000000000000000000000000000000000815250815250815260200160405180604001604052806040518060400160405280600281526020017fd2b900000000000000000000000000000000000000000000000000000000000081525081526020016040518060400160405280600381526020017fe28cbb0000000000000000000000000000000000000000000000000000000000815250815250815260200160405180604001604052806040518060400160405280600481526020017ff09d84900000000000000000000000000000000000000000000000000000000081525081526020016040518060400160405280600381526020017fe29c9d0000000000000000000000000000000000000000000000000000000000815250815250815260200160405180604001604052806040518060400160405280600281526020017fd08a00000000000000000000000000000000000000000000000000000000000081525081526020016040518060400160405280600481526020017ff09f97a000000000000000000000000000000000000000000000000000000000815250815250815260200160405180604001604052806040518060400160405280600381526020017fe28b8e000000000000000000000000000000000000000000000000000000000081525081526020016040518060400160405280600381526020017fe28b8f0000000000000000000000000000000000000000000000000000000000815250815250815260200160405180604001604052806040518060400160405280600381526020017fe28b94000000000000000000000000000000000000000000000000000000000081525081526020016040518060400160405280600381526020017fe28e9b000000000000000000000000000000000000000000000000000000000081525081525081525081600901906006611c25929190613eb7565b50604051806103c001604052806040518060400160405280600381526020017f616461000000000000000000000000000000000000000000000000000000000081525081526020016040518060400160405280600681526020017f6165696c696e000000000000000000000000000000000000000000000000000081525081526020016040518060400160405280600581526020017f617661726900000000000000000000000000000000000000000000000000000081525081526020016040518060400160405280600581526020017f626172616400000000000000000000000000000000000000000000000000000081525081526020016040518060400160405280600581526020017f627269746800000000000000000000000000000000000000000000000000000081525081526020016040518060400160405280600881526020017f646f6cd0be726f7300000000000000000000000000000000000000000000000081525081526020016040518060400160405280600781526020017f63616c6dd197740000000000000000000000000000000000000000000000000081525081526020016040518060400160405280600381526020017f63c3ba000000000000000000000000000000000000000000000000000000000081525081526020016040518060400160405280600481526020017f64d0be6c0000000000000000000000000000000000000000000000000000000081525081526020016040518060400160405280600481526020017f6475696e0000000000000000000000000000000000000000000000000000000081525081526020016040518060400160405280600281526020017fc3ba00000000000000000000000000000000000000000000000000000000000081525081526020016040518060400160405280600681526020017f656c656e7961000000000000000000000000000000000000000000000000000081525081526020016040518060400160405280600281526020017f657200000000000000000000000000000000000000000000000000000000000081525081526020016040518060400160405280600781526020017f65746875d1976c0000000000000000000000000000000000000000000000000081525081526020016040518060400160405280600681526020017fe1ba9b6f726e000000000000000000000000000000000000000000000000000081525081526020016040518060400160405280600781526020017f676fe1b8b7696e0000000000000000000000000000000000000000000000000081525081526020016040518060400160405280600581526020017f6769e1b8b700000000000000000000000000000000000000000000000000000081525081526020016040518060400160405280600981526020017fe1b8bf69e1b9856173000000000000000000000000000000000000000000000081525081526020016040518060400160405280600581526020017f6e61e1b8b700000000000000000000000000000000000000000000000000000081525081526020016040518060400160405280600781526020017fe1b985756d656e0000000000000000000000000000000000000000000000000081525081526020016040518060400160405280600381526020017f6e6f63000000000000000000000000000000000000000000000000000000000081525081526020016040518060400160405280600981526020017f6f726f647275d1976e000000000000000000000000000000000000000000000081525081526020016040518060400160405280600381526020017f706172000000000000000000000000000000000000000000000000000000000081525081526020016040518060400160405280600681526020017f73d1976c616e000000000000000000000000000000000000000000000000000081525081526020016040518060400160405280600681526020017f7175656e6469000000000000000000000000000000000000000000000000000081525081526020016040518060400160405280600581526020017f7469e1b98500000000000000000000000000000000000000000000000000000081525081526020016040518060400160405280600781526020017f7468616c6961730000000000000000000000000000000000000000000000000081525081526020016040518060400160405280600481526020017f76d0be730000000000000000000000000000000000000000000000000000000081525081526020016040518060400160405280600381526020017f73696e000000000000000000000000000000000000000000000000000000000081525081526020016040518060400160405280600481526020017f63d0be730000000000000000000000000000000000000000000000000000000081525081525081600a0190601e61232c929190613f12565b506040518061018001604052806040518060400160405280600381526020017fe280a4000000000000000000000000000000000000000000000000000000000081525081526020016040518060400160405280600381526020017fe280a4000000000000000000000000000000000000000000000000000000000081525081526020016040518060400160405280600381526020017fe280a4000000000000000000000000000000000000000000000000000000000081525081526020016040518060400160405280600381526020017fe280a4000000000000000000000000000000000000000000000000000000000081525081526020016040518060400160405280600381526020017fe288b4000000000000000000000000000000000000000000000000000000000081525081526020016040518060400160405280600381526020017fe288b4000000000000000000000000000000000000000000000000000000000081525081526020016040518060400160405280600381526020017fe288b4000000000000000000000000000000000000000000000000000000000081525081526020016040518060400160405280600181526020017f600000000000000000000000000000000000000000000000000000000000000081525081526020016040518060400160405280600181526020017f600000000000000000000000000000000000000000000000000000000000000081525081526020016040518060400160405280600281526020017fd2b900000000000000000000000000000000000000000000000000000000000081525081526020016040518060400160405280600381526020017fe28195000000000000000000000000000000000000000000000000000000000081525081526020016040518060400160405280600281526020017fc2ba00000000000000000000000000000000000000000000000000000000000081525081525081600b0190600c61260d929190613f6b565b5050565b606080606061261e613fc4565b61262785612cb0565b8093508195508296505050508060006003811061264757612646614359565b5b6020020151816001600381106126605761265f614359565b5b60200201518260026003811061267957612678614359565b5b602002015160405160200161269093929190614410565b6040516020818303038152906040529150509193909250565b60608060606126b6613fc4565b6126bf85612cb0565b80935081945082955050505060006126d56135b0565b905060008160000160009054906101000a900473ffffffffffffffffffffffffffffffffffffffff1673ffffffffffffffffffffffffffffffffffffffff1662fdd58e30896040518363ffffffff1660e01b81526004016127379291906144a7565b602060405180830381865afa158015612754573d6000803e3d6000fd5b505050506040513d601f19601f8201168201806040525081019061277891906144e5565b9050600061279988670de0b6b3a7640000846127949190614570565b6135dd565b90506127a3613feb565b604051806101e001604052806101a9815260200161531d6101a99139816000600c81106127d3576127d2614359565b5b602002018190525086816001600c81106127f0576127ef614359565b5b60200201819052506040518060600160405280602e81526020016154c6602e9139816002600c811061282557612824614359565b5b60200201819052508460006003811061284157612840614359565b5b6020020151816003600c811061285a57612859614359565b5b60200201819052506040518060600160405280602e81526020016155be602e9139816004600c811061288f5761288e614359565b5b6020020181905250846001600381106128ab576128aa614359565b5b6020020151816005600c81106128c4576128c3614359565b5b60200201819052506040518060600160405280602e8152602001615590602e9139816006600c81106128f9576128f8614359565b5b60200201819052508460026003811061291557612914614359565b5b6020020151816007600c811061292e5761292d614359565b5b602002018190525060405180606001604052806030815260200161552060309139816008600c811061296357612962614359565b5b602002018190525085816009600c81106129805761297f614359565b5b60200201819052506040518060600160405280602c81526020016154f4602c913981600a600c81106129b5576129b4614359565b5b60200201819052506040518060200160405280600081525081600b600c81106129e1576129e0614359565b5b60200201819052506000816000600c81106129ff576129fe614359565b5b6020020151826001600c8110612a1857612a17614359565b5b6020020151836002600c8110612a3157612a30614359565b5b6020020151846003600c8110612a4a57612a49614359565b5b6020020151856004600c8110612a6357612a62614359565b5b6020020151866005600c8110612a7c57612a7b614359565b5b6020020151876006600c8110612a9557612a94614359565b5b6020020151886007600c8110612aae57612aad614359565b5b6020020151896008600c8110612ac757612ac6614359565b5b60200201518a6009600c8110612ae057612adf614359565b5b60200201518b600a600c8110612af957612af8614359565b5b60200201518c600b600c8110612b1257612b11614359565b5b6020020151604051602001612b329c9b9a999897969594939291906145a1565b604051602081830303815290604052905060005b6010811015612bbf5781612b716091600a84612b629190614647565b612b6c91906146a1565b61387f565b858360108110612b8457612b83614359565b5b6020020151604051602001612b9b9392919061478f565b60405160208183030381529060405291508080612bb7906147d6565b915050612b46565b81604051602001612bd0919061486a565b60405160208183030381529060405291506000612c208a612bf0856139df565b612bfa8c8a613b76565b604051602001612c0c93929190614b0d565b6040516020818303038152906040526139df565b905080604051602001612c339190614bb6565b6040516020818303038152906040529250829a5050505050505050505050919050565b6000807fc8fcad8db84d3cc18b4c41d551ea0ee66dd599cde068d998e57d5e09332c131c90508091505090565b6000807fc39db260b53c6c0ab69b925b1455f79759465f193c204113fa7a1bc7f049204090508091505090565b606080612cbb613fc4565b6000612cc5612c83565b90506000612cd16135b0565b90506000612cde87613baa565b90506000600382612cef9190614bd8565b90506000601583612d009190614bd8565b905060008460030160008b81526020019081526020016000205490506001831015612db05785600101866001018054905085612d3c9190614bd8565b81548110612d4d57612d4c614359565b5b9060005260206000200186600201876002018054905086612d6e9190614bd8565b81548110612d7f57612d7e614359565b5b90600052602060002001604051602001612d9a929190614d01565b6040516020818303038152906040529850612e37565b85600001866000018054905085612dc79190614bd8565b81548110612dd857612dd7614359565b5b9060005260206000200186600201876002018054905086612df99190614bd8565b81548110612e0a57612e09614359565b5b90600052602060002001604051602001612e25929190614d01565b60405160208183030381529060405298505b600e82118015612e5457506000600383612e519190614bd8565b14155b15612eaf5785600301866003018054905085612e709190614bd8565b81548110612e8157612e80614359565b5b9060005260206000200189604051602001612e9d929190614d30565b60405160208183030381529060405298505b60108210158015612ecc57506000600283612eca9190614bd8565b145b15612f27578886600401876004018054905086612ee99190614bd8565b81548110612efa57612ef9614359565b5b90600052602060002001604051602001612f15929190614d5f565b60405160208183030381529060405298505b85600701866007018054905085612f3e9190614bd8565b81548110612f4f57612f4e614359565b5b906000526020600020018054612f6490614c38565b80601f0160208091040260200160405190810160405280929190818152602001828054612f9090614c38565b8015612fdd5780601f10612fb257610100808354040283529160200191612fdd565b820191906000526020600020905b815481529060010190602001808311612fc057829003601f168201915b5050505050975060008111156130a55785600801600182612ffe9190614d8e565b8154811061300f5761300e614359565b5b90600052602060002001805461302490614c38565b80601f016020809104026020016040519081016040528092919081815260200182805461305090614c38565b801561309d5780601f106130725761010080835404028352916020019161309d565b820191906000526020600020905b81548152906001019060200180831161308057829003601f168201915b505050505097505b601282101580156130c2575060006002856130c09190614bd8565b145b15613384576130db600385613bd090919063ffffffff16565b93506000810361313f57856006018660060180549050856130fc9190614bd8565b8154811061310d5761310c614359565b5b9060005260206000200189604051602001613129929190614e0e565b60405160208183030381529060405298506131e5565b856005016001826131509190614d8e565b8154811061316157613160614359565b5b906000526020600020018660050160018361317c9190614d8e565b8154811061318d5761318c614359565b5b9060005260206000200180549050856131a69190614bd8565b815481106131b7576131b6614359565b5b90600052602060002001896040516020016131d3929190614e0e565b60405160208183030381529060405298505b601482036132ba5785600901818154811061320357613202614359565b5b906000526020600020016001815481106132205761321f614359565b5b90600052602060002001805461323590614c38565b80601f016020809104026020016040519081016040528092919081815260200182805461326190614c38565b80156132ae5780601f10613283576101008083540402835291602001916132ae565b820191906000526020600020905b81548152906001019060200180831161329157829003601f168201915b50505050509750613383565b8560090181815481106132d0576132cf614359565b5b906000526020600020016000815481106132ed576132ec614359565b5b90600052602060002001805461330290614c38565b80601f016020809104026020016040519081016040528092919081815260200182805461332e90614c38565b801561337b5780601f106133505761010080835404028352916020019161337b565b820191906000526020600020905b81548152906001019060200180831161335e57829003601f168201915b505050505097505b5b61338d89613be6565b93506000601083111561339f57600590505b8060046007876133af9190614bd8565b6133b991906146a1565b6133c391906146a1565b9050600080600091505b828210156135a0576133f46001836133e591906146a1565b88613bd090919063ffffffff16565b965061340a600583613bd090919063ffffffff16565b905060008a826003811061342157613420614359565b5b602002015151036135075788600a0189600a0180549050886134439190614bd8565b8154811061345457613453614359565b5b90600052602060002001805461346990614c38565b80601f016020809104026020016040519081016040528092919081815260200182805461349590614c38565b80156134e25780601f106134b7576101008083540402835291602001916134e2565b820191906000526020600020905b8154815290600101906020018083116134c557829003601f168201915b50505050508a82600381106134fa576134f9614359565b5b602002018190525061358d565b89816003811061351a57613519614359565b5b602002015189600a018a600a0180549050896135369190614bd8565b8154811061354757613546614359565b5b90600052602060002001604051602001613562929190614d5f565b6040516020818303038152906040528a826003811061358457613583614359565b5b60200201819052505b8180613598906147d6565b9250506133cd565b5050505050505050509193909250565b6000807fc0de19833efd7d5b09ceaad2cd6f95a78a4885115f30489321bc7bfaae8c6cc290508091505090565b6135e5614013565b6135ed614013565b60006135f885613baa565b9050602184111561360857602193505b6000806000613615612c83565b905061361f61403b565b600093505b878410156136ea576000816101008761363d9190614bd8565b610100811061364f5761364e614359565b5b6020020151116136a757600182600b01805490508661366e9190614bd8565b61367891906146a1565b81610100876136879190614bd8565b610100811061369957613698614359565b5b6020020181815250506136b6565b83806136b290614e3d565b9450505b6136d56003856136c691906146a1565b86613bd090919063ffffffff16565b945083806136e2906147d6565b945050613624565b60008094505b601085101561386f57600093505b601084101561385c5781846010876137169190614647565b61372091906146a1565b610100811061373257613731614359565b5b6020020151905060008111156137f65786856010811061375557613754614359565b5b602002015183600b0160018361376b9190614d8e565b8154811061377c5761377b614359565b5b90600052602060002001604051602001613797929190614e66565b6040516020818303038152906040528786601081106137b9576137b8614359565b5b602002018190525060018485876137d09190614647565b6137da91906146a1565b6137e491906146a1565b866137ef91906146a1565b9550613849565b86856010811061380957613808614359565b5b602002015160405160200161381e9190614ed6565b6040516020818303038152906040528786601081106138405761383f614359565b5b60200201819052505b8380613854906147d6565b9450506136fe565b8480613867906147d6565b9550506136f0565b8697505050505050505092915050565b6060600082036138c6576040518060400160405280600181526020017f300000000000000000000000000000000000000000000000000000000000000081525090506139da565b600082905060005b600082146138f85780806138e1906147d6565b915050600a826138f19190614570565b91506138ce565b60008167ffffffffffffffff81111561391457613913614ef8565b5b6040519080825280601f01601f1916602001820160405280156139465781602001600182028036833780820191505090505b5090505b600085146139d35760018261395f9190614d8e565b9150600a8561396e9190614bd8565b603061397a91906146a1565b60f81b8183815181106139905761398f614359565b5b60200101907effffffffffffffffffffffffffffffffffffffffffffffffffffffffffffff1916908160001a905350600a856139cc9190614570565b945061394a565b8093505050505b919050565b606060008251905060008103613a075760405180602001604052806000815250915050613b71565b60006003600283613a1891906146a1565b613a229190614570565b6004613a2e9190614647565b90506000602082613a3f91906146a1565b67ffffffffffffffff811115613a5857613a57614ef8565b5b6040519080825280601f01601f191660200182016040528015613a8a5781602001600182028036833780820191505090505b5090506000604051806060016040528060408152602001615550604091399050600181016020830160005b86811015613b2e5760038101905062ffffff818a015116603f8160121c168401518060081b905060ff603f83600c1c1686015116810190508060081b905060ff603f8360061c1686015116810190508060081b905060ff603f831686015116810190508060e01b90508084526004840193505050613ab5565b506003860660018114613b485760028114613b5857613b63565b613d3d60f01b6002830352613b63565b603d60f81b60018303525b508484525050819450505050505b919050565b606082613b828361387f565b604051602001613b93929190615057565b604051602081830303815290604052905092915050565b6000613bb4613c19565b6005016000838152602001908152602001600020549050919050565b60008183613bde9190614570565b905092915050565b600081604051602001613bf9919061509c565b6040516020818303038152906040528051906020012060001c9050919050565b6000807f32b2e02f32560e257eaad13ed8a4f0ffa175bcb89327c67da202bdcd5579cc1290508091505090565b828054828255906000526020600020908101928215613c8e579160200282015b82811115613c8d578251829081613c7d919061524a565b5091602001919060010190613c66565b5b509050613c9b919061405f565b5090565b828054828255906000526020600020908101928215613ce7579160200282015b82811115613ce6578251829081613cd6919061524a565b5091602001919060010190613cbf565b5b509050613cf4919061405f565b5090565b828054828255906000526020600020908101928215613d40579160200282015b82811115613d3f578251829081613d2f919061524a565b5091602001919060010190613d18565b5b509050613d4d919061405f565b5090565b828054828255906000526020600020908101928215613d99579160200282015b82811115613d98578251829081613d88919061524a565b5091602001919060010190613d71565b5b509050613da6919061405f565b5090565b828054828255906000526020600020908101928215613df2579160200282015b82811115613df1578251829081613de1919061524a565b5091602001919060010190613dca565b5b509050613dff919061405f565b5090565b828054828255906000526020600020908101928215613e4d579160200282015b82811115613e4c57825182906007613e3c929190613e5e565b5091602001919060010190613e23565b5b509050613e5a9190614083565b5090565b828054828255906000526020600020908101928215613ea6579160200282015b82811115613ea5578251829081613e95919061524a565b5091602001919060010190613e7e565b5b509050613eb3919061405f565b5090565b828054828255906000526020600020908101928215613f01579160200282015b82811115613f0057825182906002613ef09291906140a7565b5091602001919060010190613ed7565b5b509050613f0e9190614083565b5090565b828054828255906000526020600020908101928215613f5a579160200282015b82811115613f59578251829081613f49919061524a565b5091602001919060010190613f32565b5b509050613f67919061405f565b5090565b828054828255906000526020600020908101928215613fb3579160200282015b82811115613fb2578251829081613fa2919061524a565b5091602001919060010190613f8b565b5b509050613fc0919061405f565b5090565b60405180606001604052806003905b6060815260200190600190039081613fd35790505090565b604051806101800160405280600c905b6060815260200190600190039081613ffb5790505090565b6040518061020001604052806010905b60608152602001906001900390816140235790505090565b60405180612000016040528061010090602082028036833780820191505090505090565b5b8082111561407f57600081816140769190614100565b50600101614060565b5090565b5b808211156140a3576000818161409a9190614140565b50600101614084565b5090565b8280548282559060005260206000209081019282156140ef579160200282015b828111156140ee5782518290816140de919061524a565b50916020019190600101906140c7565b5b5090506140fc919061405f565b5090565b50805461410c90614c38565b6000825580601f1061411e575061413d565b601f01602090049060005260206000209081019061413c9190614161565b5b50565b508054600082559060005260206000209081019061415e919061405f565b50565b5b8082111561417a576000816000905550600101614162565b5090565b600080fd5b6000819050919050565b61419681614183565b81146141a157600080fd5b50565b6000813590506141b38161418d565b92915050565b6000602082840312156141cf576141ce61417e565b5b60006141dd848285016141a4565b91505092915050565b600081519050919050565b600082825260208201905092915050565b60005b83811015614220578082015181840152602081019050614205565b8381111561422f576000848401525b50505050565b6000601f19601f8301169050919050565b6000614251826141e6565b61425b81856141f1565b935061426b818560208601614202565b61427481614235565b840191505092915050565b600060608201905081810360008301526142998186614246565b905081810360208301526142ad8185614246565b905081810360408301526142c18184614246565b9050949350505050565b600060208201905081810360008301526142e58184614246565b905092915050565b7f4e4f545f414c4c4f574544000000000000000000000000000000000000000000600082015250565b6000614323600b836141f1565b915061432e826142ed565b602082019050919050565b6000602082019050818103600083015261435281614316565b9050919050565b7f4e487b7100000000000000000000000000000000000000000000000000000000600052603260045260246000fd5b600081905092915050565b600061439e826141e6565b6143a88185614388565b93506143b8818560208601614202565b80840191505092915050565b7f2000000000000000000000000000000000000000000000000000000000000000600082015250565b60006143fa600183614388565b9150614405826143c4565b600182019050919050565b600061441c8286614393565b9150614427826143ed565b91506144338285614393565b915061443e826143ed565b915061444a8284614393565b9150819050949350505050565b600073ffffffffffffffffffffffffffffffffffffffff82169050919050565b600061448282614457565b9050919050565b61449281614477565b82525050565b6144a181614183565b82525050565b60006040820190506144bc6000830185614489565b6144c96020830184614498565b9392505050565b6000815190506144df8161418d565b92915050565b6000602082840312156144fb576144fa61417e565b5b6000614509848285016144d0565b91505092915050565b7f4e487b7100000000000000000000000000000000000000000000000000000000600052601260045260246000fd5b7f4e487b7100000000000000000000000000000000000000000000000000000000600052601160045260246000fd5b600061457b82614183565b915061458683614183565b92508261459657614595614512565b5b828204905092915050565b60006145ad828f614393565b91506145b9828e614393565b91506145c5828d614393565b91506145d1828c614393565b91506145dd828b614393565b91506145e9828a614393565b91506145f58289614393565b91506146018288614393565b915061460d8287614393565b91506146198286614393565b91506146258285614393565b91506146318284614393565b91508190509d9c50505050505050505050505050565b600061465282614183565b915061465d83614183565b9250817fffffffffffffffffffffffffffffffffffffffffffffffffffffffffffffffff048311821515161561469657614695614541565b5b828202905092915050565b60006146ac82614183565b91506146b783614183565b9250827fffffffffffffffffffffffffffffffffffffffffffffffffffffffffffffffff038211156146ec576146eb614541565b5b828201905092915050565b7f3c2f746578743e3c7465787420783d2232302220793d22000000000000000000600082015250565b600061472d601783614388565b9150614738826146f7565b601782019050919050565b7f2220636c6173733d2262617365206368616e742064757374223e000000000000600082015250565b6000614779601a83614388565b915061478482614743565b601a82019050919050565b600061479b8286614393565b91506147a682614720565b91506147b28285614393565b91506147bd8261476c565b91506147c98284614393565b9150819050949350505050565b60006147e182614183565b91507fffffffffffffffffffffffffffffffffffffffffffffffffffffffffffffffff820361481357614812614541565b5b600182019050919050565b7f3c2f746578743e3c2f7376673e00000000000000000000000000000000000000600082015250565b6000614854600d83614388565b915061485f8261481e565b600d82019050919050565b60006148768284614393565b915061488182614847565b915081905092915050565b7f7b226e616d65223a202200000000000000000000000000000000000000000000600082015250565b60006148c2600a83614388565b91506148cd8261488c565b600a82019050919050565b7f222c20226465736372697074696f6e223a20225370656c6c732069732072616e60008201527f646f6d697a6564206d616769632067656e65726174656420616e642073746f7260208201527f6564206f6e20636861696e2e2053746174732c20696d616765732c20616e642060408201527f6f746865722066756e6374696f6e616c6974792061726520696e74656e74696f60608201527f6e616c6c79206f6d697474656420666f72206f746865727320746f20696e746560808201527f72707265742e204665656c206672656520746f20757365205370656c6c73206960a08201527f6e20616e792077617920796f752077616e742e222c2022696d616765223a202260c08201527f646174613a696d6167652f7376672b786d6c3b6261736536342c00000000000060e082015250565b6000614a1860fa83614388565b9150614a23826148d8565b60fa82019050919050565b7f222c202261747472696275746573223a00000000000000000000000000000000600082015250565b6000614a64601083614388565b9150614a6f82614a2e565b601082019050919050565b600081519050919050565b600081905092915050565b6000614a9b82614a7a565b614aa58185614a85565b9350614ab5818560208601614202565b80840191505092915050565b7f7d00000000000000000000000000000000000000000000000000000000000000600082015250565b6000614af7600183614388565b9150614b0282614ac1565b600182019050919050565b6000614b18826148b5565b9150614b248286614393565b9150614b2f82614a0b565b9150614b3b8285614393565b9150614b4682614a57565b9150614b528284614a90565b9150614b5d82614aea565b9150819050949350505050565b7f646174613a6170706c69636174696f6e2f6a736f6e3b6261736536342c000000600082015250565b6000614ba0601d83614388565b9150614bab82614b6a565b601d82019050919050565b6000614bc182614b93565b9150614bcd8284614393565b915081905092915050565b6000614be382614183565b9150614bee83614183565b925082614bfe57614bfd614512565b5b828206905092915050565b7f4e487b7100000000000000000000000000000000000000000000000000000000600052602260045260246000fd5b60006002820490506001821680614c5057607f821691505b602082108103614c6357614c62614c09565b5b50919050565b60008190508160005260206000209050919050565b60008154614c8b81614c38565b614c958186614388565b94506001821660008114614cb05760018114614cc557614cf8565b60ff1983168652811515820286019350614cf8565b614cce85614c69565b60005b83811015614cf057815481890152600182019150602081019050614cd1565b838801955050505b50505092915050565b6000614d0d8285614c7e565b9150614d18826143ed565b9150614d248284614c7e565b91508190509392505050565b6000614d3c8285614c7e565b9150614d47826143ed565b9150614d538284614393565b91508190509392505050565b6000614d6b8285614393565b9150614d76826143ed565b9150614d828284614c7e565b91508190509392505050565b6000614d9982614183565b9150614da483614183565b925082821015614db757614db6614541565b5b828203905092915050565b7f2773200000000000000000000000000000000000000000000000000000000000600082015250565b6000614df8600383614388565b9150614e0382614dc2565b600382019050919050565b6000614e1a8285614c7e565b9150614e2582614deb565b9150614e318284614393565b91508190509392505050565b6000614e4882614183565b915060008203614e5b57614e5a614541565b5b600182039050919050565b6000614e728285614393565b9150614e7e8284614c7e565b91508190509392505050565b7fc2a0000000000000000000000000000000000000000000000000000000000000600082015250565b6000614ec0600283614388565b9150614ecb82614e8a565b600282019050919050565b6000614ee28284614393565b9150614eed82614eb3565b915081905092915050565b7f4e487b7100000000000000000000000000000000000000000000000000000000600052604160045260246000fd5b7f5b7b2274726169745f74797065223a22536967696c222c202276616c7565223a60008201527f2022000000000000000000000000000000000000000000000000000000000000602082015250565b6000614f83602283614388565b9150614f8e82614f27565b602282019050919050565b7f227d2c7b2274726169745f74797065223a2244757374222c202276616c75652260008201527f3a00000000000000000000000000000000000000000000000000000000000000602082015250565b6000614ff5602183614388565b915061500082614f99565b602182019050919050565b7f7d5d000000000000000000000000000000000000000000000000000000000000600082015250565b6000615041600283614388565b915061504c8261500b565b600282019050919050565b600061506282614f76565b915061506e8285614393565b915061507982614fe8565b91506150858284614393565b915061509082615034565b91508190509392505050565b60006150a88284614393565b915081905092915050565b60006020601f8301049050919050565b600082821b905092915050565b6000600883026151007fffffffffffffffffffffffffffffffffffffffffffffffffffffffffffffffff826150c3565b61510a86836150c3565b95508019841693508086168417925050509392505050565b6000819050919050565b600061514761514261513d84614183565b615122565b614183565b9050919050565b6000819050919050565b6151618361512c565b61517561516d8261514e565b8484546150d0565b825550505050565b600090565b61518a61517d565b615195818484615158565b505050565b5b818110156151b9576151ae600082615182565b60018101905061519b565b5050565b601f8211156151fe576151cf81614c69565b6151d8846150b3565b810160208510156151e7578190505b6151fb6151f3856150b3565b83018261519a565b50505b505050565b600082821c905092915050565b600061522160001984600802615203565b1980831691505092915050565b600061523a8383615210565b9150826002028217905092915050565b615253826141e6565b67ffffffffffffffff81111561526c5761526b614ef8565b5b6152768254614c38565b6152818282856151bd565b600060209050601f8311600181146152b457600084156152a2578287015190505b6152ac858261522e565b865550615314565b601f1984166152c286614c69565b60005b828110156152ea578489015182556001820191506020850194506020810190506152c5565b868310156153075784890151615303601f891682615210565b8355505b6001600288020188555050505b50505050505056fe3c73766720786d6c6e733d22687474703a2f2f7777772e77332e6f72672f323030302f73766722207072657365727665417370656374526174696f3d22784d696e594d696e206d656574222076696577426f783d223020302034303020333530223e3c7374796c653e2e62617365207b2066696c6c3a206c6967687479656c6c6f773b20666f6e742d66616d696c793a2073657269663b20666f6e742d73697a653a20313470783b207d202e6368616e74207b20666f6e742d7374796c653a206974616c69633b7d202e64757374207b666f6e742d66616d696c793a206d6f6e6f73706163653b20666f6e742d73697a653a203870783b206c65747465722d73706163696e673a3570783b7d2e736d7b666f6e742d73697a653a20313070783b7d202e736967696c7b666f6e742d66616d696c793a206d6f6e6f73706163652c20666f6e742d73697a653a31337d3c2f7374796c653e3c726563742077696474683d223130302522206865696768743d2231303025222066696c6c3d222331373137313722202f3e3c7465787420783d2231342220793d2232342220636c6173733d2262617365223e3c2f746578743e3c7465787420783d2231342220793d2234352220636c6173733d2262617365206368616e74223e3c2f746578743e3c7465787420783d2231302220793d223334302220636c6173733d226261736520736d223e3c2f746578743e3c7465787420783d223337362220793d223333362220636c6173733d226261736520736967696c223e4142434445464748494a4b4c4d4e4f505152535455565758595a6162636465666768696a6b6c6d6e6f707172737475767778797a303132333435363738392b2f3c2f746578743e3c7465787420783d2231342220793d2238352220636c6173733d2262617365206368616e74223e3c2f746578743e3c7465787420783d2231342220793d2236352220636c6173733d2262617365206368616e74223ea2646970667358221220ccdb77482d3951d4da9d9422318c8ea8ee41c8bcf8f054a15af878895268ee8164736f6c634300080f0033",
  "immutableReferences": {},
  "source": "// SPDX-License-Identifier: MIT\npragma solidity ^0.8.4;\n\nimport \"@openzeppelin/contracts/utils/Strings.sol\";\nimport \"@openzeppelin/contracts/utils/math/SafeMath.sol\";\n\nimport \"./shared/access/CallProtection.sol\";\nimport \"../../dust/IDust.sol\";\nimport \"../../helpers/Base64.sol\";\nimport \"../libraries/LibDiamond.sol\";\n\nimport \"./SpellsCastStorage.sol\";\nimport \"./SpellsStorage.sol\";\n\nlibrary SpellsRendererStorage {\n    bytes32 constant SPELLS_RENDER_STORAGE_POSITION =\n        keccak256(\"spells.render.location\");\n\n    struct Storage {\n        string[] kind;\n        string[] element;\n        string[] spell;\n        string[] prefixes;\n        string[] suffixes;\n        string[][] gods;\n        string[] demigods;\n        string[] sigils;\n        string[] gateSigils;\n        string[][] legendarySigils;\n        string[] words;\n        string[] dusts;\n    }\n\n    function getStorage() internal pure returns (Storage storage es) {\n        bytes32 position = SPELLS_RENDER_STORAGE_POSITION;\n        assembly {\n            es.slot := position\n        }\n    }\n}\n\ncontract SpellsRendererFacet is CallProtection {\n    using SafeMath for uint256;\n\n    function initializeSpellsRendererFacet() external protectedCall {\n        SpellsRendererStorage.Storage storage es = SpellsRendererStorage\n            .getStorage();\n\n        es.kind = [\"Conjuring\", \"Transforming\", \"Banishing\", \"Divining\"];\n\n        // 5\n        es.element = [\"Frost\", \"Ash\", \"Fire\", \"Poison\", \"Lightning\"];\n\n        // 9\n        es.spell = [\n            \"Ward\",\n            \"Spike\",\n            \"Bane\",\n            \"Bolt\",\n            \"Charm\",\n            \"Rune\",\n            \"Aura\",\n            \"Shard\",\n            \"Eye\"\n        ];\n\n        // 13\n        es.prefixes = [\n            \"Arcane\",\n            \"Befouled\",\n            \"Ancient\",\n            \"Burned\",\n            \"Blessed\",\n            \"Hidden\",\n            \"Dark\",\n            \"Faerie\",\n            \"Dwarven\",\n            \"Druid\",\n            \"Demonic\",\n            \"Corrupted\",\n            \"Celestial\"\n        ];\n\n        // 11\n        es.suffixes = [\n            \"of Vitality\",\n            \"of Hope\",\n            \"of Disaster\",\n            \"of Death\",\n            \"of the Undead\",\n            \"of Power\",\n            \"of the Outer Realm\",\n            \"of Oblivion\",\n            \"of Ascension\",\n            \"of the Dragon\",\n            \"of Time\"\n        ];\n\n        // gods, light, dark, mystic, warrior\n        // [5][7]\n        es.gods = [\n            [\n                \"Anu the Builder\",\n                \"Iluvatar\",\n                \"Manwe\",\n                \"Tathamet\",\n                \"Ytar\",\n                \"Tyre\",\n                \"Dalaran\"\n            ],\n            [\n                \"Morvian the Bold\",\n                \"Alatar\",\n                \"Si'mar\",\n                \"Vehari\",\n                \"Masiara\",\n                \"Lorien\",\n                \"Vana\"\n            ],\n            [\n                \"Sarlon the Lost\",\n                \"Iluvatar\",\n                \"Golrag\",\n                \"Ishnak\",\n                \"Rrazul\",\n                \"Melkor\",\n                \"Skoll\"\n            ],\n            [\n                \"Graardor the Broken\",\n                \"Torva\",\n                \"Ilmare\",\n                \"Jaharra\",\n                \"Tamfana\",\n                \"Kree'arra\",\n                \"Vyr\"\n            ],\n            [\n                \"Zathmet the Destroyer\",\n                \"K'ril Tsutsaroth\",\n                \"General Zilyana\",\n                unicode\"schere\",\n                \"Hunferth\",\n                \"Tulkas\",\n                \"Araw\"\n            ]\n        ];\n\n        // 7\n        es.demigods = [\n            \"Fazurah the Child\",\n            \"Shanar of Vyr\",\n            \"Frydehr\",\n            \"Othmec\",\n            \"Hashir\",\n            \"Nemoc\",\n            \"Jin\"\n        ];\n\n        es.sigils = [\n            unicode\"\",\n            unicode\"\",\n            unicode\"\",\n            unicode\"\",\n            unicode\"\",\n            unicode\"\",\n            unicode\"\"\n        ];\n\n        es.gateSigils = [\n            // gods\n            unicode\"\",\n            // light gods\n            unicode\"\",\n            // dark gods\n            unicode\"\", // [unicode\"\", unicode\"\"],\n            // mystics\n            unicode\"\",\n            // warriors\n            unicode\"\"\n        ];\n\n        es.legendarySigils = [\n            // demigods\n            [unicode\"\", unicode\"\"],\n            // gods\n            [unicode\"\", unicode\"\"],\n            // light gods\n            [unicode\"\", unicode\"\"],\n            // dark gods\n            [unicode\"\", unicode\"\"], // [unicode\"\", unicode\"\"],\n            // mystics\n            // [unicode\"\", unicode\"\"],\n            [unicode\"\", unicode\"\"],\n            // warriors\n            [unicode\"\", unicode\"\"]\n        ];\n\n        es.words = [\n            unicode\"ada\",\n            unicode\"aeilin\",\n            unicode\"avari\",\n            unicode\"barad\",\n            unicode\"brith\",\n            unicode\"dolros\",\n            unicode\"calmt\",\n            unicode\"c\",\n            unicode\"dl\",\n            unicode\"duin\",\n            unicode\"\",\n            unicode\"elenya\",\n            unicode\"er\",\n            unicode\"ethul\",\n            unicode\"orn\",\n            unicode\"goin\",\n            unicode\"gi\",\n            unicode\"ias\",\n            unicode\"na\",\n            unicode\"umen\",\n            unicode\"noc\",\n            unicode\"orodrun\",\n            unicode\"par\",\n            unicode\"slan\",\n            unicode\"quendi\",\n            unicode\"ti\",\n            unicode\"thalias\",\n            unicode\"vs\",\n            unicode\"sin\",\n            unicode\"cs\"\n        ];\n        \n        es.dusts = [\n            unicode\"\",\n            unicode\"\",\n            unicode\"\",\n            unicode\"\",\n            unicode\"\",\n            unicode\"\",\n            unicode\"\",\n            unicode\"`\",\n            unicode\"`\",\n            unicode\"\",\n            unicode\"\",\n            unicode\"\"\n        ];\n    }\n\n    function _getDustCanvas(uint256 tokenId, uint256 n)\n        internal\n        view\n        returns (string[16] memory)\n    {\n        string[16] memory canvas;\n        uint256 rand = SpellsStorage.tokenSeed(tokenId);\n        if (n > 33) {\n            n = 33;\n        }\n        uint256 i;\n        uint256 j;\n        SpellsRendererStorage.Storage storage es = SpellsRendererStorage\n            .getStorage();\n        uint256[256] memory _chars;\n        for (i = 0; i < n; i++) {\n            if (_chars[rand % 256] <= 0) {\n                _chars[rand % 256] = (rand % es.dusts.length) + 1;\n            } else {\n                i--;\n            }\n            rand = rand.div(i + 3);\n        }\n        uint256 charidx;\n        for (i = 0; i < 16; i++) {\n            for (j = 0; j < 16; j++) {\n                charidx = _chars[i * 16 + j];\n                if (charidx > 0) {\n                    canvas[i] = string(\n                        abi.encodePacked(canvas[i], es.dusts[charidx - 1])\n                    );\n                    rand += (i * j + j + 1);\n                } else {\n                    canvas[i] = string(abi.encodePacked(canvas[i], \"\\u00A0\"));\n                }\n            }\n        }\n        return canvas;\n    }\n\n    function _getSpell(uint256 tokenId)\n        internal\n        view\n        returns (\n            string memory title,\n            string memory sigil,\n            string[3] memory chant\n        )\n    {\n        SpellsRendererStorage.Storage storage es = SpellsRendererStorage\n            .getStorage();\n        SpellsCastStorage.Storage storage spellsStorage = SpellsCastStorage\n            .getStorage();\n        uint256 rand = SpellsStorage.tokenSeed(tokenId);\n        uint256 _kind = rand % 3;\n        uint256 greatness = rand % 21;\n        uint256 faction = spellsStorage.factions[tokenId];\n        if (_kind < 1) {\n            title = string(\n                abi.encodePacked(\n                    es.element[rand % es.element.length],\n                    \" \",\n                    es.spell[rand % es.spell.length]\n                )\n            );\n        } else {\n            title = string(\n                abi.encodePacked(\n                    es.kind[rand % es.kind.length],\n                    \" \",\n                    es.spell[rand % es.spell.length]\n                )\n            );\n        }\n\n        if (greatness > 14 && greatness % 3 != 0) {\n            title = string(\n                abi.encodePacked(\n                    es.prefixes[rand % es.prefixes.length],\n                    \" \",\n                    title\n                )\n            );\n        }\n\n        // 16, 18, 20\n        if (greatness >= 16 && greatness % 2 == 0) {\n            title = string(\n                abi.encodePacked(\n                    title,\n                    \" \",\n                    es.suffixes[rand % es.suffixes.length]\n                )\n            );\n        }\n\n        // 19, 20\n        sigil = es.sigils[rand % es.sigils.length];\n        if (faction > 0) {\n            sigil = es.gateSigils[faction - 1];\n        }\n        if (greatness >= 18 && rand % 2 == 0) {\n            rand = rand.div(3);\n            if (faction == 0) {\n                title = string(\n                    abi.encodePacked(\n                        es.demigods[rand % es.demigods.length],\n                        \"'s \",\n                        title\n                    )\n                );\n            } else {\n                title = string(\n                    abi.encodePacked(\n                        es.gods[faction - 1][\n                            rand % es.gods[faction - 1].length\n                        ],\n                        \"'s \",\n                        title\n                    )\n                );\n            }\n            if (greatness == 20) {\n                sigil = es.legendarySigils[faction][1];\n            } else {\n                sigil = es.legendarySigils[faction][0];\n            }\n        }\n\n        rand = random(title);\n        uint256 n = 0;\n        if (greatness > 16) {\n            n = 5;\n        }\n        n = (rand % 7) + 4 + n;\n        uint256 i = 0;\n        uint256 offset = 0;\n        for (i = 0; i < n; i++) {\n            rand = rand.div(i + 1);\n            offset = i.div(5);\n            if (bytes(chant[offset]).length == 0) {\n                chant[offset] = es.words[rand % es.words.length];\n            } else {\n                chant[offset] = string(\n                    abi.encodePacked(\n                        chant[offset],\n                        \" \",\n                        es.words[rand % es.words.length]\n                    )\n                );\n            }\n        }\n        return (title, sigil, chant);\n    }\n\n    function getSpell(uint256 tokenId)\n        external\n        view\n        returns (\n            string memory name,\n            string memory sigil,\n            string memory incantation\n        )\n    {\n        string[3] memory _incantation;\n        (name, sigil, _incantation) = _getSpell(tokenId);\n        incantation = string(\n            abi.encodePacked(\n                _incantation[0],\n                \" \",\n                _incantation[1],\n                \" \",\n                _incantation[2]\n            )\n        );\n    }\n\n    function _getAttributes(string memory sigil, uint256 dust)\n        internal\n        pure\n        returns (bytes memory)\n    {\n        return\n            abi.encodePacked(\n                '[{\"trait_type\":\"Sigil\", \"value\": \"',\n                sigil,\n                '\"},{\"trait_type\":\"Dust\", \"value\":',\n                Strings.toString(dust),\n                \"}]\"\n            );\n    }\n\n    function tokenURI(uint256 tokenId) external view returns (string memory) {\n        string memory name;\n        string memory sigil;\n        string[3] memory incantation;\n        (name, sigil, incantation) = _getSpell(tokenId);\n\n        SpellsCastStorage.Storage storage spellsStorage = SpellsCastStorage\n            .getStorage();\n\n        uint256 dustAmount = spellsStorage.dust.balanceOf(\n            address(this),\n            tokenId\n        );\n        // / (1e9 gwei);\n\n        // if (!spellsStorage.reveals[tokenId]) {\n        //     sigil = \"\";\n        // }\n\n        string[16] memory canvas = _getDustCanvas(\n            tokenId,\n            dustAmount / (1e9 gwei)\n        );\n        string[12] memory parts;\n        // parts[\n        //     0\n        // ] = '<svg xmlns=\"http://www.w3.org/2000/svg\" preserveAspectRatio=\"xMinYMin meet\" viewBox=\"0 0 400 350\"><style>.base { fill: lightyellow; font-family: serif; font-size: 14px; } .chant { font-style: italic;} .dust {font-family: monospace; font-size: 8px; letter-spacing:5px;}.sm{font-size: 10px;} </style><rect width=\"100%\" height=\"100%\" fill=\"#171717\" /><text x=\"10\" y=\"20\" class=\"base\">';\n        parts[\n            0\n        ] = '<svg xmlns=\"http://www.w3.org/2000/svg\" preserveAspectRatio=\"xMinYMin meet\" viewBox=\"0 0 400 350\"><style>.base { fill: lightyellow; font-family: serif; font-size: 14px; } .chant { font-style: italic;} .dust {font-family: monospace; font-size: 8px; letter-spacing:5px;}.sm{font-size: 10px;} .sigil{font-family: monospace, font-size:13}</style><rect width=\"100%\" height=\"100%\" fill=\"#171717\" /><text x=\"14\" y=\"24\" class=\"base\">';\n\n        parts[1] = name;\n        parts[2] = '</text><text x=\"14\" y=\"45\" class=\"base chant\">';\n        parts[3] = incantation[0];\n        parts[4] = '</text><text x=\"14\" y=\"65\" class=\"base chant\">';\n        parts[5] = incantation[1];\n        parts[6] = '</text><text x=\"14\" y=\"85\" class=\"base chant\">';\n        parts[7] = incantation[2];\n        parts[8] = '</text><text x=\"376\" y=\"336\" class=\"base sigil\">';\n        parts[9] = sigil;\n        parts[10] = '</text><text x=\"10\" y=\"340\" class=\"base sm\">';\n        // parts[11] = Strings.toString(dustAmount);\n        parts[11] = \"\";\n\n        // parts[10] = \"</text></svg>\";\n\n        string memory output = string(\n            abi.encodePacked(\n                parts[0],\n                parts[1],\n                parts[2],\n                parts[3],\n                parts[4],\n                parts[5],\n                parts[6],\n                parts[7],\n                parts[8],\n                parts[9],\n                parts[10],\n                parts[11]\n            )\n        );\n        uint256 i;\n        for (i = 0; i < 16; i++) {\n            output = string(\n                abi.encodePacked(\n                    output,\n                    '</text><text x=\"20\" y=\"',\n                    Strings.toString(i * 10 + 145),\n                    '\" class=\"base chant dust\">',\n                    canvas[i]\n                )\n            );\n        }\n        output = string(abi.encodePacked(output, \"</text></svg>\"));\n\n        string memory json = Base64.encode(\n            bytes(\n                string(\n                    abi.encodePacked(\n                        // '{\"name\": \"Spell #',\n                        // Strings.toString(tokenId),\n                        '{\"name\": \"',\n                        name,\n                        '\", \"description\": \"Spells is randomized magic generated and stored on chain. Stats, images, and other functionality are intentionally omitted for others to interpret. Feel free to use Spells in any way you want.\", \"image\": \"data:image/svg+xml;base64,',\n                        Base64.encode(bytes(output)),\n                        '\", \"attributes\":',\n                        _getAttributes(sigil, dustAmount),\n                        \"}\"\n                    )\n                )\n            )\n        );\n        output = string(\n            abi.encodePacked(\"data:application/json;base64,\", json)\n        );\n\n        return output;\n    }\n\n    function random(string memory input) internal pure returns (uint256) {\n        return uint256(keccak256(abi.encodePacked(input)));\n    }\n}\n",
  "sourcePath": "/Users/alexirobbins/Sites/code/spells/contracts/spells/facets/SpellsRendererFacet.sol",
  "compiler": {
    "name": "solc",
    "version": "0.8.15+commit.e14f2714.Emscripten.clang"
  },
  "schemaVersion": "3.4.9",
  "updatedAt": "2022-09-06T22:21:08.959Z",
  "networkType": "ethereum",
  "devdoc": {
    "kind": "dev",
    "methods": {},
    "version": 1
  },
  "userdoc": {
    "kind": "user",
    "methods": {},
    "version": 1
  }
}