{
  "contractName": "SpellsTokenController",
  "abi": [
    {
      "inputs": [],
      "name": "SenderNotGodspell",
      "type": "error"
    },
    {
      "anonymous": false,
      "inputs": [
        {
          "indexed": false,
          "internalType": "address",
          "name": "godspell",
          "type": "address"
        }
      ],
      "name": "GodspellUpdated",
      "type": "event"
    },
    {
      "inputs": [
        {
          "internalType": "address",
          "name": "_spellGate",
          "type": "address"
        }
      ],
      "name": "setSpellGate",
      "outputs": [],
      "stateMutability": "nonpayable",
      "type": "function"
    },
    {
      "inputs": [],
      "name": "getSpellGate",
      "outputs": [
        {
          "internalType": "address",
          "name": "",
          "type": "address"
        }
      ],
      "stateMutability": "view",
      "type": "function",
      "constant": true
    },
    {
      "inputs": [
        {
          "internalType": "address",
          "name": "_godspell",
          "type": "address"
        }
      ],
      "name": "setGodsepll",
      "outputs": [],
      "stateMutability": "nonpayable",
      "type": "function"
    },
    {
      "inputs": [
        {
          "internalType": "uint8",
          "name": "_state",
          "type": "uint8"
        }
      ],
      "name": "setSaleState",
      "outputs": [],
      "stateMutability": "nonpayable",
      "type": "function"
    },
    {
      "inputs": [],
      "name": "getSaleState",
      "outputs": [
        {
          "internalType": "uint8",
          "name": "_state",
          "type": "uint8"
        }
      ],
      "stateMutability": "view",
      "type": "function",
      "constant": true
    },
    {
      "inputs": [
        {
          "internalType": "uint256",
          "name": "price_",
          "type": "uint256"
        }
      ],
      "name": "setPrice",
      "outputs": [],
      "stateMutability": "nonpayable",
      "type": "function"
    }
  ],
  "bytecode": "0x608060405234801561001057600080fd5b5061088d806100206000396000f3fe608060405234801561001057600080fd5b50600436106100625760003560e01c80631215bd811461006757806325bdb2a814610083578063441b04eb146100a15780635a67de07146100bd578063817b430c146100d957806391b7f5ed146100f7575b600080fd5b610081600480360381019061007c9190610661565b610113565b005b61008b610227565b60405161009891906106aa565b60405180910390f35b6100bb60048036038101906100b69190610661565b610259565b005b6100d760048036038101906100d291906106f1565b610375565b005b6100e161048f565b6040516100ee919061072d565b60405180910390f35b610111600480360381019061010c919061077e565b6104c2565b005b61011b6105a4565b60040160009054906101000a900473ffffffffffffffffffffffffffffffffffffffff1673ffffffffffffffffffffffffffffffffffffffff163373ffffffffffffffffffffffffffffffffffffffff16146101a3576040517fa6ffef2000000000000000000000000000000000000000000000000000000000815260040160405180910390fd5b806101ac6105a4565b60040160006101000a81548173ffffffffffffffffffffffffffffffffffffffff021916908373ffffffffffffffffffffffffffffffffffffffff1602179055507fe643078997787c9962bce9dd237244e570a704a8cd9bf7332784d8d63225a8c28160405161021c919061072d565b60405180910390a150565b60006102316105a4565b60030160009054906101000a900460ff166003811115610254576102536107ab565b5b905090565b6102616105d1565b60030160009054906101000a900473ffffffffffffffffffffffffffffffffffffffff1673ffffffffffffffffffffffffffffffffffffffff163373ffffffffffffffffffffffffffffffffffffffff1614806102e957503073ffffffffffffffffffffffffffffffffffffffff163373ffffffffffffffffffffffffffffffffffffffff16145b610328576040517f08c379a000000000000000000000000000000000000000000000000000000000815260040161031f90610837565b60405180910390fd5b806103316105a4565b60030160016101000a81548173ffffffffffffffffffffffffffffffffffffffff021916908373ffffffffffffffffffffffffffffffffffffffff16021790555050565b61037d6105d1565b60030160009054906101000a900473ffffffffffffffffffffffffffffffffffffffff1673ffffffffffffffffffffffffffffffffffffffff163373ffffffffffffffffffffffffffffffffffffffff16148061040557503073ffffffffffffffffffffffffffffffffffffffff163373ffffffffffffffffffffffffffffffffffffffff16145b610444576040517f08c379a000000000000000000000000000000000000000000000000000000000815260040161043b90610837565b60405180910390fd5b8060ff16600381111561045a576104596107ab565b5b6104626105a4565b60030160006101000a81548160ff02191690836003811115610487576104866107ab565b5b021790555050565b60006104996105a4565b60030160019054906101000a900473ffffffffffffffffffffffffffffffffffffffff16905090565b6104ca6105d1565b60030160009054906101000a900473ffffffffffffffffffffffffffffffffffffffff1673ffffffffffffffffffffffffffffffffffffffff163373ffffffffffffffffffffffffffffffffffffffff16148061055257503073ffffffffffffffffffffffffffffffffffffffff163373ffffffffffffffffffffffffffffffffffffffff16145b610591576040517f08c379a000000000000000000000000000000000000000000000000000000000815260040161058890610837565b60405180910390fd5b8061059a6105a4565b6000018190555050565b6000807f32b2e02f32560e257eaad13ed8a4f0ffa175bcb89327c67da202bdcd5579cc1290508091505090565b6000807fc8fcad8db84d3cc18b4c41d551ea0ee66dd599cde068d998e57d5e09332c131c90508091505090565b600080fd5b600073ffffffffffffffffffffffffffffffffffffffff82169050919050565b600061062e82610603565b9050919050565b61063e81610623565b811461064957600080fd5b50565b60008135905061065b81610635565b92915050565b600060208284031215610677576106766105fe565b5b60006106858482850161064c565b91505092915050565b600060ff82169050919050565b6106a48161068e565b82525050565b60006020820190506106bf600083018461069b565b92915050565b6106ce8161068e565b81146106d957600080fd5b50565b6000813590506106eb816106c5565b92915050565b600060208284031215610707576107066105fe565b5b6000610715848285016106dc565b91505092915050565b61072781610623565b82525050565b6000602082019050610742600083018461071e565b92915050565b6000819050919050565b61075b81610748565b811461076657600080fd5b50565b60008135905061077881610752565b92915050565b600060208284031215610794576107936105fe565b5b60006107a284828501610769565b91505092915050565b7f4e487b7100000000000000000000000000000000000000000000000000000000600052602160045260246000fd5b600082825260208201905092915050565b7f4e4f545f414c4c4f574544000000000000000000000000000000000000000000600082015250565b6000610821600b836107da565b915061082c826107eb565b602082019050919050565b6000602082019050818103600083015261085081610814565b905091905056fea2646970667358221220e38f55110c8de3f66afa2cd96921b67236278544b23bf7e5e8469ce4731f9bad64736f6c634300080f0033",
  "immutableReferences": {},
  "source": "// SPDX-License-Identifier: MIT\npragma solidity ^0.8.4;\n\nimport { ERC165Storage } from \"@solidstate/contracts/introspection/ERC165Storage.sol\";\n\nimport { LibDiamond } from \"../libraries/LibDiamond.sol\";\nimport { IDust } from \"../../dust/IDust.sol\";\nimport { ECDSA } from \"../../helpers/ECDSA.sol\";\nimport { SpellsCastStorage } from \"./SpellsCastStorage.sol\";\nimport { SpellsStorage } from \"./SpellsStorage.sol\";\nimport { ERC721Checkpointable } from \"./ERC721Checkpointable/ERC721Checkpointable.sol\";\nimport {ERC721AQueryableUpgradeable} from \"./ERC721A/extensions/ERC721AQueryableUpgradeable.sol\";\nimport { CallProtection } from \"./shared/Access/CallProtection.sol\";\nimport { LinearVRGDA } from \"./VRGDA/LinearVRGDA.sol\";\nimport { toDaysWadUnsafe } from  \"./VRGDA/math/SignedWadMath.sol\";\nimport { ReentryProtection } from \"./shared/reentry/ReentryProtection.sol\";\nimport { ERC721Checkpointable } from \"./ERC721Checkpointable/ERC721Checkpointable.sol\";\n\n\ncontract SpellsTokenController is ReentryProtection, CallProtection {\n    \n    event GodspellUpdated(address godspell);\n    \n    error SenderNotGodspell();\n    \n    function setSpellGate(address _spellGate) external protectedCall {\n        SpellsStorage.getStorage().spellGate = _spellGate;\n    }\n\n    function getSpellGate() external view returns (address) {\n        return SpellsStorage.getStorage().spellGate;\n    }\n    \n    modifier onlyGodspell() {\n         if(msg.sender != SpellsStorage.getStorage().godspell) revert SenderNotGodspell();\n        _;\n    }\n   \n    /**\n    * @notice Set the godspell.\n    * @dev Only callable by the godspell.\n    */\n   function setGodsepll(address _godspell) external onlyGodspell {\n       SpellsStorage.getStorage().godspell = _godspell;\n       emit GodspellUpdated(_godspell);\n   }\n\n   /**\n    * @dev Sets sale state to CLOSED (0), PRESALE (1), or OPEN (2).\n    */\n   function setSaleState(uint8 _state) external protectedCall {\n       SpellsStorage.getStorage().saleState = SpellsStorage.SaleState(\n           _state\n       );\n   }\n\n   function getSaleState() external view returns (uint8 _state) {\n       return uint8(SpellsStorage.getStorage().saleState);\n   }\n\n   function setPrice(uint256 price_) external protectedCall {\n       SpellsStorage.getStorage().seedMintPrice = price_;\n   }\n   \n}",
  "sourcePath": "/Users/alexirobbins/Sites/code/spells/contracts/spells/facets/SpellsTokenController.sol",
  "compiler": {
    "name": "solc",
    "version": "0.8.15+commit.e14f2714.Emscripten.clang"
  },
  "schemaVersion": "3.4.9",
  "updatedAt": "2022-09-06T22:21:08.978Z",
  "networkType": "ethereum",
  "devdoc": {
    "kind": "dev",
    "methods": {
      "setGodsepll(address)": {
        "details": "Only callable by the godspell."
      },
      "setSaleState(uint8)": {
        "details": "Sets sale state to CLOSED (0), PRESALE (1), or OPEN (2)."
      }
    },
    "version": 1
  },
  "userdoc": {
    "kind": "user",
    "methods": {
      "setGodsepll(address)": {
        "notice": "Set the godspell."
      }
    },
    "version": 1
  }
}